:020000040800F2
:100000009005002001010008E92B0008C924000820
:10001000E52B0008C5020008CD35000800000000EF
:10002000000000000000000000000000CD320008C9
:10003000CD05000800000000C9320008D1320008D8
:100040001B0100081B0100081B0100081B01000820
:100050001B0100081B0100081B0100081B01000810
:100060001B0100081B0100081B010008C105000856
:100070001B0100081B0100081B0100081B010008F0
:100080001B0100081B0100081B0100081B010008E0
:100090001B0100081B0100081B0100081B010008D0
:1000A0001B0100081B0100081B0100081B010008C0
:1000B0001B0100081B0100081B0100081B010008B0
:1000C0001B0100081B0100081B0100081B010008A0
:1000D0001B0100081B0100081B0100081B01000890
:1000E0001B0100081B0100081B010008DFF80CD0F1
:1000F00000F040F800480047513800089005002003
:100100000648804706480047FEE7FEE7FEE7FEE7B1
:10011000FEE7FEE7FEE7FEE7FEE7FEE7D532000872
:10012000ED000008D2B201E000F8012B491EFBD21D
:1001300070470022F6E710B513460A4604461946F2
:10014000FFF7F0FF204610BD30B50B4601460020FA
:100150002022012409E021FA02F59D4205D303FA89
:1001600002F5491B04FA02F52844151EA2F101020A
:10017000F1DC30BD064C074D06E0E06840F00103BD
:1001800094E8070098471034AC42F6D3FFF7B2FF6B
:10019000E0660008006700080146406A826A12F0C3
:1001A000500F03D0006A026B084610470168826A4C
:1001B00042F400728262896801F46021B1F5602F17
:1001C00001D1017B11B100F0CFBA00BF816A21F4E7
:1001D00080718162816AC90448BF00F0C5BA816A32
:1001E00041F00101816200F0BFBA0000406A816AFB
:1001F00041F040018162C16A41F00401C16200F036
:10020000B7BA0000406A00F0B1BA0000B0B582B0E1
:1002100004460020019021688A68D2074FD188687F
:1002200040F00100886040F22800C2F2000000683F
:100230004DF68361C4F21B31A0FB0101880C0190D3
:100240000198A0B1019801380190019878B1019806
:1002500001380190019850B101980138019001983E
:1002600028B101980138019001980028EAD100F0E6
:10027000C7FE21688968C9071CD1054603E000BF95
:100280008068C0071AD100F0BBFE411B206803291B
:10029000F6D38168C907F3D1A06A40F01000A062CC
:1002A000E06A40F00100E062002084F824000120B0
:1002B00002B0B0BD002002B0B0BD00BF002002B04F
:1002C000B0BD0000FEE70000B0B584B040F6000409
:1002D000C4F2010400208021CDE90200CDE9001024
:1002E0006946204600F072FD2046802100F07CFE29
:1002F00090B100200546012000F03AFD2046802103
:1003000000F072FE18B1632D05F10100F2D3622DE9
:1003100002D9012004B0B0BD2046802100F064FE67
:1003200010B1002004B0B0BD002000BF0546012080
:1003300000F01EFD2046802100F056FE18B9632D06
:1003400005F10100F2D30020622D88BF012004B026
:10035000B0BD0000B0B540F60004C4F20104204670
:10036000802100F041FE68B1002500BF012000F0AF
:10037000FFFC2046802100F037FE18B1632D05F107
:100380000105F3D32046802100F02EFE60B9002540
:10039000012000F0EDFC2046802100F025FE18B978
:1003A000632D05F10105F3D3282000F0E1FC204680
:1003B000802100F019FE002818BF0120B0BD000008
:1003C0002DE9F04F87B0044600200590802040F6CC
:1003D000000703900320C4F201078A460126069015
:1003E00003A93846049600F0F1FC3846802100222B
:1003F00000F000FE142000F0A7FC38468021012206
:1004000000F0F8FD1E2000F0B3FCFFF75DFF18B10F
:10041000304607B0BDE8F08F0194FFF79BFF06461A
:10042000FFF798FF400040EA8604FFF793FF44EA95
:100430000005FFF78FFF0646FFF78CFF0746FFF723
:1004400089FF0446F00040EA870040EA0515FFF7FF
:1004500081FF40EA440040EA0504FFF77BFF40EAE1
:1004600044000290FFF776FF0446FFF773FF400059
:1004700040EA8404FFF76EFF44EA0005FFF76AFFD5
:100480000446FFF767FF0646FFF764FF0746E000F4
:1004900040EA860040EA0514FFF75CFF40EA4700A7
:1004A0000443FFF757FF40EA440BFFF753FF0446AE
:1004B000FFF750FF400040EA8404FFF74BFF44EA97
:1004C0000005FFF747FF0446FFF744FF0646FFF726
:1004D00041FF0746E00040EA860040EA0514FFF7C6
:1004E00039FF40EA47000443FFF734FF40EA44087D
:1004F000FFF730FF0446FFF72DFF400040EA840479
:10050000FFF728FF44EA0005FFF724FF0446FFF742
:1005100021FF0646FFF71EFF0746E00040EA86007F
:1005200040EA0514FFF716FF40EA47000443FFF7CF
:1005300011FF40EA4409FFF70DFF0446FFF70AFFE9
:10054000400040EA8404FFF705FF44EA0005FFF796
:1005500001FF0446FFF7FEFE0646FFF7FBFE0746D7
:10056000E00040EA860040EA0514FFF7F3FE40EAA7
:1005700047000443FFF7EEFE40EA440302985FFAA7
:100580008BF1C0B20A185FFA88F717445FFA89F254
:100590001744DBB29F420DD141EA00200199AAF82D
:1005A000000042EA082000260880304607B0BDE877
:1005B000F08F00BF0026304607B0BDE8F08F000086
:1005C00040F26000C2F2000000F05CBA7047000028
:1005D000EFF3108072B600BFFEE7000010B581B0E7
:1005E0000022009290F82420012A03D1022108461B
:1005F00001B010BD4B680122062B80F8242017D8CB
:10060000D0F800C003EB83035A1F1F23DCF834E04B
:1006100003FA02F40B682EEA040403FA02F22243FE
:10062000CCF83420092B03EB430219D936E000BF84
:10063000D0F800C00C2B03EB83021DD8233A1F23F4
:10064000DCF830E003FA02F40B682EEA040403FA43
:1006500002F22243CCF83020092B03EB43021DD8D1
:10066000DCF81030072489689440A3439140194373
:10067000CCF81010002130E0413A1F23DCF82CE0C8
:1006800003FA02F40B682EEA040403FA02F222438E
:10069000CCF82C20092B03EB4302E1D9DCF80CE069
:1006A0001E3A0724896894402EEA0404914023F0FE
:1006B00001022143102ACCF80C100DD142F208415E
:1006C000C4F20101A1F1080294450DD0816A41F004
:1006D00020018162012100E00021002280F8242015
:1006E000084601B010BD00BF0A68120230D40A6883
:1006F000102B42F400020A602CD140F22801C2F211
:10070000000109684DF68362C4F21B32A1FB02129C
:10071000910C01EB8101490000910099E1B1009930
:10072000013900910099C9B10099013900910099EE
:10073000B1B1009901390091009999B1009901393D
:100740000091009900294FF00001E8D1C5E700BFF2
:100750000021C2E70021C0E70021BEE70021BCE77D
:100760000021BAE70021B8E7704700007047000099
:1007700070470000B0B5002800F0A8800446806AE9
:1007800020B121688868C0070BD114E00020E06226
:1007900084F82400204600F09BF821688868C00790
:1007A00009D0886820F00100886000F029FC2168E9
:1007B0008A68D20726D1A06AC0063AD4A06A41F25C
:1007C000021290430230A062E069D4E9013240EAAB
:1007D000030C531EB3FA83F35D091346B2F5807F11
:1007E00018BF2B02207D257B01284CEA450030D123
:1007F00035B3A56A45F02005A562E56A45F0010517
:10080000E56226E0054602E08868C007D3D000F024
:10081000F7FB401B21680328F6D38868C007F3D094
:10082000A06A40F01000A062E06A40F00100E062BF
:10083000A06AA06A40F01000A0620120B0BD00BF15
:10084000D4F818C04EF60005CFF6FF7505EB4C3511
:100850002B434D68B2F5807F25F4694543EA0503D3
:100860004B608B684FF2FD75CFF6E17503EA050327
:1008700043EA00038B6001D0012A07D122690023DB
:10088000CFF6F07303EB025201E000BF0022CB6A07
:1008900023F470031A43CA62896840F6FE62CFF6F9
:1008A0001F721140814207D10020E062A16A01223B
:1008B00062F30101A162B0BDA06A40F0100020F017
:1008C0000200A062E06A40F00100E0620120B0BDD9
:1008D00070B586B0044640F60000C4F201002168FD
:1008E00000F5E052002691420596049602D006B02B
:1008F00070BD00BF41F21801C4F202010A6842F45F
:1009000000720A600A6802F400720192019A0A6891
:1009100042F004020A60096801F0040101910199A2
:10092000012102910321039102A900F04FFA40F244
:1009300060050820C2F20005C4F202004FF4807284
:10094000C5E9000605F1100080214FF480634CC01A
:100950002846C5E90261EE6100F064F9002818BF7D
:10096000FFF736FE25626C6206B070BD70B51546A5
:100970000446006842F60002C4F2010290420E46AC
:1009800005D042F20041C4F20101884209D142F28D
:100990000440C4F20100006810F4702F1CBF012055
:1009A00070BD94F82400012804BF022070BD01200E
:1009B00084F824002046FFF729FC18B1002184F8B0
:1009C000241070BD42F204402168A26AC4F2010002
:1009D00040F601739A4300F57F7302F580729942E5
:1009E000A26243D0A06A20F48010A062486840054B
:1009F00004D5A06A012262F30D30A062A26A002031
:100A0000D2044FF0000244BFE26A22F00602E26222
:100A100084F82400206A40F29912C0F6000240F2E5
:100A2000052340F2ED1C00F1280EC0F60003C0F6CD
:100A3000000C8EE80C106FF002020A608A682B46E8
:100A400042F480728A604C31324600F02FF92068FF
:100A5000816801F460228168B2F5602F0CBF41F417
:100A6000A00141F480118160002070BD026812F481
:100A7000702FB7D0A26A42F48012A26200684005CB
:100A8000BCD5B6E710B5D0E90FCE0168DCF8003070
:100A90000A6823FA0EF35C072AD512F0040427D063
:100AA0000A68920603D40A6822F004020A602F2220
:100AB000C4F20202914240F20402C4F202025BDD7F
:100AC0003023C4F20203994272D04423C4F20203D9
:100AD000994273D05823C4F20203994240F07A80BD
:100AE0004FF480231360C16A002940F098806FE0C2
:100AF0009C0727D512F0020424D00A68920606D477
:100B00000A6822F00A020A60012280F821202F22BE
:100B1000C4F20202914240F20402C4F202023BDD3E
:100B20003023C4F20203994260D04423C4F202038A
:100B300099425FD05823C4F20203994260D14FF426
:100B4000003365E01B0743D512F0080208BF10BD53
:100B50000A6822F00E020A60012101FA0EF2CCF8B6
:100B60000420816380F82110016B0022002980F8A5
:100B7000202054D12CE000BF0823C4F20203994284
:100B800022D01C23C4F20203994223D140231360D4
:100B9000C16A002943D11BE00823C4F20203994231
:100BA0002CD01C23C4F20203994229D120232FE028
:100BB0004FF480631360C16A89BB09E04FF480433E
:100BC0001360C16A59BB03E004231360C16A31BBDF
:100BD00010BD00BF02F168044FF08063A14208BF5E
:100BE0004FF480031360C16AC9B9F1E74FF4007391
:100BF0000EE000BF4FF400530AE000BF022307E0FD
:100C000002F168044FF00073A14208BF4FF40013D3
:100C10001360816A0022002980F82020D8D0BDE826
:100C200010400847014600284FF0010008BF7047F8
:100C30002DE9F043D1F800C04FF6F873CBF6FD7301
:100C40004CF6CD426344CCF6CC42A3FB02236FF0BA
:100C5000030707EA93030027C4F2020701F10C0916
:100C6000C1E90F730223D1E9012E99E87002D1F88E
:100C70001C8081F82130DCF8003043F6F077BB436C
:100C80001A4342EA0E0222432A43324342EA09024D
:100C900042EA0802CCF8002000228A6381F8210091
:100CA00081F820200020BDE8F0437047F0B590F8AF
:100CB00020C0BCF1010F32D04FF0010E80F820E0CF
:100CC00090F821C0BCF1010F26D14FF0020C80F842
:100CD00021C04FF0000CC0F838C0D0E900C4C56A8C
:100CE000C66BDCF80070102C27F00107CCF8007000
:100CF000006C0EFA00F070600846CCF8043004BFB7
:100D000010460A46CCF80800CCF80C20DCF80000AD
:100D100045B140F00E000DE0002180F820100220C7
:100D2000F0BD00BF20F00400CCF80000DCF80000AB
:100D300040F00A00CCF80000DCF8000040F00100B0
:100D4000CCF800000020F0BDB0B5044600F058F922
:100D5000054640F20400C2F200000078611C18BF92
:100D6000044400BF00F04CF9401BA042FAD3B0BDD0
:100D7000B0B540F2F8046FF00501C2F20004081AA1
:100D8000216885B220464D6200F0DEFF4FF6F97013
:100D9000854213D820684FF6FA7100BF426A92B2BA
:100DA0008A420BD2426A92B28A4207D2426A92B215
:100DB0008A4203D2426A92B28A42EFD340F2F800EA
:100DC000C2F20000BDE8B04000F0F2BF2DE9F04FE4
:100DD00082B00E68002E00F0038141F20042C4F29E
:100DE0000102042340F2004E904208BF03234FF655
:100DF000FF7CC4F2010E009300240123C1F2100C09
:100E00004FF0000A4FF0000949E000BF012704F04D
:100E10000C030F229A402BEA020207FA03F34FEA6F
:100E20009A051A4346F82520D1F804B040F20C4543
:100E30005FEACB22DEF8082054BF22EA080242EA29
:100E40000802C4F20105CEF808202A685FEA8B2365
:100E500054BF22EA080242EA08022A605FEA8B33A2
:100E6000DEF8042054BF22EA080242EA08025FEAE0
:100E7000CB33CEF80420DEF800204FF0010354BF3E
:100E800022EA080242EA0802CEF800200E680AF1BF
:100E9000010A36FA0AF204F1040400F0A18003FA10
:100EA0000AF816EA080FF1D04E68664512DC122ED9
:100EB00056D8DFE806F0350B45495555555555557B
:100EC000555555555555554D510000BFD1F80C900D
:100ED00046E000BF4FF6FF72C1F2210296420FDCDE
:100EE0000022C1F2110296421AD00022C1F212026F
:100EF000964215D00022C1F22102964210D02FE076
:100F00000022C1F2220296420AD00022C1F231022E
:100F1000964205D00022C1F23202964220D100BF93
:100F20008A684AB1012A14BFC0F81480C0F8108042
:100F30004FF0080914E000BF4FF0040910E000BFB3
:100F4000CA6802F108090BE04FF0000908E000BF91
:100F5000CA6802F1040903E0CA6802F10C0900BF83
:100F600022460646BAF1080F24BF203A04363768F5
:100F70000F25954027EA050509FA02F22A43326057
:100F8000CA79D2067FF582AF41F21803C4F2020398
:100F90001A68AEF57E7642F001021A601A6802F015
:100FA00001020192019A2AF0030256F802B040F6BB
:100FB0000002C4F20102904210D040F60042C4F296
:100FC000010290423FF422AF41F20002C4F201025A
:100FD000009F904208BF022719E700BF002716E7CD
:100FE00002B0BDE8F08F00008068084018BF012003
:100FF00070470000002A08BF090401617047000023
:1010000040F28810C2F200000068704770B5B8B3B3
:10101000044690F83D0028B9002084F83C002046A2
:1010200000F05CF9242084F83D002068016821F07C
:1010300001010160016841F400410160016821F48F
:101040000041016000F09AFB48F28041C0F21E01AD
:1010500040F60013D4F804E088424FF00001C0F2DB
:101060003D0348F2A16C4FF0000238BF01219842C5
:10107000C0F2010C38BF0122E64538BF0A460AB16A
:10108000012070BD4DF68361C4F21B31A0FB01123B
:101090002168950C4B684FF4967623F03F0343EAA2
:1010A0009243754344F6D3564B60C1F262060B6A15
:1010B000A5FB0656B50923F03F03E64538BF950C5E
:1010C0006A1C1A430A62CA6948F2A0664CF6FF73AA
:1010D000C0F20106B64522EA03020BD801384FEAF6
:1010E0004E03B0FBF3F001306FF31F30042898BFBC
:1010F00004201EE0A368013863B119230EFB03F33B
:10110000B0FBF3F001306FF31F3078B100F5804091
:1011100008E000BF0EEB4E03B0FBF3F001306FF3BD
:101120001F3028B100F5004003E000BF012000E0BF
:1011300001201043C8610868D4E9072320F0C000EB
:10114000104318430860886848F2FF3204F10C0627
:1011500090434CCE18431043A5698860C86820F0BE
:10116000FF0030432843C860086840F00100086071
:1011700000202021206484F83D10206384F83E0084
:1011800070BD00002DE9F04383B0994616460F4626
:101190000446FFF735FF94F83D10202920D105467D
:1011A000206800BF8169890716D5FFF729FF411B19
:1011B00020681A29F6D381698907F3D500202021F8
:1011C000206384F83D1084F83E00216C41F020013A
:1011D000216484F83C0003E094F83C10012903D119
:1011E000022003B0BDE8F083012284F83C200368AC
:1011F000DDE90B180A9ADB0703D1036843F001030A
:101200000360036823F400630360212084F83D0039
:10121000402084F83E000020206462626185608D79
:10122000394620850020CFF6FF70E0622046324626
:101230004B46CDF80080019501F048F920B101201E
:1012400003B0BDE8F08300BF208D98B92046414629
:101250002A4601F09FF988B3206C0428EFD120685A
:10126000016841F400710160012003B0BDE8F08322
:101270000004EBD0204641462A4601F045FB0028F9
:10128000EAD1616A2268084610F8013B1361238D98
:101290006062581E2085678D013F678557697F070B
:1012A000E6D50704E4D048781061881C6062981E77
:1012B0002085618D01396185DAE700BF206801680A
:1012C00041F400710160202084F83D00002084F882
:1012D0003E0084F83C0003B0BDE8F08310B586B052
:1012E00045F200410068C4F20001002288420492E5
:1012F00002D006B010BD00BF41F21804C4F20204CF
:10130000206840F008002060206800F0080001908C
:101310000198C0200290122003900320059001F54F
:10132000384002A9FFF752FD606840F40010606089
:10133000606800F400100190019806B010BD000034
:1013400040F2040040F28811C2F20000C2F2000133
:1013500000780A68104408607047000080B542F2C7
:101360000000C4F20200016841F010010160032096
:1013700000F08EF80F2000F005F800F027F80020AC
:1013800080BD000070B540F20406C2F2000640F2D3
:1013900028013278C2F200014FF47A730968B3FB76
:1013A000F2F20446B1FBF2F1084600F0E9FB0F2C23
:1013B0004FF0010508D838B94FF0FF302146002220
:1013C000002500F039F87460284670BD82B041F203
:1013D0001800C4F202000168022241F0010101601C
:1013E000016801F0010101910199416841F08051CA
:1013F0004160406800F08050009000980420C4F2E2
:101400000100016862F31A61016002B070470000D8
:10141000002848BF7047C1B200F01F00012202FA45
:1014200000F04EF20012CEF2000242EAD10121F0A9
:10143000030108607047000010B54EF60C5CCEF258
:10144000000CDCF80030C3F3022E8EF00704042CED
:1014500028BF0424BEF103034FF0FF3E0EFA04F44C
:1014600038BF0023A14399400EFA03F39A43114376
:1014700000F00F0200F160430901043A03F56443F0
:101480006244002848BF02F10C03197010BD00002F
:101490004EF60C51CEF200010A684FF6FF031A40D7
:1014A00060F30A2242F0806040F0FD7008607047EF
:1014B0002DE9F04182B00446007841F21C06C007D5
:1014C000C4F202064AD0306810F0805808D1306863
:1014D00040F080503060306800F0805001900198FA
:1014E00047F20007C4F200073868C00512D4386814
:1014F00040F480703860FFF783FD05463868C0050A
:1015000008D4FFF77DFD401B6428F7D9032002B003
:10151000BDE8F081706810F4407012D0616801F489
:10152000407188420DD0706840F24042C4F24222BD
:10153000012320F4407113600023C0071360716021
:101540002AD17068616820F440700843B8F1000F38
:10155000706003D1306820F08050306020688107CF
:1015600007D556F8181CA26821F44041114346F8EB
:10157000181CC00604D4002002B0BDE8F08100BFF2
:1015800056F8180CE16820F48000084346F8180C5F
:10159000002002B0BDE8F081FFF732FD054641F2C0
:1015A000883700BF70688007CBD4FFF729FD401B48
:1015B000B8424FF00300F5D9EBE700002DE9F04306
:1015C00081B0002800F0858042F20008C4F20208D1
:1015D0000446D8F800000D4600F0070088420CD2FF
:1015E000D8F8000020F007002843C8F80000D8F819
:1015F000000000F00700A8426BD1206841F2040906
:101600008107C4F2020917D5410705D5D9F80010A2
:1016100041F4E061C9F80010010705D5D9F80010C0
:1016200041F46051C9F80010D9F80010A26821F007
:10163000F0011143C9F80010C00741D1D8F80000EB
:1016400000F00700A8420CD9D8F8000020F00700ED
:101650002843C8F80000D8F8000000F00700A842AE
:1016600037D12068410707D5D9F80010E26821F486
:10167000E0611143C9F80010000708D5D9F800004F
:10168000216920F4605040EAC100C9F80000D9F88F
:10169000002002F00C00082841F20020C0F27A007D
:1016A00050D146F2D063C2F38341C0F60003595CC7
:1016B000D2033BD440F60010C0F23D00484341E065
:1016C000606802280AD001282AD159F8041C89032D
:1016D00008D4012001B0BDE8F08300BF59F8041C14
:1016E0008901F6D5D9F8001021F003010843C9F8A3
:1016F0000000FFF785FC064641F28837D9F8000064
:10170000616800F00C00B0EB810F97D0FFF778FC18
:10171000801BB842F2D9032001B0BDE8F08300BFBE
:1017200059F8041C8907D4D5DCE700BFD9F800209C
:1017300044F2EE63C2F34042C0F600039A5C4843B1
:10174000B0FBF2F0D9F8001043F6CE62C1F30311FA
:10175000C0F60002515C40F2280220FA01F140F28A
:101760000800C2F200000068C2F200021160FFF738
:1017700009FE002001B0BDE8F083000040F228001F
:1017800041F20401C2F20000C4F2020100680968DB
:1017900043F6DE62C1F30221C0F60002515CC8408C
:1017A0007047000040F2280041F20401C2F200003C
:1017B000C4F202010068096843F6DE62C1F3C22187
:1017C000C0F60002515CC840704700002DE9F041AE
:1017D00082B0002868D00446007841F20006C007B5
:1017E000C4F2020625D0706800F00C0004281BD05B
:1017F000706800F00C00082802D17068C00313D490
:101800006068002800F06881B0F5A02F00F07C81AE
:10181000B0F5803F00F07C81306820F4803030608B
:10182000306820F4802076E13068800301D560685C
:10183000D0B32078800718D5706810F00C0F07D04F
:10184000706800F00C0008286ED17068C0036BD47B
:101850003068800702D52069012825D13068616988
:1018600020F0F80040EAC1003060207800071FD463
:101870002078400732D4E56995B1706800F00C001B
:10188000082840F08F80012D0ED07068216A00F486
:1018900080328A4208D1616A00F47010884203D114
:1018A000002002B0BDE8F081012002B0BDE8F08167
:1018B000A069002862D00020C4F242200121C0F8B3
:1018C0008014FFF79DFB0546706A800700F18C804D
:1018D000FFF796FB401B0228F6D92AE1F06910F0C9
:1018E000805808D1F06940F08050F061F06900F054
:1018F00080500090009847F20007C4F20007386853
:10190000C00529D4386840F480703860FFF778FB50
:10191000054600BF3868C0051ED4FFF771FB401BA9
:101920006428F7D905E100BF2069002840F20000D3
:10193000C4F2422000F0828001210160FFF760FBC9
:10194000054600BF306880073FF588AFFFF758FBBA
:10195000401B0228F6D9ECE0E068002800F0808007
:10196000052800F09780012800F09880306A20F068
:1019700001003062306A20F0040092E00020C4F2DE
:1019800042200021C0F88014FFF73AFB054600BF53
:10199000706A80077FF56CAFFFF732FB401B0228AF
:1019A000F6D9C6E00027C4F2422700203866FFF7C8
:1019B00027FB022D05460BD13068800140F1BE8027
:1019C000FFF71EFB401B02284FF00300F4D968E725
:1019D000306880017FF564AFFFF712FB401B0228DF
:1019E0004FF00300F4D95CE740F22800C2F2000097
:1019F000006844F6D351C1F26201A0FB0101480A1C
:101A0000019000BF00BF0198411E002801913FF4E2
:101A10002FAF00BF0198411E002801913FF428AF6D
:101A200000BF0198411E002801913FF421AF00BF83
:101A30000198411E00280191E4D119E700210160BD
:101A4000FFF7DEFA054600BF306880077FF50DAF6F
:101A5000FFF7D6FA401B02284FF00300F4D920E725
:101A6000306A20F001003062306A20F004003062F9
:101A7000FFF7C6FA054641F2883700BF306A800793
:101A800020D5FFF7BDFA401BB8424FF00300F5D94F
:101A900007E700BF306A40F004003062306A40F06F
:101AA00001003062FFF7ACFA054641F2883700BF0B
:101AB000306A800706D4FFF7A3FA401BB842F7D973
:101AC00037E000BFB8F1000F7FF4D5AEF06920F029
:101AD0008050F061CFE600BF306820F48030306085
:101AE000306820F480203060FFF78AFA054600BF96
:101AF000306880037FF59DAEFFF782FA401B6428B3
:101B00004FF00300F4D9CCE6306840F48020306018
:101B1000306840F480303060FFF772FA054600BF4D
:101B2000306880033FF585AEFFF76AFA401B6428F2
:101B3000F6D9032002B0BDE8F08100BF206AB0F5FD
:101B4000803F05D17168A26821F4003111437160B2
:101B50007168626A21F474111143084370600120B6
:101B60003866FFF74DFA0446306880013FF598AEBD
:101B7000FFF746FA001B02284FF00300F4D990E665
:101B8000411E0020B0EB116F1CBF012070474EF2C8
:101B90001002CEF2000251604EF62351CEF2000147
:101BA000F0230B70072190601160704710B590F81A
:101BB0003C20012A4FF0020233D080F83D20026819
:101BC000D2F804E0D2F808C00C682EF0700323436A
:101BD00040F2FF74C4F20004A24253600ADCB2F186
:101BE000804F13D040F20043C4F200039A420DD05C
:101BF00011E000BF42F60043C4F201039A4205D04F
:101C000040F60003C4F200039A4204D149682CF064
:101C10008003194391600121002280F83D1080F873
:101C20003C20104610BD0000002804BF0120704772
:101C300010B5044690F83D0028B9002084F83C0017
:101C4000204600F067F8022084F83D00206840F24A
:101C5000FF730268C4F2000342F6004C9842C4F2DB
:101C6000010C15DCB0F1804F1AD040F20041C4F2F3
:101C70000001884214D0984218DCB0F1804F1DD08A
:101C800040F20041C4F20001884217D01AE000BFC0
:101C9000604505D040F60001C4F200018842EAD157
:101CA000A16822F070020A439842E6DD604505D043
:101CB00040F60001C4F20001884203D1216922F4F8
:101CC00040720A43A36922F08001D4F804E0E2687C
:101CD000194360450160C262C0F828E002D1616921
:101CE000CCF8301001214161002084F8461084F8BE
:101CF0003E1084F83F1084F8401084F8411084F8B6
:101D0000421084F8431084F8441084F8451084F895
:101D10003D1010BD81B0006842F60041C4F20101DF
:101D2000884201D001B0704741F21800C4F20200AD
:101D3000016841F400610160006800F400600090F7
:101D4000009801B07047000090F83D1001291CBFB9
:101D500001207047022180F83D10006840F2FF71B9
:101D6000C4F20001884209DCB0F1804F12D040F289
:101D70000041C4F2000188420CD012E042F600415A
:101D8000C4F20101884205D040F60001C4F200010E
:101D9000884206D1816801F00701062904BF0020AE
:101DA0007047016841F001010160002070470000A8
:101DB0000146006841F21113026A1A4204D001225E
:101DC000002081F83D207047026A40F244431A42E5
:101DD000F5D1026822F0010202600122002081F8A0
:101DE0003D20704780B590F83C20012A4FF0020258
:101DF00000F0C28080F83D20D0F800C04FF6777226
:101E0000DCF8083023EA0202CCF808200B684F2BDC
:101E100028DC1F2B44DD202B45D0302B43D0402B1A
:101E200040F0AC80D1F804E0C968DCF82030DCF880
:101E3000202022F00102CCF82020DCF8182022F02B
:101E4000F00242EA011123F00A0242EA0E02CCF843
:101E50001810CCF82020DCF8081041F0470121F0E0
:101E6000300180E06F2B27DDB3F5005F48D0B3F57C
:101E7000805F7AD0702B40F08180D1E901E3C9689E
:101E8000DCF8082043EA0E0322F47F4243EA0121F2
:101E90001143CCF80810DCF8081041F0770162E03B
:101EA0000BB1102B6AD1DCF8081021F07001194336
:101EB00041F0070157E000BF502B35D0602B5DD1BA
:101EC000D1F804E0C968DCF82030DCF8202022F0EA
:101ED0001002CCF82020DCF8182022F4704242EAEC
:101EE000013123F0A00242EA0E12CCF81810CCF80F
:101EF0002020DCF8081041F0670121F0100132E0E9
:101F0000D1E901E3C968DCF8082043EA0E0322F4B2
:101F10007F4243EA01211143CCF80810DCF8081095
:101F200041F480411FE000BFD1F804E0C968DCF84B
:101F30002030DCF8202022F00102CCF82020DCF850
:101F4000182022F0F00242EA011123F00A0242EACC
:101F50000E02CCF81810CCF82020DCF8081041F064
:101F6000570121F02001CCF808100022012180F84F
:101F70003D10002180F83C10104680BD0122F5E79D
:101F80007047000070470000002804BF0120704720
:101F900010B5044690F8410028B9002084F84000AC
:101FA000204600F063F8242084F841002068D4E93A
:101FB0000212C36823F40053C360036923F440533F
:101FC0001A430261D4E904231143C268194341F260
:101FD0000C639A431143C1604169A26921F44071C5
:101FE000114343F60002C4F201029042416103D062
:101FF000FFF7C4FB02E000BFFFF7D4FB62681921C2
:1020000048439100B0FBF1F048F21F51C5F2EB11CB
:10201000A0FB01235A094FF69C73C0F6FF7302FB25
:102020000300322303EB0010A0FB0101F02303EABD
:102030005113206803EB0212C1F343111144816074
:10204000016921F490410161416921F02A01416156
:10205000C16841F40051C16000202021606484F80F
:10206000411084F84210606310BD000070B586B066
:1020700040F60004C4F20104006804F54051002653
:102080008842049602D006B070BD00BF41F218002D
:10209000C4F20200016802AD41F4804101600168B0
:1020A00001F4804101910199016841F0040101604E
:1020B0000068294600F00400019001984FF4007078
:1020C000029002200390032005902046FEF77EFE3A
:1020D0004FF48060CDE90206204629460496FEF7BB
:1020E00075FE06B070BD000070B582B0044690F871
:1020F000420020280AD113460A4600294FF0010069
:1021000018BF002B06D102B070BD00BF022002B084
:1021100070BD00BF002522202563A262A3856564EF
:1021200084F842002168E06B43F2554C43F2B55EFF
:1021300043F2D926C0F6000CC0F6000EC0F6000629
:102140000431C0E90ACEC0E90C65FEF7AFFD019588
:10215000206801680191406801900198206928B3C6
:10216000206850E8030F216840F4807041E80302C2
:10217000E2B1206850E8030F216840F4807041E824
:1021800003029AB1206850E8030F216840F4807080
:1021900041E8030252B1206850E8030F216840F47F
:1021A000807041E80302002ADAD100BF206850E8BD
:1021B000050F216840F0010041E80502E2B1206806
:1021C00050E8050F216840F0010041E805029AB18E
:1021D000206850E8050F216840F0010041E8050241
:1021E00052B1206850E8050F216840F0010041E835
:1021F0000502002ADAD100BF206850E8050F2168E7
:1022000040F0400041E80502DAB1206850E8050FCF
:10221000216840F0400041E8050292B1206850E892
:10222000050F216840F0400041E805024AB12068EE
:1022300050E8050F216840F0400041E80502002AFF
:10224000DAD1002002B070BD704700007047000076
:102250002DE9F04381B0044690F84100202840F079
:10226000B180884600294FF0010000F0D680164664
:10227000002A00F0D2800020606421201D4684F8EE
:102280004100FEF7BDFEA684E684A1680646B1F5CE
:10229000805F03D12069002800F0988047464FF006
:1022A0000008E18C2068002900F0968005F1010902
:1022B0000BE000BF47B317F8011B4160E18C013907
:1022C000E184E18C002900F0878001680906F1D4DF
:1022D000B9F1000F0AD0EDB1FEF792FE801BA842C3
:1022E00018D8206801680906F6D5E3E701680906F1
:1022F000E0D4016809065CBF01685FEA0161D9D4D6
:1023000001680906F2D5D5E738F8021B00276FF3FC
:102310005F21D2E7206850E8030F216820F4D070D5
:1023200041E80302BAB3206850E8030F216820F4A3
:10233000D07041E8030272B3206850E8030F2168AF
:1023400020F4D07041E803022AB3206850E8030F5C
:10235000216820F4D07041E80302002ADAD11AE0A3
:10236000206850E8050F216820F0010041E80502CF
:10237000DAB1206850E8050F216820F0010041E83B
:10238000050292B1206850E8050F216820F0010095
:1023900041E805024AB1206850E8050F216820F0A5
:1023A000010041E80502002ADAD1202084F841002A
:1023B00084F84200002084F84000032001B0BDE80A
:1023C000F08300BF022001B0BDE8F0830027E18C5C
:1023D000206800297FF46AAF0168490619D4FDB16D
:1023E000691C0DD10168490613D4016849065CBF18
:1023F00001685FEA41610CD401684906F2D508E042
:10240000FEF7FEFD801BA8420AD82068006840063F
:10241000F6D5202084F84100002001B0BDE8F0830B
:10242000206850E8030F216820F4D07041E80302CF
:10243000002A3ED0206850E8030F216820F4D070B5
:1024400041E80302AAB3206850E8030F216820F492
:10245000D07041E8030262B3206850E8030F21689E
:1024600020F4D07041E80302002AD9D121E000BF56
:10247000206850E8050F216820F0010041E80502BE
:10248000002A3FF492AF206850E8050F216820F041
:10249000010041E80502002A3FF487AF206850E8B8
:1024A000050F216820F0010041E80502002A3FF4F1
:1024B0007CAF206850E8050F216820F0010041E85A
:1024C0000502002AD4D170E7FEE700002DE9F043B1
:1024D00083B0044600680D4601680A9F0B9E41F4D4
:1024E000807199469046016020464FF0011100220C
:1024F0003B46009600F0AEF850B120680068C00579
:1025000044BF4FF400702064032003B0BDE8F083A3
:10251000206805F0FE0101610221C0F201012046A0
:102520003A46334600F080F920B1012003B0BDE8FF
:10253000F08300BF0020029020683246416902917A
:102540008069394602900298204600F0DDF958B1C2
:10255000206C0428E9D12068016841F40071016011
:10256000012003B0BDE8F0832068B9F1010F0AD063
:102570004FEA1821016120463946324600F0C4F97D
:102580000028E5D120685FFA88F10161002003B0DE
:10259000BDE8F08370B50368044653F8140F400794
:1025A00011D40E46481C29D086BB00BF18684005D0
:1025B00027D4FEF725FD236853F8140F400739D5BB
:1025C00018684007F2D5002070BD00BF18684007AA
:1025D000F9D41868400514D418684007F3D4186873
:1025E00040050ED418684007EDD41868400508D49B
:1025F000186840074FF0000048BF70BD18684005DC
:10260000E4D56FF480601860042014E0154603E000
:1026100053F8140F4007D6D418684005F1D4FEF7DC
:10262000EFFC401B2368B042F2D958694007EFD451
:10263000202000E0202000212022216384F83D207A
:1026400084F83E10226C10432064012084F83C1072
:1026500070BD00002DE9F041054600681E46144695
:1026600001F47F0201338FB242D0DDF81880B2F559
:10267000803F40F0878040693840C01BB0FA80F04E
:102680004009A04240F0C8804EB924E0406938407B
:10269000C01BB0FA80F04009A04240F0BD80FEF7B8
:1026A000AFFCA0EB08012868B142EFD9416939407D
:1026B000C91BB1FA81F14909A142E7D19BE000BFF2
:1026C00040693840C01BB0FA80F04009A0424FF08A
:1026D000000040F0A680FEF793FC2868416939406D
:1026E000C91BB1FA81F14909A142E9D183E000BFD8
:1026F000B2F5803F24D100BF41693940C91BB1FA0E
:1027000081F14909A14240F0878041693940C91BE4
:10271000B1FA81F14909A14240F07E804169394016
:10272000C91BB1FA81F14909A14275D1416939400A
:10273000C91BB1FA81F14909A142DDD06CE000BFAB
:1027400081693940C91BB1FA81F14909A14263D1BC
:1027500081693940C91BB1FA81F14909A1425BD1B4
:1027600081693940C91BB1FA81F14909A14253D1AC
:1027700081693940C91BB1FA81F14909A142DFD011
:102780004AE000BF80693840C01BB0FA80F04009C1
:10279000A04241D146B923E080693840C01BB0FA5D
:1027A00080F04009A0423BD1FEF72AFCA0EB0801D3
:1027B0002868B142F0D981693940C91BB1FA81F169
:1027C0004909A142E8D116E080693840C01BB0FA3F
:1027D00080F04009A0424FF0000018BFBDE8F08132
:1027E000FEF70EFC286881693940C91BB1FA81F1F6
:1027F0004909A142E8D100202021286385F83D1035
:1028000085F83E00296C41F02001296485F83C00E0
:102810000120BDE8F08100BF0020BDE8F08100BFCD
:102820000020BDE8F0810000F0B581B004460068EA
:102830001D4643698FB203EA0701B94202D1002065
:1028400001B0F0BD41691646013201F4806125D026
:10285000002940D1CEB100BFFEF7D2FB411B20685A
:10286000B14203D941693940B9424BD1416939403C
:10287000B942E4D041694905EED52CE041693940BF
:10288000B942DCD04169490525D4FEF7B9FB20687F
:1028900041693940B942F1D0202024E0D9B94169D9
:1028A0003940B942CBD04169490514D44169394016
:1028B000B942C4D0416949050DD441693940B94292
:1028C000BDD04169490506D441693940B942B6D005
:1028D00041694905E3D5016841F4007101606FF475
:1028E00080614161042000212022216384F83D2081
:1028F00084F83E10226C1043206484F83C100120C0
:1029000001B0F0BD2020EEE770B50368044653F82F
:10291000140F000611D40E46481C29D086BB00BFF8
:102920001868400527D4FEF76BFB236853F8140F93
:10293000000639D518680006F2D5002070BD00BF2A
:1029400018680006F9D41868400514D41868000601
:10295000F3D4186840050ED418680006EDD4186842
:10296000400508D4186800064FF0000048BF70BD4D
:1029700018684005E4D56FF480601860042014E006
:10298000154603E053F8140F0006D6D41868400526
:10299000F1D4FEF735FB401B2368B042F2D95869E9
:1029A0000006EFD4202000E0202000212022216317
:1029B00084F83D2084F83E10226C104320640120EE
:1029C00084F83C1070BD0000B0B584B040F2300017
:1029D00042F20041C2F20000C4F2010100240125CC
:1029E0004FF4602205730475C261C0E9001484606D
:1029F0000561FDF7BFFE002818BFFDF7E9FD40F2B5
:102A00003000C2F2000001A9CDE901450394FDF7B1
:102A1000E5FD002818BFFDF7DBFD04B0B0BD0000E8
:102A200080B582B041F21400C4F2020001680022B5
:102A300041F0010101600068002100F001000190F7
:102A400001980B20FEF7F8FC0B2002B0BDE8804097
:102A5000FEF7DEBCF0B585B041F21800C4F202000A
:102A6000016840F6000441F0100101600168C4F201
:102A7000010401F01001019101990168002241F067
:102A800020010160016801F02001019101990168B4
:102A900041F004010160016801F004010191019914
:102AA000016841F0080101600068C02100F00800E1
:102AB000019001982046FEF79DFA402001900220E7
:102AC00001AD01260390032720462946029604976C
:102AD000FEF77CF98020CDE9010620462946CDE9A4
:102AE0000367FEF773F905B0F0BD000080B540F252
:102AF000A40045F20041C2F20000C4F2000148F215
:102B0000A06200234FF4804CC0F2010280E80E0066
:102B1000C0E9033CC0E90533C0E90733FEF776FAA4
:102B2000002808BF80BDBDE88040FDF751BD000012
:102B300080B586B040F2F80042F600420021C2F2B1
:102B40000000C4F2010247234FF6FF7C0591CDE956
:102B50000311CDE90011C0E90023C0E9021CC0E95E
:102B600004118161FFF760F8002818BFFDF730FD00
:102B70004FF48050029040F2F800C2F2000002A927
:102B8000FFF730F9002818BFFDF722FD40F2F800EA
:102B9000C2F200006946FFF709F8002818BFFDF7E8
:102BA00017FD06B080BD000080B540F2401043F62E
:102BB0000001C2F20000C4F2010100234FF00C0C2E
:102BC0004FF4165280E80E00C0E90333C0E905C394
:102BD000C361FFF7D9F9002808BF80BDBDE8804078
:102BE000FDF7F6BCFEE70000FEE700002DE9F04F20
:102BF00085B040F2A40400254FF480760127C2F28C
:102C000000040DF1120B0DF113084FF0000900BF85
:102C100009F1B0008DF8100004A8CDE900072046A6
:102C20007821002201230296FEF7ACFA0DF1110083
:102C3000CDE9000720467821002201238DF81150AC
:102C40000296FEF79FFA10208DF812002046782198
:102C500000220123CDE900B70296FEF793FA4FF068
:102C6000000A00BF20467821402201238DF813502E
:102C7000CDE900870296FEF785FA0AF101004FFAC6
:102C800080FABAF1FF3FEDDCB9F1070F09F1010954
:102C9000BED305B0BDE8F08F80B5C820FEF754F86C
:102CA000BDE8804000F094BC2DE9F04F89B040B2FF
:102CB0000D46A2F12001002820EAE0724FF0100733
:102CC00048BF0235A5F1500047EA121402F00F0781
:102CD000102BCEB240F03A8140F2A4088DF81800D3
:102CE0004FF0010B06A8C2F200084FF48079CDE93D
:102CF000000B4046782100220123CDF80890FEF712
:102D000041FA0DF11900CDE9000B4046782100226F
:102D100001238DF81940CDF80890FEF733FA0DF134
:102D20001A00CDE9000B40467821002201238DF8DE
:102D30001A70CDF808904FF48079FEF723FA44F228
:102D40000E113001C0F60001085C01EB06168DF88B
:102D50001B0005970DF11B074046782140220123F7
:102D6000CDE9007BCDF80890FEF70CFA7078317948
:102D700096F802A0049496F8039003918DF81B0036
:102D800040467821402201234FF48074CDE9007B36
:102D90000294FEF7F7F940467821402201234FF4D0
:102DA00080748DF81BA0CDE9007B0294FEF7EAF950
:102DB00040467821402201238DF81B90CDE9007B0D
:102DC0000294FEF7DFF9039878218DF81B00404646
:102DD00040220123CDE9007B0294FEF7D3F97079FC
:102DE00078218DF81B00404640220123CDE9007B6D
:102DF0000294FEF7C7F9B07978218DF81B004046A0
:102E000040220123CDE9007B0294FEF7BBF9F07963
:102E100078218DF81B00404640220123CDE9007B3C
:102E20000294FEF7AFF9A5F14F008DF81C0007A83A
:102E3000CDE9000B40467821002201230294FEF7E1
:102E4000A1F9049878218DF81D000DF11D00CDE940
:102E5000000B4046002201230294FEF793F90598E7
:102E600078218DF81E000DF11E00CDE9000B4046C3
:102E7000002201230294FEF785F9307A0DF11F0537
:102E80008DF81F004046782140220123CDE9005BE8
:102E90000294FEF777F9707A78218DF81F0040468A
:102EA00040220123CDE9005B0294FEF76BF9B07A72
:102EB00078218DF81F00404640220123CDE9005BB8
:102EC0000294FEF75FF9F07A78218DF81F004046F2
:102ED00040220123CDE9005B0294FEF753F9307BD9
:102EE00078218DF81F00404640220123CDE9005B88
:102EF0000294FEF747F9707B78218DF81F00404659
:102F000040220123CDE9005B02944FF48074FEF768
:102F100039F9B07B78218DF81F004046402201230B
:102F2000CDE9005B02944FF48074FEF72BF9F07B3F
:102F3000CDE9005B8DF81F00404678214022012337
:102F40000294FEF71FF909B0BDE8F08F40F2A40B20
:102F50008DF820004FF0010A08A8C2F2000B4FF4D0
:102F60008078CDE9000A5846782100220123CDF867
:102F70000880FEF707F90DF12100CDE9000A584657
:102F80007821002201238DF82140CDF80880FEF73A
:102F9000F9F80DF12200CDE9000A58467821002207
:102FA00001238DF82270CDF80880FEF7EBF843F688
:102FB000E66106EB4600C0F6000111F8102001EBB7
:102FC00040058DF823200DF1230658467821402234
:102FD0000123CDE9006ACDF80880FEF7D3F86878C0
:102FE000AF78EC7895F804908DF823005846782156
:102FF00040220123CDE9006ACDF80880FEF7C2F82F
:1030000058467821402201238DF82370CDE9006ACB
:10301000CDF80880FEF7B6F8584678214022012303
:103020008DF82340CDE9006ACDF80880FEF7AAF8B4
:1030300058467821402201238DF82390CDE9006A7B
:10304000CDF80880FEF79EF8687978218DF8230086
:10305000584640220123CDE9006ACDF80880FEF7EA
:1030600091F809B0BDE8F08F2DE9F04F87B0064622
:10307000A1F1500040F2A4058DF81400012705A825
:10308000C2F20005144604914FF4807ACDE900079E
:103090002846782100220123CDF808A0FEF772F817
:1030A000300900F110080DF11500CDE900072846A0
:1030B0007821002201238DF81580CDF808A0FEF7B5
:1030C00061F80DF1160006F00F0BCDE90007284658
:1030D0007821002201238DF816B0CDF808A0FEF764
:1030E00051F844F2F061C4EB0420C0F6000101EB9A
:1030F00040064FF0FF340DF1170900BF301940783A
:1031000078218DF81700284640220123CDE9009749
:10311000CDF808A0FEF736F801341F2CEED1049844
:1031200040F2A4044F388DF818004FF0010A06A8A9
:10313000C2F200044FF48079CDE9000A20467821DC
:1031400000220123CDF80890FEF71CF80DF11900BC
:10315000CDE9000A20467821002201238DF819804C
:10316000CDF80890FEF70EF80DF11A00CDE9000A2F
:1031700020467821002201238DF81AB0CDF808905E
:10318000FEF700F8FE250DF11B0700BF701940780F
:1031900078218DF81B00204640220123CDE9007ADA
:1031A000CDF80890FDF7EEFF0135B5F58F7FEDD135
:1031B00007B0BDE8F08F00002DE9F04F85B0002B7F
:1031C000049103907CD00E981C464508981E0090F0
:1031D00058421746591E4FF000085FFA80FB42F232
:1031E000107900264FF0000A0291019212E000BF10
:1031F0000126039940F0300205FB08110E9BC8B26E
:103200000499D2B2FFF750FD08F10108A0450AF178
:10321000010A55D06FEA0A00C0B2584502D1012018
:103220002AE000BF00996FEA0800A1EB0801C9B2CB
:10323000032900EB040101D2012009E001F0FC02A6
:10324000002301200433DFB2974200FB09F0F9D1DB
:10325000019F11F003010FD0012903D100EB800081
:10326000400009E04FF47A72424302294FF06401B2
:1032700008BF00FB01F21046B7FBF0F04CF6CD4161
:10328000CCF6CC41A0FB0112D10801EB8101002E4C
:10329000A0EB4100ADD102994145AADD0028A7D19C
:1032A0000398049905FB08000E9BC0B22022FFF78B
:1032B000FBFC002608F10108A0450AF1010AA9D18A
:1032C00005B0BDE8F08F00007047000070470000B7
:1032D000FEF736B870470000406A01684A6990F806
:1032E0004130212B2DD112F080022AD00021C1843F
:1032F000016851E8031F026821F0C00142E803138E
:10330000DBB1016851E8031F026821F0C00142E807
:10331000031393B1016851E8031F026821F0C00153
:1033200042E803134BB1016851E8031F026821F022
:10333000C00142E80313002BDAD1202180F84110AC
:103340000168496990F84220222A40F07D8011F0FE
:10335000400179D00021C185016851E8031F02684E
:1033600021F4907142E80313BBB3016851E8031FD5
:10337000026821F4907142E8031373B3016851E8C5
:10338000031F026821F4907142E803132BB3016814
:1033900051E8031F026821F4907142E80313002BE7
:1033A000DAD11AE0016851E8051F026821F0010135
:1033B00042E80513DBB1016851E8051F026821F0FE
:1033C000010142E8051393B1016851E8051F026845
:1033D00021F0010142E805134BB1016851E8051FD6
:1033E000026821F0010142E80513002BDAD1016BDC
:1033F000012924D1016851E8031F026821F010015E
:1034000042E80313DBB1016851E8031F026821F0B1
:10341000100142E8031393B1016851E8031F0268E9
:1034200021F0100142E803134BB1016851E8031F7A
:10343000026821F0100142E80313002BDAD12021A9
:1034400080F8421000210163416C41F01001416499
:10345000FEF798BD0168406A0968890600F19F80FF
:103460000021C185016851E8031F026821F48071C1
:1034700042E80313E3B1016851E8031F026821F435
:10348000807142E803139BB1016851E8031F026891
:1034900021F4807142E8031353B1016851E8031F1E
:1034A000026821F4807142E80313002BDAD100BFD7
:1034B000016851E8051F026821F0010142E8051387
:1034C000BBB3016851E8051F026821F0010142E821
:1034D000051373B3016851E8051F026821F001016B
:1034E00042E805132BB3016851E8051F026821F07B
:1034F000010142E80513002BDAD11AE0016851E816
:10350000051F026821F0400142E80513DBB10168A4
:1035100051E8051F026821F0400142E8051393B10C
:10352000016851E8051F026821F0400142E80513D7
:103530004BB1016851E8051F026821F0400142E8E3
:103540000513002BDAD1202180F84210016B0129EC
:1035500025D100BF016851E8031F026821F0100166
:1035600042E80313DBB1016851E8031F026821F050
:10357000100142E8031393B1016851E8031F026888
:1035800021F0100142E803134BB1016851E8031F19
:10359000026821F0100142E80313002BDAD1002168
:1035A0004163016B012918BFFEF74EBE818DFEF706
:1035B000E7BC0000406A01214163016B012918BF8B
:1035C000FEF744BE818D4908FEF7DABCFEE7000035
:1035D000F0B583B040F2A40440F20C07C2F200043C
:1035E0004FF480750126C2F20007204678210022A0
:1035F0000123CDE900760295FDF7C4FD781CCDE9E5
:10360000000620467821002201230295FDF7BAFD2D
:10361000B81CCDE90006204678210022012302953E
:10362000FDF7B0FDF81CCDE9000620467821002208
:1036300001230295FDF7A6FD381DCDE900062046C1
:103640007821002201230295FDF79CFD781DCDE92C
:10365000000620467821002201230295FDF792FD05
:10366000B81DCDE9000620467821002201230295ED
:10367000FDF788FDF81DCDE90006204678210022DF
:1036800001230295FDF77EFD07F10800CDE9000654
:1036900020467821002201230295FDF773FD07F1F2
:1036A0000900CDE900062046782100220123029579
:1036B000FDF768FD07F10A00CDE9000620467821F4
:1036C000002201230295FDF75DFD07F10B00CDE916
:1036D000000620467821002201230295FDF752FDC5
:1036E00007F10C00CDE900062046782100220123D5
:1036F0000295FDF747FD07F10D00CDE900062046D4
:103700007821002201230295FDF73CFD07F10E0010
:10371000CDE9000620467821002201230295FDF71D
:1037200031FD07F10F00CDE9000620467821002287
:1037300001230295FDF726FD07F11000CDE90006F3
:1037400020467821002201230295FDF71BFD07F199
:103750001100CDE9000620467821002201230295C0
:10376000FDF710FD07F11200CDE900062046782193
:10377000002201230295FDF705FD07F11300CDE9B5
:10378000000620467821002201230295FDF7FAFC6D
:1037900007F11400CDE9000620467821002201231C
:1037A0000295FDF7EFFC07F11500CDE90006204674
:1037B0007821002201230295FDF7E4FC07F11600B1
:1037C000CDE9000620467821002201230295FDF76D
:1037D000D9FC07F11700CDE9000620467821002228
:1037E00001230295FDF7CEFC07F11800CDE9000694
:1037F00020467821002201230295FDF7C3FC07F142
:103800001900CDE900062046782100220123029507
:10381000FDF7B8FC07F11A00CDE900062046782133
:10382000002201230295FDF7ADFC03B0F0BD0000BE
:1038300080B582B0019040F24010C2F2000001A9B0
:1038400001224FF6FF73FEF703FD019802B080BD21
:10385000A2B0002404A82821ADF83A40ADF83840C1
:10386000FCF767FC0394FDF779FD0120CDE91D44C9
:10387000CDE91B4418901C904FF4E0104FF48031B8
:103880000225219018A81294CDE91044CDE919140D
:10389000CDE91F51FDF79AFF20B1EFF3108072B60A
:1038A000FEE700BF0F20CDE913054FF48060CDE99E
:1038B000160413A802211594FDF780FE20B1EFF342
:1038C000108072B6FEE700BF02200F904FF4004058
:1038D00011900FA8FDF7ECFD20B1EFF3108072B648
:1038E000FEE700BFFFF7B6F8FFF79AF8FFF720F9F9
:1038F000FFF75AF9FFF7FAF8FFF766F8FFF7CCF988
:10390000FFF774F91020002100224FF0100AFFF792
:10391000ABFB202000210122FFF7A6FB3020002175
:103920000222FFF7A1FB402000210322FFF79CFBAE
:10393000502000210422FFF797FB60200021052280
:10394000FFF792FB002002210622FFF78DFB1020DB
:1039500002210722FFF788FB202002210822FFF71F
:1039600083FB302002210922FFF77EFB4020022149
:103970003A221023FFF798F9002004210622FFF7CE
:1039800073FB102004210722FFF76EFB2020042187
:103990000A22FFF769FB302004210B22FFF764FBAA
:1039A000402004213A221023FFF77EF9002006214F
:1039B0000C22FFF759FB102006210D22FFF754FBC4
:1039C000202006210E22FFF74FFB302006210F2278
:1039D000FFF74AFB402006213A221023FFF764F943
:1039E00040F23000C2F2000004A90A22FCF7BEFF38
:1039F0005A204FF01E0B02900EE000BF9DF80E0003
:103A00009DF80F1000EB800001EB40001038029091
:103A10004FF47A70FDF798F940F24010C2F20000BE
:103A200003A90522FEF760FB48200621002205239A
:103A3000CDF800A0FFF7C0FB0DF13A000EA9FCF78E
:103A4000BFFCBDF83A40BDF83850270A4820022193
:103A50003A4602232E0ACDF800A0FFF7ADFB5FFA2D
:103A600084F86020022142460123CDF800A0FFF730
:103A7000A3FB582002212E221023FFF715F96820FE
:103A8000022143221023FFF70FF948200421324678
:103A90000223CDF800A0FFF78FFB5FFA85F96020C5
:103AA00004214A460123CDF800A0FFF785FB5820EA
:103AB00004212E221023FFF7F7F868200421252285
:103AC0001023FFF7F1F81CA0394642463346002781
:103AD000CDF80090019700F039F8BDF83A005FFA90
:103AE0008BF188424FF0000088BF0120029ABDF898
:103AF0003810D2B291424FF0000188BF012140EA54
:103B0000010240F60000C4F201004021FDF772FA04
:103B10009DF80C0048283FF471AF54287FF478AF2B
:103B20009DF80E009DF80F1000EB800001EB4000A7
:103B3000A0F1100B6CE700BF25642E2531642C2505
:103B4000642E2531642C25640A0000000FB4054B57
:103B500010B503A9044A029800F018F810BC5DF8EB
:103B600014FB0000313800080000002002E008C803
:103B7000121F08C1002AFAD170477047002001E0E7
:103B800001C1121F002AFBD1704700002DE9FF4F31
:103B90008BB088460546002606E025280BD0DDE9D7
:103BA0000D1290476D1C761C28780028F5D10FB0B7
:103BB0003046BDE8F08F0024A146A2460122AE495E
:103BC00000E0044315F8013F203B02FA03F00842ED
:103BD000F7D128782A2810D06FF02F022878A0F18A
:103BE0003001092915D809EB890102EB410144F0A4
:103BF000020400EB01096D1CF0E758F8041B5FEAB2
:103C0000010903D544F40054C9F1000944F0020449
:103C10006D1C28782E2817D115F8010F44F00404E4
:103C20002A280ED06FF02F022878A0F13001092940
:103C30000AD80AEB8A0102EB410100EB010A6D1C74
:103C4000F2E758F804AB6D1C28786C280FD006DC1E
:103C50004C2817D068280DD06A2814D104E07428A5
:103C600010D07A280FD10DE044F400140AE044F497
:103C7000801401E044F440146978814202D104F5D3
:103C800080146D1C6D1C2878692865D006DC00281E
:103C90008DD0632827D0642806D15DE06E2808D037
:103CA00073282AD0752877D0DDE90D129047761C4D
:103CB000E0E0C4F30250022809D003280DD0D8F860
:103CC000001004280DD00E6008F10408D2E0D8F8E6
:103CD0000010F217C1E90062F6E7D8F800100E8074
:103CE000F2E70E70F0E718F8041B8DF800100020C2
:103CF0008DF80100EB46012003E058F804BB4FF0BB
:103D0000FF3061074FF0000701D40AE07F1C5745E0
:103D10000DDA8742FADB1BF807100029F6D106E01E
:103D20007F1C8742FCDB1BF807100029F8D1DDE976
:103D30000D23A9EB07008146214600F0B1F830447D
:103D4000C61904E0DDE90D121BF8010B90477F1E38
:103D5000F8D22146484688E058F8040BC4F30251D3
:103D60004FF00A0B032900D100B2042900D140B260
:103D7000002802DA40422D2102E0210505D52B2141
:103D80008DF82410012104E006E0E10710D0202185
:103D9000F6E708AF089113E058F8040BC4F302519A
:103DA0004FF00A0B032900D180B2042900D1C0B220
:103DB0000021EEE75946FCF7C7F9303107F8011D3D
:103DC0000028F7D1ADEB070000F1200B600702D50A
:103DD00024F4803401E04FF0010ADA4502DDAAEB59
:103DE0000B0000E00020824600EB0B010898014424
:103DF000A9EB01000A90E00306D4DDE90D2321467A
:103E00000A9800F04DF806444FF0000908E009A9AF
:103E100011F80900DDE90D12904709F10109761C3E
:103E200008998945F3DBE0030CD5DDE90D23214634
:103E30000A9800F035F8064404E0DDE90D12302060
:103E40009047761CBAF10001AAF1010AF5DC05E001
:103E5000DDE90D1217F8010B9047761CBBF100014C
:103E6000ABF1010BF4DC0A982146DDE90D2300F0EB
:103E700005F806446D1C97E6092801002DE9F0417C
:103E8000044600251E461746880404D405E039463A
:103E90002020B0476D1C641EF9D52846BDE8F0818E
:103EA0002DE9F041044600251E469046C80301D581
:103EB000302700E02027880404D505E04146384635
:103EC000B0476D1C641EF9D52846BDE8F08100009E
:103ED00000000000000001020304060708090000BA
:103EE0000000010203040000000000000000002F99
:103EF000000000000700070000147F147F14002456
:103F00002A7F2A1200626408132300364955225082
:103F100000000503000000001C22410000004122B7
:103F20001C000014083E08140008083E08080000A1
:103F300000A0600000080808080800006060000099
:103F4000002010080402003E5149453E0000427F17
:103F50004000004261514946002141454B31001863
:103F600014127F10002745454539003C4A49493025
:103F700000017109050300364949493600064949DF
:103F8000291E0000363600000000563600000008EA
:103F900014224100001414141414000041221408C7
:103FA00000020151090600324959513E007C1211AC
:103FB000127C007F49494936003E41414122007F41
:103FC0004141221C007F49494941007F09090901FB
:103FD000003E4149497A007F0808087F0000417F80
:103FE0004100002040413F01007F08142241007F32
:103FF00040404040007F020C027F007F0408107F99
:10400000003E4141413E007F09090906003E415101
:10401000215E007F091929460046494949310001BE
:10402000017F0101003F4040403F001F2040201F12
:10403000003F4038403F00631408146300070870D5
:10404000080700615149454300007F414100005588
:104050002A552A55000041417F0000040201020454
:104060000040404040400000010204000020545441
:104070005478007F48444438003844444420003891
:104080004444487F00385454541800087E09010203
:104090000018A4A4A47C007F080404780000447DD8
:1040A0004000004080847D00007F10284400000014
:1040B000417F4000007C04180478007C08040478E8
:1040C00000384444443800FC2424241800182424D4
:1040D00018FC007C080404080048545454200004D0
:1040E0003F444020003C4040207C001C2040201CDD
:1040F000003C4030403C004428102844001CA0A054
:10410000A07C004464544C4414141414141400008F
:10411000000000000000000000000000000000009F
:1041200000F8000000000000003330000000001024
:104130000C06100C0600000000000000000040C04B
:104140007840C0784000043F04043F04040000703D
:1041500088FC08300000001820FF211E0000F00835
:10416000F000E018000000211C031E211E0000F0DA
:104170000888700000001E21232419272110101622
:104180000E00000000000000000000000000000021
:1041900000E01804020000000007182040000002A0
:1041A0000418E00000000040201807000000404014
:1041B00080F0804040000202010F01020200000076
:1041C00000F0000000000101011F010101000000DA
:1041D00000000000000080B070000000000000003F
:1041E00000000000000000010101010101010000C8
:1041F000000000000000003030000000000000005F
:10420000000080601804006018060100000000E053
:1042100010080810E000000F102020100F00001000
:1042200010F8000000000020203F20200000007057
:10423000080808887000003028242221300000304F
:104240000888884830000018202020110E00000047
:10425000C02010F8000000070424243F240000F8C8
:104260000888880808000019212020110E0000E0AD
:10427000108888180000000F112020110E0000384F
:104280000808C83808000000003F00000000007067
:10429000880808887000001C222121221C0000E0F0
:1042A00010080810E0000000312222110F00000069
:1042B00000C0C0000000000000303000000000001E
:1042C000008000000000000080600000000000008E
:1042D0008040201008000001020408102000404027
:1042E000404040404000040404040404040000086A
:1042F000102040800000002010080402010000701F
:1043000048080808F0000000003036010000C03006
:10431000C828E810E0000718272423140B00000029
:10432000C038E0000000203C23020227382008F8B3
:10433000888888700000203F202020110E00C030A7
:10434000080808083800071820202010080008F87E
:1043500008080810E000203F202020100F0008F877
:104360008888E8081000203F20202320180008F843
:104370008888E8081000203F200003000000C030BB
:1043800008080838000007182020221E020008F83C
:1043900008000008F808203F210101213F20000803
:1043A00008F8080800000020203F2020000000003E
:1043B0000808F8080800C08080807F00000008F826
:1043C00088C028180800203F20012638200008F85F
:1043D000080000000000203F20202020300008F8C6
:1043E000F800F8F80800203F003F003F200008F8E0
:1043F00030C00008F808203F200007183F00E010F8
:1044000008080810E0000F10202020100F0008F806
:1044100008080808F000203F210101010000E01019
:1044200008080810E0000F18242438504F0008F83E
:10443000888888887000203F2000030C302000709E
:104440008808080838000038202121221C0018089C
:1044500008F8080818000000203F2000000008F8B5
:1044600008000008F808001F202020201F000878FE
:10447000880000C83808000007380E010000F8085E
:1044800000F80008F800033C0700073C0300081888
:1044900068808068180820302C03032C30200838EE
:1044A000C800C83808000000203F200000001008A5
:1044B0000808C838080020382621202018000000ED
:1044C00000FE020202000000007F40404000000C9D
:1044D00030C000000000000000010638C0000002EB
:1044E0000202FE000000004040407F00000000008B
:1044F00004020202040000000000000000000000AE
:1045000000000000000080808080808080800002A9
:104510000204000000000000000000000000000095
:104520008080808000000019242222223F2008F889
:10453000008080000000003F112020110E000000CC
:10454000008080800000000E11202020110000005B
:1045500000808088F800000E112020103F2000000D
:10456000808080800000001F222222221300008011
:1045700080F0888888180020203F2020000000005C
:10458000808080808000006B94949493600008F891
:10459000008080800000203F210000203F2000801C
:1045A0009898000000000020203F2020000000001C
:1045B00000809898000000C08080807F000008F88C
:1045C000000080808000203F24022D302000000861
:1045D00008F8000000000020203F2020000080801C
:1045E000808080808000203F20003F20003F80802E
:1045F000008080800000203F210000203F2000003C
:10460000808080800000001F202020201F008080EC
:1046100000808000000080FFA12020110E0000001B
:10462000008080808000000E112020A0FF8080800C
:1046300080008080800020203F21200001000000B9
:10464000808080808000003324242424190000808E
:1046500080E0808000000000001F2020000080809B
:10466000000000808000001F202020103F2080805C
:1046700080000080808000010E30080601008080EC
:104680000080008080800F300C030C300F00008011
:104690008000808080000020312E0E31200080803C
:1046A00080000080808080818E701806010000806C
:1046B0008080808080000021302C2221300000008A
:1046C0000000807C020200000000003F4040000229
:1046D000027C800000000040403F0000000000001D
:1046E0000000FF00000000000000FF0000000102C9
:1046F00000FE0222DA060808F8898E8888880800F9
:1047000000000000000000000000000000000000A9
:104710000000000000000000000000000000000099
:104720000000000000000000000000000000000089
:104730000000000000000000000000000000000079
:104740000000000000000000000000000000000069
:104750000000000000000000000000000000000059
:104760000000000000000000000000000000000049
:104770000000000000000000000000000000000039
:104780000000000000000000000000000000000029
:104790000000000000000000000000000000000019
:1047A0000000000000000000000000000000000009
:1047B00000000000000000000000000000000000F9
:1047C00000000000000000000000000000000000E9
:1047D00000000000000000000000000000000000D9
:1047E00000000000000000000000000000000000C9
:1047F000FF0810088740300F004080403F00000055
:1048000000000000000000000000000000000000A8
:104810000000000000000000000000000000000098
:104820000000000000000000000000000000000088
:104830000000000000000000000000000000000078
:104840000000000000000000000000000000000068
:104850000000000000000000000000000000000058
:104860000000000000000000000000000000000048
:104870000000000000000000000000000000000038
:104880000000000000000000000000000000000028
:104890000000000000000000000000000000000018
:1048A0000000000000000000000000000000000008
:1048B00000000000000000000000000000000000F8
:1048C00000000000000000000000000000000000E8
:1048D00000000000000000000000000000000000D8
:1048E00000000000000000000000000000000000C8
:1048F000C038000000FF0000402018000000000049
:1049000000000000000000000000000000000000A7
:104910000000000000000000000000000000000097
:104920000000000000000000000000000000000087
:104930000000000000000000000000000000000077
:104940000000000000000000000000000000000067
:104950000000000000000000000000000000000057
:104960000000000000000000000000000000000047
:104970000000000000000000000000000000000037
:104980000000000000000000000000000000000027
:104990000000000000000000000000000000000017
:1049A0000000000000000000000000000000000007
:1049B00000000000000000000000000000000000F7
:1049C00000000000000000000000000000000000E7
:1049D00000000000000000000000000000000000D7
:1049E0000000000000000000000000000080814086
:1049F00020100C0300030C102040808000000000F9
:104A000000000000000000000000000000000000A6
:104A10000000000000000000000000000000000096
:104A20000000000000000000000000000000000086
:104A30000000000000000000000000000000000076
:104A40000000000000000000000000000000000066
:104A50000000000000000000000000000000000056
:104A60000000000000000000000000000000000046
:104A70000000000000000000000000000000000036
:104A80000000000000000000000000000000000026
:104A90000000000000000000000000000000000016
:104AA0000000000000000000000000000000000006
:104AB00000000000000000000000000000000000F6
:104AC00000000000000000000000000000000000E6
:104AD00000000000000000000000000000000000D6
:104AE000000000000000000000000000101010FF97
:104AF000109000FE82828292A29E000000000000C0
:104B000000000000000000000000000000000000A5
:104B10000000000000000000000000000000000095
:104B20000000000000000000000000000000000085
:104B30000000000000000000000000000000000075
:104B40000000000000000000000000000000000065
:104B50000000000000000000000000000000000055
:104B60000000000000000000000000000000000045
:104B70000000000000000000000000000000000035
:104B80000000000000000000000000000000000025
:104B90000000000000000000000000000000000015
:104BA0000000000000000000000000000000000005
:104BB00000000000000000000000000000000000F5
:104BC00000000000000000000000000000000000E5
:104BD00000000000000000000000000000000000D5
:104BE00000000000000000000000000444827F017B
:104BF0000000FF80432C102C4380000000000000C8
:104C000000000000000000000000000000000000A4
:104C10000000000000000000000000000000000094
:104C20000000000000000000000000000000000084
:104C30000000000000000000000000000000000074
:104C40000000000000000000000000000000000064
:104C50000000000000000000000000000000000054
:104C60000000000000000000000000000000000044
:104C70000000000000000000000000000000000034
:104C80000000000000000000000000000000000024
:104C90000000000000000000000000000000000014
:104CA0000000000000000000000000000000000004
:104CB00000000000000000000000000000000000F4
:104CC00000000000000000000000000000000000E4
:104CD00000000000000000000000000000000000D4
:104CE0000000000000000000000012EAAFAAEA0F76
:104CF000FA02888C5724548C8400000000000000C5
:104D000000000000000000000000000000000000A3
:104D10000000000000000000000000000000000093
:104D20000000000000000000000000000000000083
:104D30000000000000000000000000000000000073
:104D40000000000000000000000000000000000063
:104D50000000000000000000000000000000000053
:104D60000000000000000000000000000000000043
:104D70000000000000000000000000000000000033
:104D80000000000000000000000000000000000023
:104D90000000000000000000000000000000000013
:104DA0000000000000000000000000000000000003
:104DB00000000000000000000000000000000000F3
:104DC00000000000000000000000000000000000E3
:104DD00000000000000000000000000000000000D3
:104DE0000000000000000000000202EAAAAAABAA2C
:104DF000ABAAAAAAAAEA0202000000000000000072
:104E000000000000000000000000000000000000A2
:104E10000000000000000000000000000000000092
:104E20000000000000000000000000000000000082
:104E30000000000000000000000000000000000072
:104E40000000000000000000000000000000000062
:104E50000000000000000000000000000000000052
:104E60000000000000000000000000000000000042
:104E70000000000000000000000000000000000032
:104E80000000000000000000000000000000000022
:104E90000000000000000000000000000000000012
:104EA0000000000000000000000000000000000002
:104EB00000000000000000000000000000000000F2
:104EC00000000000000000000000000000000000E2
:104ED00000000000000000000000000000000000D2
:104EE0000000000000000000000022322AA6A2629A
:104EF00021110981010000000000000000000000F5
:104F000000000000000000000000000000000000A1
:104F10000000000000000000000000000000000091
:104F20000000000000000000000000000000000081
:104F30000000000000000000000000000000000071
:104F40000000000000000000000000000000000061
:104F50000000000000000000000000000000000051
:104F60000000000000000000000000000000000041
:104F70000000000000000000000000000000000031
:104F80000000000000000000000000000000000021
:104F90000000000000000000000000000000000011
:104FA0000000000000000000000000000000000001
:104FB00000000000000000000000000000000000F1
:104FC00000000000000000000000000000000000E1
:104FD00000000000000000000000000000000000D1
:104FE00000000000000000004222130B42827E02FB
:104FF000020A12234600000000000000000000002A
:1050000000000000000000000000000000000000A0
:105010000000000000000000000000000000000090
:105020000000000000000000000000000000000080
:105030000000000000000000000000000000000070
:105040000000000000000000000000000000000060
:105050000000000000000000000000000000000050
:105060000000000000000000000000000000000040
:105070000000000000000000000000000000000030
:105080000000000000000000000000000000000020
:105090000000000000000000000000000000000010
:1050A0000000000000000000000000000000000000
:1050B00000000000000000000000000000000000F0
:1050C00000000000000000000000000000000000E0
:1050D00000000000000000000000000000000000D0
:1050E0000000000000002030AC63300088C8A899A0
:1050F0008E88A8C8880000000000000000000000A2
:10510000000000000000000000000000000000009F
:10511000000000000000000000000000000000008F
:10512000000000000000000000000000000000007F
:10513000000000000000000000000000000000006F
:10514000000000000000000000000000000000005F
:10515000000000000000000000000000000000004F
:10516000000000000000000000000000000000003F
:10517000000000000000000000000000000000002F
:10518000000000000000000000000000000000001F
:10519000000000000000000000000000000000000F
:1051A00000000000000000000000000000000000FF
:1051B00000000000000000000000000000000000EF
:1051C00000000000000000000000000000000000DF
:1051D00000000000000000000000000000000000CF
:1051E000000000000022672212128040300F0000F1
:1051F0003F4040710000000000000000000000007F
:10520000000000000000000000000000000000009E
:10521000000000000000000000000000000000008E
:10522000000000000000000000000000000000007E
:10523000000000000000000000000000000000006E
:10524000000000000000000000000000000000005E
:10525000000000000000000000000000000000004E
:10526000000000000000000000000000000000003E
:10527000000000000000000000000000000000002E
:10528000000000000000000000000000000000001E
:10529000000000000000000000000000000000000E
:1052A00000000000000000000000000000000000FE
:1052B00000000000000000000000000000000000EE
:1052C00000000000000000000000000000000000DE
:1052D00000000000000000000000000000000000CE
:1052E00000000000004042445840407F4040504889
:1052F000C6000000000000000000000000000000E8
:10530000000000000000000000000000000000009D
:10531000000000000000000000000000000000008D
:10532000000000000000000000000000000000007D
:10533000000000000000000000000000000000006D
:10534000000000000000000000000000000000005D
:10535000000000000000000000000000000000004D
:10536000000000000000000000000000000000003D
:10537000000000000000000000000000000000002D
:10538000000000000000000000000000000000001D
:10539000000000000000000000000000000000000D
:1053A00000000000000000000000000000000000FD
:1053B00000000000000000000000000000000000ED
:1053C00000000000000000000000000000000000DD
:1053D00000000000000000000000000000000000CD
:1053E000000000004044444444444444444444FFD6
:1053F00000000000000000000000000000000000AD
:10540000000000000000000000000000000000009C
:10541000000000000000000000000000000000008C
:10542000000000000000000000000000000000007C
:10543000000000000000000000000000000000006C
:10544000000000000000000000000000000000005C
:10545000000000000000000000000000000000004C
:10546000000000000000000000000000000000003C
:10547000000000000000000000000000000000002C
:10548000000000000000000000000000000000001C
:10549000000000000000000000000000000000000C
:1054A00000000000000000000000000000000000FC
:1054B00000000000000000000000000000000000EC
:1054C00000000000000000000000000000000000DC
:1054D00000000000000000000000000000000000CC
:1054E00000000808E8292E28E80808C80C0BE8087E
:1054F00008000000000000000000000000000000A4
:10550000000000000000000000000000000000009B
:10551000000000000000000000000000000000008B
:10552000000000000000000000000000000000007B
:10553000000000000000000000000000000000006B
:10554000000000000000000000000000000000005B
:10555000000000000000000000000000000000004B
:10556000000000000000000000000000000000003B
:10557000000000000000000000000000000000002B
:10558000000000000000000000000000000000001B
:10559000000000000000000000000000000000000B
:1055A00000000000000000000000000000000000FB
:1055B00000000000000000000000000000000000EB
:1055C00000000000000000000000000000000000DB
:1055D00000000000000000000000000000000000CB
:1055E000000000FF0949897F00000F40807F000014
:1055F00000000000000000000000000000000000AB
:10560000000000000000000000000000000000009A
:10561000000000000000000000000000000000008A
:10562000000000000000000000000000000000007A
:10563000000000000000000000000000000000006A
:10564000000000000000000000000000000000005A
:10565000000000000000000000000000000000004A
:10566000000000000000000000000000000000003A
:10567000000000000000000000000000000000002A
:10568000000000000000000000000000000000001A
:10569000000000000000000000000000000000000A
:1056A00000000000000000000000000000000000FA
:1056B00000000000000000000000000000000000EA
:1056C00000000000000000000000000000000000DA
:1056D00000000000000000000000000000000000CA
:1056E0001060028C0000FE9292929292FE000000E6
:1056F00000000000000000000000000000000000AA
:105700000000000000000000000000000000000099
:105710000000000000000000000000000000000089
:105720000000000000000000000000000000000079
:105730000000000000000000000000000000000069
:105740000000000000000000000000000000000059
:105750000000000000000000000000000000000049
:105760000000000000000000000000000000000039
:105770000000000000000000000000000000000029
:105780000000000000000000000000000000000019
:105790000000000000000000000000000000000009
:1057A00000000000000000000000000000000000F9
:1057B00000000000000000000000000000000000E9
:1057C00000000000000000000000000000000000D9
:1057D00000000000000000000000000000000004C5
:1057E000047E01407E42427E427E42427E40000074
:1057F00000000000000000000000000000000000A9
:105800000000000000000000000000000000000098
:105810000000000000000000000000000000000088
:105820000000000000000000000000000000000078
:105830000000000000000000000000000000000068
:105840000000000000000000000000000000000058
:105850000000000000000000000000000000000048
:105860000000000000000000000000000000000038
:105870000000000000000000000000000000000028
:105880000000000000000000000000000000000018
:105890000000000000000000000000000000000008
:1058A00000000000000000000000000000000000F8
:1058B00000000000000000000000000000000000E8
:1058C00000000000000000000000000000000000D8
:1058D00000000000000000000000000000000000C8
:1058E000FC242424FC252624FC2424240400000079
:1058F00000000000000000000000000000000000A8
:105900000000000000000000000000000000000097
:105910000000000000000000000000000000000087
:105920000000000000000000000000000000000077
:105930000000000000000000000000000000000067
:105940000000000000000000000000000000000057
:105950000000000000000000000000000000000047
:105960000000000000000000000000000000000037
:105970000000000000000000000000000000000027
:105980000000000000000000000000000000000017
:105990000000000000000000000000000000000007
:1059A00000000000000000000000000000000000F7
:1059B00000000000000000000000000000000000E7
:1059C00000000000000000000000000000000000D7
:1059D0000000000000000000000000000040308FC8
:1059E00080844C55252525554C8080800000000082
:1059F00000000000000000000000000000000000A7
:105A00000000000000000000000000000000000096
:105A10000000000000000000000000000000000086
:105A20000000000000000000000000000000000076
:105A30000000000000000000000000000000000066
:105A40000000000000000000000000000000000056
:105A50000000000000000000000000000000000046
:105A60000000000000000000000000000000000036
:105A70000000000000000000000000000000000026
:105A80000000000000000000000000000000000016
:105A90000000000000000000000000000000000006
:105AA00000000000000000000000000000000000F6
:105AB00000000000000000000000000000000000E6
:105AC00000000000000000000000000000000000D6
:105AD0000000000000000000000000001060028CC8
