:020000040800F2
:10000000D00500200101000825360008F52E000863
:1000100021360008A9090008094000080000000076
:10002000000000000000000000000000093D000882
:10003000BD0C000800000000053D00080D3D000853
:100040001B0100081B0100081B0100081B01000820
:100050001B0100081B0100081B0100081B01000810
:100060001B0100081B0100081B0100081B01000800
:100070001B0100081B010008A50C0008B10C0008BA
:100080001B0100081B0100081B0100081B010008E0
:100090001B0100081B0100081B0100081B010008D0
:1000A0001B0100081B0100081B0100081B010008C0
:1000B0001B0100081B0100081B0100081B010008B0
:1000C0001B0100081B0100081B0100081B010008A0
:1000D0001B0100081B0100081B0100081B01000890
:1000E0001B0100081B0100081B010008DFF80CD0F1
:1000F00000F05EFB004800478D420008D00500205C
:100100000648804706480047FEE7FEE7FEE7FEE7B1
:10011000FEE7FEE7FEE7FEE7FEE7FEE7113D00082B
:10012000ED000008F0B480EA0102D40F4200B2EB07
:10013000410F02D20246084611464A0042D0C30D82
:10014000DDB2C1F3C752AD1A202D35DAC1F3160165
:1001500041F4000204B15242C5F1200602FA06F150
:100160002A411044B3EBD05F23D0C4B1012DA0EBE2
:10017000C35009DCF0BC4FF0004202EAC352DBB2CC
:1001800000F5000000F02EB9400000F1807000EB97
:10019000C350A0F1807040EAD170490009E04908DD
:1001A00041EAC071A0EBC35000F50000400800EB2D
:1001B000C350F0BC00F00DB96142012202EB4101D5
:1001C000001BF6E7F0BC704781F00041AAE780F021
:1001D0000040A7E780EA010210B502F000434000AA
:1001E00022D04A001FD0010E01EB1261C0F356006D
:1001F000C2F3560240F4000042F40002A0FB0220C9
:1002000000047F39140400D0401C50EA124001D48D
:100210004000491EC2B20C0604EBD010401C40083E
:10022000802A02D003E0002010BD20F00100002948
:1002300000DA0020184310BD30B480EA010202F059
:10024000004530F0004221F0004013D090B1C30DC2
:10025000D40DC2F31601C0F31600E41A41F40001F4
:1002600040F400027D34914201D3641C00E0490057
:10027000002C02DA30BC002070474FF4000000234D
:10028000914201D3891A034340084FEA4101F7D153
:1002900051B1914202D14FF0004105E002D24FF03E
:1002A000010101E06FF0010103EBC450284430BCB0
:1002B00000F08FB8002801DBC0F10040002901DB0D
:1002C000C1F10041814201D90120704700207047EF
:1002D000C10F80EAE0700844CA079623002100F0AD
:1002E00081B896230022114600F07CB800F000424D
:1002F00020F00040C10DC0F3160040F400007F293B
:1003000001DA00207047962903DCC1F19601C8404C
:1003100001E096398840002AF4D04042704700F04E
:10032000004230F000400AD0C10D01F56071C0F309
:10033000160042EA0151C2084007114370470020ED
:100340000146704730B50B460146002020220124AB
:1003500009E021FA02F59D4205D303FA02F5491B93
:1003600004FA02F52844151EA2F10102F1DC30BDA9
:100370002DE9F05F0546002092469B4688460646DA
:10038000814640241BE0284641464746224600F06D
:1003900030FA53465A46C01A914110D311461846B6
:1003A000224600F017FA2D1A67EB01084F46224645
:1003B0000120002100F00EFA17EB00094E41201E2B
:1003C000A4F10104DFDC484631462A464346BDE835
:1003D000F09F0029A8BF7047401C490008BF20F0CB
:1003E0000100704710B4B0FA80FC00FA0CF050EA3B
:1003F000010404BF10BC704749B1CCF1200421FABC
:1004000004F411FA0CF118BF012121430843A3EBB6
:100410000C01CB1D4FEA00614FEA102042BF0020C3
:1004200010BC704700EBC35010440029A4BF10BC9F
:100430007047401C490008BF20F0010010BC704705
:100440002DE9FE4F804681EA0300C00F0C46009064
:1004500021F0004123F00045B8EB0200A94105D28C
:100460004046214690461C460B46024623F000407B
:10047000104347D0270DC7F30A00C3F30A51029077
:10048000401A019040286BDAC3F3130040F4801B3C
:100490000098924620B10023D2EB030A63EB0B0BCA
:1004A00001985946C0F14002504600F093F90646C3
:1004B0000D4650465946019A00F0ABF910EB080082
:1004C0006141002487EA115284EAE7731A4340D05D
:1004D000009A62B3019A012A4FEA075215DC001B09
:1004E00061EB02014FF0004202EA0752CDE90042FF
:1004F000001C41F5801132462B4600F0ABF903B0E9
:10050000BDE8F08F40462146F9E7001B61EB020190
:10051000001C41F5801300185B412018A2F500175C
:1005200047EB030140EAD570B6196D4111E06D0843
:100530004FEA360645EAC0754FEA0752001B61EBE9
:100540000201001C41F5801149084FEA30000019F2
:10055000514132462B4603B0BDE8F04F00F06BB975
:100560000098012240000023D0EB020263EBE0730D
:10057000009821464FEAE074B8EB000061EB0401FB
:10058000E9E783F000435BE781F0004158E72DE99C
:10059000FE4F81EA030404F0004421F0004100947E
:1005A0004FF0000B23F0004350EA01045ED052EA02
:1005B00003045BD0C3F30A54C1F30A552C44A4F2DC
:1005C000F3340194A0FB0254C1F3130141F48011F0
:1005D000C3F3130343F4801301FB024400FB034EF7
:1005E000840A970A44EA815447EA8357A4FB0768C0
:1005F00002958D0A05FB07854FEA932C04FB0C54EA
:100600002705029D4FEA065847EA1637B5EB08055D
:100610006EEB070C870E920E47EA811742EA8312AF
:10062000A7FB0201B6EB0B0164EB00042B0D43EAC0
:100630000C335E1844EB1C50DA465146E7FB0201CE
:10064000C5F313044FEA0B3343EA14534FEA043261
:10065000019C43EA0603A4F10C040294009CCDE93A
:1006600000B400F0F7F803B0BDE8F08F00200146B9
:10067000F9E72DE9F04D81EA030404F0004B21F085
:10068000004514464FF0000A23F0004150EA0502ED
:1006900020D054EA01021DD0C5F30A570246C5F323
:1006A0001303C1F31300C1F30A5640F4801543F459
:1006B0008013A7EB0608101BD64608F2FD3873EB33
:1006C000050002D308F1010801E092185B41B8F17E
:1006D000000F03DA00200146BDE8F08D00204FF442
:1006E0008011064684460EE0171B73EB050705D301
:1006F000121B63EB050306434CEA010C49084FEA61
:10070000300092185B4150EA0107EDD152EA030034
:1007100012D082EA040083EA0501084305D0101BC9
:10072000AB4106D20122002306E000224FF0004335
:1007300002E06FF0010253101AEB06004CEB085177
:1007400010EB0A0041EB0B01BDE8F04D00F073B86F
:10075000C1F30A52C1F3130140F2FF3341F4801197
:100760009A4202DA00200146704740F233439A422F
:10077000A2F2334202DC524200F03BB800F02AB849
:1007800030B5041E71F1000404DB4FF00044404218
:1007900064EB0101141E73F1000405DB1C464FF0ED
:1007A0000043524263EB0403994208BF904230BDBC
:1007B000064C074D06E0E06840F0010394E80700AE
:1007C00098471034AC42F6D3FFF794FC54770008F6
:1007D00074770008202A04DB203A00FA02F1002096
:1007E00070479140C2F1200320FA03F3194390406F
:1007F0007047202A04DB203A21FA02F000217047DA
:1008000021FA02F3D040C2F1200291400843194678
:100810007047202A06DBCB17203A41FA02F043EA60
:10082000E07306E041FA02F3D040C2F120029140A9
:1008300008431946704710B5141E73F1000408DA16
:10084000401C41F1000192185B411A4301D120F094
:10085000010010BD2DE9F04D92469B4611B1B1FA51
:1008600081F202E0B0FA80F220329046FFF7B2FF48
:1008700004460F4640EA0A0041EA0B0153465A4635
:10088000084313D0114653EA010019D0C8F14002C1
:100890005046FFF7AEFF05460E46504659464246C3
:1008A000FFF798FF084305D0012004E020463946B1
:1008B000BDE8F08D0020054346EAE0762C4337433F
:1008C0000A986305E40AA0EB08000022FD0A44EA46
:1008D00047540A3002D500200146E9E70105101906
:1008E0006941DDE9084500196941BDE8F04DA2E71D
:1008F000B0B582B004460020019021688A68D20712
:100900004FD1886840F00100886040F22800C2F2B0
:10091000000000684DF68361C4F21B31A0FB0101A9
:10092000880C01900198A0B10198013801900198BC
:1009300078B1019801380190019850B101980138BF
:100940000190019828B10198013801900198002880
:10095000EAD100F0BDFF21688968C9071CD10546AE
:1009600003E000BF8068C0071AD100F0B1FF411B4F
:1009700020680329F6D38168C907F3D1A06A40F043
:100980001000A062E06A40F00100E062002084F8FC
:100990002400012002B0B0BD002002B0B0BD00BFF5
:1009A000002002B0B0BD0000FEE70000B0B584B08A
:1009B00040F60004C4F2010400208021CDE90200C9
:1009C000CDE900106946204600F068FE20468021EF
:1009D00000F072FF90B100200546012000F030FECB
:1009E0002046802100F068FF18B1632D05F1010059
:1009F000F2D3622D02D9012004B0B0BD204680217F
:100A000000F05AFF10B1002004B0B0BD002000BFBC
:100A10000546012000F014FE2046802100F04CFF26
:100A200018B9632D05F10100F2D30020622D88BFB3
:100A3000012004B0B0BD0000B0B540F60004C4F21F
:100A400001042046802100F037FF68B1002500BF77
:100A5000012000F0F5FD2046802100F02DFF18B1A7
:100A6000632D05F10105F3D32046802100F024FF1A
:100A700060B90025012000F0E3FD2046802100F050
:100A80001BFF18B9632D05F10105F3D3282000F0F1
:100A9000D7FD2046802100F00FFF002818BF01205D
:100AA000B0BD00002DE9F04F87B00446002005904E
:100AB000802040F6000703900320C4F201078A4615
:100AC0000126069003A93846049600F0E7FD384653
:100AD0008021002200F0F6FE142000F09DFD384633
:100AE0008021012200F0EEFE1E2000F0A9FDFFF79C
:100AF0005DFF18B1304607B0BDE8F08F0194FFF7F5
:100B00009BFF0646FFF798FF400040EA8604FFF788
:100B100093FF44EA0005FFF78FFF0646FFF78CFFBF
:100B20000746FFF789FF0446F00040EA870040EAE5
:100B30000515FFF781FF40EA440040EA0504FFF78E
:100B40007BFF40EA44000290FFF776FF0446FFF780
:100B500073FF400040EA8404FFF76EFF44EA00059B
:100B6000FFF76AFF0446FFF767FF0646FFF764FFDB
:100B70000746E00040EA860040EA0514FFF75CFF04
:100B800040EA47000443FFF757FF40EA440BFFF7F2
:100B900053FF0446FFF750FF400040EA8404FFF78C
:100BA0004BFF44EA0005FFF747FF0446FFF744FF09
:100BB0000646FFF741FF0746E00040EA860040EAAC
:100BC0000514FFF739FF40EA47000443FFF734FFFD
:100BD00040EA4408FFF730FF0446FFF72DFF4000CE
:100BE00040EA8404FFF728FF44EA0005FFF724FFEA
:100BF0000446FFF721FF0646FFF71EFF0746E00009
:100C000040EA860040EA0514FFF716FF40EA470075
:100C10000443FFF711FF40EA4409FFF70DFF0446C4
:100C2000FFF70AFF400040EA8404FFF705FF44EAAB
:100C30000005FFF701FF0446FFF7FEFE0646FFF73B
:100C4000FBFE0746E00040EA860040EA0514FFF795
:100C5000F3FE40EA47000443FFF7EEFE40EA440398
:100C600002985FFA8BF1C0B20A185FFA88F717444E
:100C70005FFA89F21744DBB29F420DD141EA0020AE
:100C80000199AAF8000042EA0820002608803046B0
:100C900007B0BDE8F08F00BF0026304607B0BDE8C2
:100CA000F08F000040F2A400C2F2000000F052BB3E
:100CB00040F26000C2F2000000F04CBB7047000040
:100CC000EFF3108072B600BFFEE7000010B581B0F0
:100CD0000022009290F82420012A03D10221084624
:100CE00001B010BD4B680122062B80F8242017D8D4
:100CF000D0F800C003EB83035A1F1F23DCF834E055
:100D000003FA02F40B682EEA040403FA02F2224307
:100D1000CCF83420092B03EB430219D936E000BF8D
:100D2000D0F800C00C2B03EB83021DD8233A1F23FD
:100D3000DCF830E003FA02F40B682EEA040403FA4C
:100D400002F22243CCF83020092B03EB43021DD8DA
:100D5000DCF81030072489689440A343914019437C
:100D6000CCF81010002130E0413A1F23DCF82CE0D1
:100D700003FA02F40B682EEA040403FA02F2224397
:100D8000CCF82C20092B03EB4302E1D9DCF80CE072
:100D90001E3A0724896894402EEA0404914023F007
:100DA00001022143102ACCF80C100DD142F2084167
:100DB000C4F20101A1F1080294450DD0816A41F00D
:100DC00020018162012100E00021002280F824201E
:100DD000084601B010BD00BF0A68120230D40A688C
:100DE000102B42F400020A602CD140F22801C2F21A
:100DF000000109684DF68362C4F21B32A1FB0212A6
:100E0000910C01EB8101490000910099E1B1009939
:100E1000013900910099C9B10099013900910099F7
:100E2000B1B1009901390091009999B10099013946
:100E30000091009900294FF00001E8D1C5E700BFFB
:100E40000021C2E70021C0E70021BEE70021BCE786
:100E50000021BAE70021B8E70068C06C70470000C5
:100E6000B0B5002800F0A8800446806A20B121684F
:100E70008868C0070BD114E00020E06284F82400E9
:100E8000204600F09BF821688868C00709D0886870
:100E900020F00100886000F01BFD21688A68D207FD
:100EA00026D1A06AC0063AD4A06A41F20212904349
:100EB0000230A062E069D4E9013240EA030C531E1B
:100EC000B3FA83F35D091346B2F5807F18BF2B0296
:100ED000207D257B01284CEA450030D135B3A56A39
:100EE00045F02005A562E56A45F00105E56226E0CA
:100EF000054602E08868C007D3D000F0E9FC401B3B
:100F000021680328F6D38868C007F3D0A06A40F0B0
:100F10001000A062E06A40F00100E062A06AA06AEE
:100F200040F01000A0620120B0BD00BFD4F818C08E
:100F30004EF60005CFF6FF7505EB4C352B434D689B
:100F4000B2F5807F25F4694543EA05034B608B6861
:100F50004FF2FD75CFF6E17503EA050343EA00039E
:100F60008B6001D0012A07D122690023CFF6F073EC
:100F700003EB025201E000BF0022CB6A23F47003AE
:100F80001A43CA62896840F6FE62CFF61F721140AA
:100F9000814207D10020E062A16A012262F30101CF
:100FA000A162B0BDA06A40F0100020F00200A06273
:100FB000E06A40F00100E0620120B0BD80B586B07B
:100FC000014640F60000C4F20100096800F5E05255
:100FD00091424FF00001CDE9041101D006B080BD6F
:100FE00041F21801C4F202010A6842F400720A6078
:100FF0000A6802F400720192019A0A6842F004023F
:101000000A60096801F0040101910199022102912D
:101010000321039102A900F041FB06B080BD00004E
:10102000F0B581B000270D460446009700F050FC53
:1010300021688A68D20543D406464868C00503D4AF
:10104000C86A10F4700F45D040F22800C2F20000C8
:101050000768022000F094FE216844F624130A6910
:10106000B7FBF0F0C2F292431A4206D1CA6844F6C6
:101070002413C0F292031A425ED00A6942F29243EC
:10108000C1F249231A4207D1CA6842F29243C0F220
:1010900049031A4200F0C0800A6949F24923C0F2AC
:1010A00024031A424FF0FC0257D1CF681F4208BFF9
:1010B0005422009B02FB00F7BB4253D3C3E000BFA6
:1010C000A06A40F02000A06284F82470012001B0E2
:1010D000F0BD00BF0868800700F1B580681C00F013
:1010E000A880FDB90868800772D50868800700F1FC
:1010F000AA80086880076BD50868800700F1A38084
:101100000868800764D50868800700F19C8008683B
:1011100080075DD508688007E4D594E008688007FB
:1011200000F1918000F0D4FB801B2168A842F5D922
:1011300008688007F2D44BE00A6942F29243C1F298
:1011400049231A424FF0290207D1CB6842F2924755
:10115000C0F249073B4208BF1422009B02FB00F784
:10116000BB4270D2681C4FD055BB0098B8422FD3F9
:101170000098013000900098B84264D20098B842BC
:1011800026D30098013000900098B8425BD20098B6
:10119000B8421DD30098013000900098B84252D256
:1011A0000098B84214D30098013000900098B842DB
:1011B000DBD348E00098013000900098B84233D269
:1011C00000F086FB801BA842F4D90098B842F1D207
:1011D000A06A40F00400A062002084F824000320EC
:1011E00001B0F0BD0098013000900098B8422AD2BA
:1011F0000098013000900098B84224D20098013045
:1012000000900098B8421ED20098013000900098DB
:10121000B842E7D317E000BF5422009B02FB00F75F
:10122000BB429FD30FE000BF21680CE00868800735
:1012300009D40868800706D4086880075CBF08687E
:101240005FEA8070F2D56FF012000860A06A40F487
:101250000070A062886800F46020B0F5602F01D1B2
:10126000207B18B1002001B0F0BD00BFA06A20F4BF
:101270008070A062A06AC004F4D4A06A40F00100AB
:10128000A062002001B0F0BD10B5044690F8240023
:10129000012804BF022010BD012084F8240020464C
:1012A000FFF726FB20B1002184F8241010BD00BFF9
:1012B00042F2044C2068A16AC4F2010C40F20132EF
:1012C00091430CF57F7201F580719042A16233D099
:1012D000A16A21F48011A1624168490504D5A16A7F
:1012E000012363F30D31A162A16A0023C9044FF009
:1012F000000144BFE16A21F00601E1626FF00201E2
:1013000084F824300160816801F46021B1F5602F18
:1013100006D190420AD1DCF8001011F4702F05D0EC
:10132000816841F480118160002010BD816841F422
:10133000A0018160002010BDDCF8001011F4702FB6
:10134000C6D0A16A41F48011A162DCF80010490501
:10135000C5D4C9E710B5D0E90FCE0168DCF800307C
:101360000A6823FA0EF35C072AD512F0040427D08A
:101370000A68920603D40A6822F004020A602F2247
:10138000C4F20202914240F20402C4F202025BDDA6
:101390003023C4F20203994272D04423C4F2020300
:1013A000994273D05823C4F20203994240F07A80E4
:1013B0004FF480231360C16A002940F098806FE0E9
:1013C0009C0727D512F0020424D00A68920606D49E
:1013D0000A6822F00A020A60012280F821202F22E6
:1013E000C4F20202914240F20402C4F202023BDD66
:1013F0003023C4F20203994260D04423C4F20203B2
:1014000099425FD05823C4F20203994260D14FF44D
:10141000003365E01B0743D512F0080208BF10BD7A
:101420000A6822F00E020A60012101FA0EF2CCF8DD
:101430000420816380F82110016B0022002980F8CC
:10144000202054D12CE000BF0823C4F202039942AB
:1014500022D01C23C4F20203994223D140231360FB
:10146000C16A002943D11BE00823C4F20203994258
:101470002CD01C23C4F20203994229D120232FE04F
:101480004FF480631360C16A89BB09E04FF4804365
:101490001360C16A59BB03E004231360C16A31BB06
:1014A00010BD00BF02F168044FF08063A14208BF85
:1014B0004FF480031360C16AC9B9F1E74FF40073B8
:1014C0000EE000BF4FF400530AE000BF022307E024
:1014D00002F168044FF00073A14208BF4FF40013FB
:1014E0001360816A0022002980F82020D8D0BDE84E
:1014F00010400847014600284FF0010008BF704720
:101500002DE9F043D1F800C04FF6F873CBF6FD7328
:101510004CF6CD426344CCF6CC42A3FB02236FF0E1
:10152000030707EA93030027C4F2020701F10C093D
:10153000C1E90F730223D1E9012E99E87002D1F8B5
:101540001C8081F82130DCF8003043F6F077BB4393
:101550001A4342EA0E0222432A43324342EA090274
:1015600042EA0802CCF8002000228A6381F82100B8
:1015700081F820200020BDE8F0437047F0B590F8D6
:1015800020C0BCF1010F32D04FF0010E80F820E0F6
:1015900090F821C0BCF1010F26D14FF0020C80F869
:1015A00021C04FF0000CC0F838C0D0E900C4C56AB3
:1015B000C66BDCF80070102C27F00107CCF8007027
:1015C000006C0EFA00F070600846CCF8043004BFDE
:1015D00010460A46CCF80800CCF80C20DCF80000D5
:1015E00045B140F00E000DE0002180F820100220EF
:1015F000F0BD00BF20F00400CCF80000DCF80000D3
:1016000040F00A00CCF80000DCF8000040F00100D7
:10161000CCF800000020F0BDB0B5044600F058F949
:10162000054640F20400C2F200000078611C18BFB9
:10163000044400BF00F04CF9401BA042FAD3B0BDF7
:10164000B0B540F23C146FF00501C2F20004081A74
:10165000216885B220464D6201F056F84FF6F970C8
:10166000854213D820684FF6FA7100BF426A92B2E1
:101670008A420BD2426A92B28A4207D2426A92B23C
:101680008A4203D2426A92B28A42EFD340F23C10BD
:10169000C2F20000BDE8B04001F06AB82DE9F04F99
:1016A00082B00E68002E00F0038141F20042C4F2C5
:1016B0000102042340F2004E904208BF03234FF67C
:1016C000FF7CC4F2010E009300240123C1F2100C30
:1016D0004FF0000A4FF0000949E000BF012704F075
:1016E0000C030F229A402BEA020207FA03F34FEA97
:1016F0009A051A4346F82520D1F804B040F20C456B
:101700005FEACB22DEF8082054BF22EA080242EA50
:101710000802C4F20105CEF808202A685FEA8B238C
:1017200054BF22EA080242EA08022A605FEA8B33C9
:10173000DEF8042054BF22EA080242EA08025FEA07
:10174000CB33CEF80420DEF800204FF0010354BF65
:1017500022EA080242EA0802CEF800200E680AF1E6
:10176000010A36FA0AF204F1040400F0A18003FA37
:101770000AF816EA080FF1D04E68664512DC122E00
:1017800056D8DFE806F0350B4549555555555555A2
:10179000555555555555554D510000BFD1F80C9034
:1017A00046E000BF4FF6FF72C1F2210296420FDC05
:1017B0000022C1F2110296421AD00022C1F2120296
:1017C000964215D00022C1F22102964210D02FE09D
:1017D0000022C1F2220296420AD00022C1F2310256
:1017E000964205D00022C1F23202964220D100BFBB
:1017F0008A684AB1012A14BFC0F81480C0F810806A
:101800004FF0080914E000BF4FF0040910E000BFDA
:10181000CA6802F108090BE04FF0000908E000BFB8
:10182000CA6802F1040903E0CA6802F10C0900BFAA
:1018300022460646BAF1080F24BF203A043637681C
:101840000F25954027EA050509FA02F22A4332607E
:10185000CA79D2067FF582AF41F21803C4F20203BF
:101860001A68AEF57E7642F001021A601A6802F03C
:1018700001020192019A2AF0030256F802B040F6E2
:101880000002C4F20102904210D040F60042C4F2BD
:10189000010290423FF422AF41F20002C4F2010281
:1018A000009F904208BF022719E700BF002716E7F4
:1018B00002B0BDE8F08F00008068084018BF01202A
:1018C00070470000002A08BF09040161704700004A
:1018D00040F2CC10C2F200000068704770B5B8B397
:1018E000044690F83D0028B9002084F83C002046CA
:1018F00000F05CF9242084F83D002068016821F0A4
:1019000001010160016841F400410160016821F4B6
:101910000041016000F012FC48F28041C0F21E015B
:1019200040F60013D4F804E088424FF00001C0F202
:101930003D0348F2A16C4FF0000238BF01219842EC
:10194000C0F2010C38BF0122E64538BF0A460AB191
:10195000012070BD4DF68361C4F21B31A0FB011262
:101960002168950C4B684FF4967623F03F0343EAC9
:101970009243754344F6D3564B60C1F262060B6A3C
:10198000A5FB0656B50923F03F03E64538BF950C85
:101990006A1C1A430A62CA6948F2A0664CF6FF73D1
:1019A000C0F20106B64522EA03020BD801384FEA1D
:1019B0004E03B0FBF3F001306FF31F30042898BFE3
:1019C00004201EE0A368013863B119230EFB03F362
:1019D000B0FBF3F001306FF31F3078B100F58040B9
:1019E00008E000BF0EEB4E03B0FBF3F001306FF3E5
:1019F0001F3028B100F5004003E000BF012000E0E7
:101A000001201043C8610868D4E9072320F0C00012
:101A1000104318430860886848F2FF3204F10C064E
:101A200090434CCE18431043A5698860C86820F0E5
:101A3000FF0030432843C860086840F00100086098
:101A400000202021206484F83D10206384F83E00AB
:101A500070BD00002DE9F04383B0994616460F464D
:101A60000446FFF735FF94F83D10202920D10546A4
:101A7000206800BF8169890716D5FFF729FF411B40
:101A800020681A29F6D381698907F3D5002020211F
:101A9000206384F83D1084F83E00216C41F0200161
:101AA000216484F83C0003E094F83C10012903D140
:101AB000022003B0BDE8F083012284F83C200368D3
:101AC000DDE90B180A9ADB0703D1036843F0010331
:101AD0000360036823F400630360212084F83D0061
:101AE000402084F83E000020206462626185608DA1
:101AF000394620850020CFF6FF70E062204632464E
:101B00004B46CDF80080019501F0F6F920B1012097
:101B100003B0BDE8F08300BF208D98B92046414650
:101B20002A4601F04DFA88B3206C0428EFD12068D2
:101B3000016841F400710160012003B0BDE8F08349
:101B40000004EBD0204641462A4601F0F3FB002872
:101B5000EAD1616A2268084610F8013B1361238DBF
:101B60006062581E2085678D013F678557697F0732
:101B7000E6D50704E4D048781061881C6062981E9E
:101B80002085618D01396185DAE700BF2068016831
:101B900041F400710160202084F83D00002084F8A9
:101BA0003E0084F83C0003B0BDE8F08310B586B079
:101BB00045F200410068C4F200010022884204920C
:101BC00002D006B010BD00BF41F21804C4F20204F6
:101BD000206840F008002060206800F008000190B4
:101BE0000198C0200290122003900320059001F577
:101BF000384002A9FFF752FD606840F400106060B1
:101C0000606800F400100190019806B010BD00005B
:101C100040F2040040F2CC11C2F20000C2F2000116
:101C200000780A68104408607047000080B542F2EE
:101C30000000C4F20200016841F0100101600320BD
:101C400000F08EF80F2000F005F800F027F80020D3
:101C500080BD000070B540F20406C2F2000640F2FA
:101C600028013278C2F200014FF47A730968B3FB9D
:101C7000F2F20446B1FBF2F1084600F061FC0F2CD1
:101C80004FF0010508D838B94FF0FF302146002247
:101C9000002500F039F87460284670BD82B041F22A
:101CA0001800C4F202000168022241F00101016043
:101CB000016801F0010101910199416841F08051F1
:101CC0004160406800F08050009000980420C4F209
:101CD0000100016862F31A61016002B07047000000
:101CE000002848BF7047C1B200F01F00012202FA6D
:101CF00000F04EF20012CEF2000242EAD10121F0D1
:101D0000030108607047000010B54EF60C5CCEF27F
:101D1000000CDCF80030C3F3022E8EF00704042C14
:101D200028BF0424BEF103034FF0FF3E0EFA04F473
:101D300038BF0023A14399400EFA03F39A4311439D
:101D400000F00F0200F160430901043A03F5644317
:101D50006244002848BF02F10C03197010BD000056
:101D60004EF60C51CEF200010A684FF6FF031A40FE
:101D700060F30A2242F0806040F0FD700860704716
:101D800080B5012818D0022836D0102832D141F26F
:101D90000401C4F202010A6851F8040CC00129D5FB
:101DA000C2F383402DA3185CD2033DD440F6001249
:101DB000C0F23D02504343E041F20400C4F202008D
:101DC000C16940F202320A40B2F5817F04BF4FF48C
:101DD000004080BD01F44071B1F5407F1CD0B1F5E9
:101DE000007F07D1006A49F64041800701EAE070B0
:101DF00080BD00BF002080BD00F0B4F941F20401B5
:101E0000C4F2020109680222C1F3813102EB4101EF
:101E1000B0FBF1F080BD00BF50F8040C4FF224413C
:101E2000800301EAE07080BD0A6810A3C2F340425B
:101E30009A5C41F20023C0F27A03B3FBF2F2504302
:101E40000968490248BF80BD4AF6AB214000CAF686
:101E5000AA21A0FB0101480880BD00BF02030405C0
:101E6000060708090A0B0C0D0E0F101001020000E6
:101E70002DE9F04182B00446007841F21C06C0070B
:101E8000C4F202064AD0306810F0805808D1306899
:101E900040F080503060306800F080500190019830
:101EA00047F20007C4F200073868C00512D438684A
:101EB00040F480703860FFF70BFD05463868C005B8
:101EC00008D4FFF705FD401B6428F7D9032002B0B2
:101ED000BDE8F081706810F4407012D0616801F4C0
:101EE000407188420DD0706840F24042C4F24222F4
:101EF000012320F4407113600023C0071360716058
:101F00002AD17068616820F440700843B8F1000F6E
:101F1000706003D1306820F0805030602068810705
:101F200007D556F8181CA26821F44041114346F821
:101F3000181CC00604D4002002B0BDE8F08100BF28
:101F400056F8180CE16820F48000084346F8180C95
:101F5000002002B0BDE8F081FFF7BAFC054641F26F
:101F6000883700BF70688007CBD4FFF7B1FC401BF7
:101F7000B8424FF00300F5D9EBE700002DE9F0433C
:101F800081B0002800F0858042F20008C4F2020807
:101F90000446D8F800000D4600F0070088420CD235
:101FA000D8F8000020F007002843C8F80000D8F84F
:101FB000000000F00700A8426BD1206841F204093C
:101FC0008107C4F2020917D5410705D5D9F80010D9
:101FD00041F4E061C9F80010010705D5D9F80010F7
:101FE00041F46051C9F80010D9F80010A26821F03E
:101FF000F0011143C9F80010C00741D1D8F8000022
:1020000000F00700A8420CD9D8F8000020F0070023
:102010002843C8F80000D8F8000000F00700A842E4
:1020200037D12068410707D5D9F80010E26821F4BC
:10203000E0611143C9F80010000708D5D9F8000085
:10204000216920F4605040EAC100C9F80000D9F8C5
:10205000002002F00C00082841F20020C0F27A00B3
:1020600050D147F24473C2F38341C0F60003595C78
:10207000D2033BD440F60010C0F23D00484341E09B
:10208000606802280AD001282AD159F8041C890363
:1020900008D4012001B0BDE8F08300BF59F8041C4A
:1020A0008901F6D5D9F8001021F003010843C9F8D9
:1020B0000000FFF70DFC064641F28837D9F8000012
:1020C000616800F00C00B0EB810F97D0FFF700FCC7
:1020D000801BB842F2D9032001B0BDE8F08300BFF5
:1020E00059F8041C8907D4D5DCE700BFD9F80020D3
:1020F00045F26273C2F34042C0F600039A5C484363
:10210000B0FBF2F0D9F8001044F64272C1F30311AB
:10211000C0F60002515C40F2280220FA01F140F2C0
:102120000800C2F200000068C2F200021160FFF76E
:1021300091FD002001B0BDE8F083000040F22800CE
:1021400041F20401C2F20000C4F202010068096811
:1021500044F65272C1F30221C0F60002515CC8403D
:102160007047000040F2280041F20401C2F2000072
:10217000C4F202010068096844F65272C1F3C22138
:10218000C0F60002515CC840704700002DE9F041E4
:1021900082B0002868D00446007841F20006C007EB
:1021A000C4F2020625D0706800F00C0004281BD091
:1021B000706800F00C00082802D17068C00313D4C6
:1021C0006068002800F06881B0F5A02F00F07C81E5
:1021D000B0F5803F00F07C81306820F480303060C2
:1021E000306820F4802076E13068800301D5606893
:1021F000D0B32078800718D5706810F00C0F07D086
:10220000706800F00C0008286ED17068C0036BD4B1
:102210003068800702D52069012825D130686169BE
:1022200020F0F80040EAC1003060207800071FD499
:102230002078400732D4E56995B1706800F00C0051
:10224000082840F08F80012D0ED07068216A00F4BC
:1022500080328A4208D1616A00F47010884203D14A
:10226000002002B0BDE8F081012002B0BDE8F0819D
:10227000A069002862D00020C4F242200121C0F8E9
:102280008014FFF725FB0546706A800700F18C80FB
:10229000FFF71EFB401B0228F6D92AE1F06910F077
:1022A000805808D1F06940F08050F061F06900F08A
:1022B00080500090009847F20007C4F20007386889
:1022C000C00529D4386840F480703860FFF700FBFF
:1022D000054600BF3868C0051ED4FFF7F9FA401B59
:1022E0006428F7D905E100BF2069002840F200000A
:1022F000C4F2422000F0828001210160FFF7E8FA79
:10230000054600BF306880073FF588AFFFF7E0FA69
:10231000401B0228F6D9ECE0E068002800F080803D
:10232000052800F09780012800F09880306A20F09E
:1023300001003062306A20F0040092E00020C4F214
:1023400042200021C0F88014FFF7C2FA054600BF02
:10235000706A80077FF56CAFFFF7BAFA401B02285E
:10236000F6D9C6E00027C4F2422700203866FFF7FE
:10237000AFFA022D05460BD13068800140F1BE80D6
:10238000FFF7A6FA401B02284FF00300F4D968E7D4
:10239000306880017FF564AFFFF79AFA401B02288E
:1023A0004FF00300F4D95CE740F22800C2F20000CD
:1023B000006844F6D351C1F26201A0FB0101480A52
:1023C000019000BF00BF0198411E002801913FF419
:1023D0002FAF00BF0198411E002801913FF428AFA4
:1023E00000BF0198411E002801913FF421AF00BFBA
:1023F0000198411E00280191E4D119E700210160F4
:10240000FFF766FA054600BF306880077FF50DAF1D
:10241000FFF75EFA401B02284FF00300F4D920E7D3
:10242000306A20F001003062306A20F0040030622F
:10243000FFF74EFA054641F2883700BF306A800741
:1024400020D5FFF745FA401BB8424FF00300F5D9FD
:1024500007E700BF306A40F004003062306A40F0A5
:1024600001003062FFF734FA054641F2883700BFB9
:10247000306A800706D4FFF72BFA401BB842F7D921
:1024800037E000BFB8F1000F7FF4D5AEF06920F05F
:102490008050F061CFE600BF306820F480303060BB
:1024A000306820F480203060FFF712FA054600BF44
:1024B000306880037FF59DAEFFF70AFA401B642861
:1024C0004FF00300F4D9CCE6306840F4802030604F
:1024D000306840F480303060FFF7FAF9054600BFFD
:1024E000306880033FF585AEFFF7F2F9401B6428A2
:1024F000F6D9032002B0BDE8F08100BF206AB0F534
:10250000803F05D17168A26821F4003111437160E8
:102510007168626A21F474111143084370600120EC
:102520003866FFF7D5F90446306880013FF598AE6C
:10253000FFF7CEF9001B02284FF00300F4D990E614
:10254000411E0020B0EB116F1CBF012070474EF2FE
:102550001002CEF2000251604EF62351CEF200017D
:10256000F0230B70072190601160704710B590F850
:102570003C20012A4FF0020233D080F83D2002684F
:10258000D2F804E0D2F808C00C682EF070032343A0
:1025900040F2FF74C4F20004A24253600ADCB2F1BC
:1025A000804F13D040F20043C4F200039A420DD092
:1025B00011E000BF42F60043C4F201039A4205D085
:1025C00040F60003C4F200039A4204D149682CF09B
:1025D0008003194391600121002280F83D1080F8AA
:1025E0003C20104610BD0000002804BF01207047A9
:1025F00010B5044690F83D0028B9002084F83C004E
:10260000204600F067F8022084F83D00206840F280
:10261000FF730268C4F2000342F6004C9842C4F211
:10262000010C15DCB0F1804F1AD040F20041C4F229
:102630000001884214D0984218DCB0F1804F1DD0C0
:1026400040F20041C4F20001884217D01AE000BFF6
:10265000604505D040F60001C4F200018842EAD18D
:10266000A16822F070020A439842E6DD604505D079
:1026700040F60001C4F20001884203D1216922F42E
:1026800040720A43A36922F08001D4F804E0E268B2
:10269000194360450160C262C0F828E002D1616957
:1026A000CCF8301001214161002084F8461084F8F4
:1026B0003E1084F83F1084F8401084F8411084F8EC
:1026C000421084F8431084F8441084F8451084F8CC
:1026D0003D1010BD81B0006842F60041C4F2010116
:1026E000884201D001B0704741F21800C4F20200E4
:1026F000016841F400610160006800F4006000902E
:10270000009801B07047000090F83D1001291CBFEF
:1027100001207047022180F83D10006840F2FF71EF
:10272000C4F20001884209DCB0F1804F12D040F2BF
:102730000041C4F2000188420CD012E042F6004190
:10274000C4F20101884205D040F60001C4F2000144
:10275000884206D1816801F00701062904BF0020E4
:102760007047016841F001010160002070470000DE
:102770000146006841F21113026A1A4204D0012294
:10278000002081F83D207047026A40F244431A421B
:10279000F5D1026822F0010202600122002081F8D6
:1027A0003D20704780B590F83C20012A4FF002028E
:1027B00000F0C28080F83D20D0F800C04FF677725C
:1027C000DCF8083023EA0202CCF808200B684F2B13
:1027D00028DC1F2B44DD202B45D0302B43D0402B51
:1027E00040F0AC80D1F804E0C968DCF82030DCF8B7
:1027F000202022F00102CCF82020DCF8182022F062
:10280000F00242EA011123F00A0242EA0E02CCF879
:102810001810CCF82020DCF8081041F0470121F016
:10282000300180E06F2B27DDB3F5005F48D0B3F5B2
:10283000805F7AD0702B40F08180D1E901E3C968D4
:10284000DCF8082043EA0E0322F47F4243EA012128
:102850001143CCF80810DCF8081041F0770162E071
:102860000BB1102B6AD1DCF8081021F0700119436C
:1028700041F0070157E000BF502B35D0602B5DD1F0
:10288000D1F804E0C968DCF82030DCF8202022F020
:102890001002CCF82020DCF8182022F4704242EA22
:1028A000013123F0A00242EA0E12CCF81810CCF845
:1028B0002020DCF8081041F0670121F0100132E01F
:1028C000D1E901E3C968DCF8082043EA0E0322F4E9
:1028D0007F4243EA01211143CCF80810DCF80810CC
:1028E00041F480411FE000BFD1F804E0C968DCF882
:1028F0002030DCF8202022F00102CCF82020DCF887
:10290000182022F0F00242EA011123F00A0242EA02
:102910000E02CCF81810CCF82020DCF8081041F09A
:10292000570121F02001CCF808100022012180F885
:102930003D10002180F83C10104680BD0122F5E7D3
:102940007047000070470000002804BF0120704756
:1029500010B5044690F8410028B9002084F84000E2
:10296000204600F063F8242084F841002068D4E970
:102970000212C36823F40053C360036923F4405375
:102980001A430261D4E904231143C268194341F296
:102990000C639A431143C1604169A26921F44071FB
:1029A000114343F60002C4F201029042416103D098
:1029B000FFF7C4FB02E000BFFFF7D4FB62681921F8
:1029C00048439100B0FBF1F048F21F51C5F2EB1102
:1029D000A0FB01235A094FF69C73C0F6FF7302FB5C
:1029E0000300322303EB0010A0FB0101F02303EAF4
:1029F0005113206803EB0212C1F3431111448160AB
:102A0000016921F490410161416921F02A0141618C
:102A1000C16841F40051C16000202021606484F845
:102A2000411084F84210606310BD00002DE9F041B0
:102A300086B040F600050446C4F20105006805F5BD
:102A4000405100278842049702D006B0BDE8F081CB
:102A500041F21800C4F20200016802AE41F4804164
:102A60000160016840F2440801F48041019101993C
:102A70000168C4F2020841F00401016000683146B7
:102A800000F00400019001984FF4007002900220C1
:102A90000390032005902846FEF700FE4FF4806067
:102AA000CDE90207284631460497FEF7F7FD40F2CC
:102AB000600508F11400C2F200058026C5E9000790
:102AC0002846C5E90276C5E90477C5E90677FEF729
:102AD00011FD002818BFFEF7F3F8E5636C6240F2C1
:102AE000A405C2F2000510200021C5E90080284697
:102AF000C5E90216C5E90411C5E90611FEF7FAFC9D
:102B0000002818BFFEF7DCF8A5636C6206B0BDE8CC
:102B1000F081000070B582B0044690F84200202891
:102B20000AD113460A4600294FF0010018BF002BB6
:102B300006D102B070BD00BF022002B070BD00BF60
:102B4000002522202563A262A385656484F84200E3
:102B50002168E06B43F6916C43F6F17E43F615561F
:102B6000C0F6000CC0F6000EC0F600060431C0E945
:102B70000ACEC0E90C65FEF701FD019520680168E9
:102B80000191406801900198206928B3206850E8BD
:102B9000030F216840F4807041E80302E2B120682D
:102BA00050E8030F216840F4807041E803029AB1B5
:102BB000206850E8030F216840F4807041E8030268
:102BC00052B1206850E8030F216840F4807041E85A
:102BD0000302002ADAD100BF206850E8050F2168FF
:102BE00040F0010041E80502E2B1206850E8050F1D
:102BF000216840F0010041E805029AB1206850E8E0
:102C0000050F216840F0010041E8050252B120683B
:102C100050E8050F216840F0010041E80502002A54
:102C2000DAD100BF206850E8050F216840F040006D
:102C300041E80502DAB1206850E8050F216840F04C
:102C4000400041E8050292B1206850E8050F216874
:102C500040F0400041E805024AB1206850E8050F05
:102C6000216840F0400041E80502002ADAD1002046
:102C700002B070BD70470000704700002DE9F043BE
:102C800081B0044690F84100202840F0B180884689
:102C900000294FF0010000F0D6801646002A00F00F
:102CA000D2800020606421201D4684F84100FEF798
:102CB0000FFEA684E684A1680646B1F5805F03D1C5
:102CC0002069002800F0988047464FF00008E18C0A
:102CD0002068002900F0968005F101090BE000BF93
:102CE00047B317F8011B4160E18C0139E184E18CA5
:102CF000002900F0878001680906F1D4B9F1000FBE
:102D00000AD0EDB1FEF7E4FD801BA84218D8206878
:102D100001680906F6D5E3E701680906E0D4016811
:102D200009065CBF01685FEA0161D9D40168090640
:102D3000F2D5D5E738F8021B00276FF35F21D2E701
:102D4000206850E8030F216820F4D07041E80302A6
:102D5000BAB3206850E8030F216820F4D07041E82E
:102D6000030272B3206850E8030F216820F4D0708A
:102D700041E803022AB3206850E8030F216820F4D9
:102D8000D07041E80302002ADAD11AE0206850E846
:102D9000050F216820F0010041E80502DAB1206842
:102DA00050E8050F216820F0010041E8050292B1CA
:102DB000206850E8050F216820F0010041E8050275
:102DC0004AB1206850E8050F216820F0010041E871
:102DD0000502002ADAD1202084F8410084F842005C
:102DE000002084F84000032001B0BDE8F08300BF5C
:102DF000022001B0BDE8F0830027E18C20680029A3
:102E00007FF46AAF0168490619D4FDB1691C0DD180
:102E10000168490613D4016849065CBF01685FEA8E
:102E200041610CD401684906F2D508E0FEF750FD77
:102E3000801BA8420AD8206800684006F6D52020EA
:102E400084F84100002001B0BDE8F083206850E81C
:102E5000030F216820F4D07041E80302002A3ED01D
:102E6000206850E8030F216820F4D07041E8030285
:102E7000AAB3206850E8030F216820F4D07041E81D
:102E8000030262B3206850E8030F216820F4D07079
:102E900041E80302002AD9D121E000BF206850E8B0
:102EA000050F216820F0010041E80502002A3FF4E7
:102EB00092AF206850E8050F216820F0010041E83A
:102EC0000502002A3FF487AF206850E8050F21680B
:102ED00020F0010041E80502002A3FF47CAF2068A1
:102EE00050E8050F216820F0010041E80502002AA2
:102EF000D4D170E7FEE700002DE9F04383B004462B
:102F000000680D4601680A9F0B9E41F48071994646
:102F10009046016020464FF0011100223B4600968A
:102F200000F0AEF850B120680068C00544BF4FF40F
:102F300000702064032003B0BDE8F083206805F032
:102F4000FE0101610221C0F2010120463A463346EA
:102F500000F080F920B1012003B0BDE8F08300BF8C
:102F6000002002902068324641690291806939460A
:102F700002900298204600F0DDF958B1206C042838
:102F8000E9D12068016841F400710160012003B0BB
:102F9000BDE8F0832068B9F1010F0AD04FEA18218B
:102FA000016120463946324600F0C4F90028E5D1D7
:102FB00020685FFA88F10161002003B0BDE8F0836A
:102FC00070B50368044653F8140F400711D40E4639
:102FD000481C29D086BB00BF1868400527D4FEF7DF
:102FE00077FC236853F8140F400739D51868400759
:102FF000F2D5002070BD00BF18684007F9D41868EA
:10300000400514D418684007F3D4186840050ED45E
:1030100018684007EDD41868400508D418684007C0
:103020004FF0000048BF70BD18684005E4D56FF44C
:1030300080601860042014E0154603E053F8140F74
:103040004007D6D418684005F1D4FEF741FC401B78
:103050002368B042F2D958694007EFD4202000E03D
:10306000202000212022216384F83D2084F83E1096
:10307000226C10432064012084F83C1070BD0000D5
:103080002DE9F041054600681E46144601F47F0212
:1030900001338FB242D0DDF81880B2F5803F40F0A6
:1030A000878040693840C01BB0FA80F04009A042D8
:1030B00040F0C8804EB924E040693840C01BB0FAE7
:1030C00080F04009A04240F0BD80FEF701FCA0EB7B
:1030D00008012868B142EFD941693940C91BB1FAEA
:1030E00081F14909A142E7D19BE000BF4069384026
:1030F000C01BB0FA80F04009A0424FF0000040F041
:10310000A680FEF7E5FB286841693940C91BB1FA82
:1031100081F14909A142E9D183E000BFB2F5803FC6
:1031200024D100BF41693940C91BB1FA81F1490975
:10313000A14240F0878041693940C91BB1FA81F151
:103140004909A14240F07E8041693940C91BB1FA6A
:1031500081F14909A14275D141693940C91BB1FAD0
:1031600081F14909A142DDD06CE000BF816939409D
:10317000C91BB1FA81F14909A14263D18169394082
:10318000C91BB1FA81F14909A1425BD1816939407A
:10319000C91BB1FA81F14909A14253D18169394072
:1031A000C91BB1FA81F14909A142DFD04AE000BF51
:1031B00080693840C01BB0FA80F04009A04241D17C
:1031C00046B923E080693840C01BB0FA80F040095E
:1031D000A0423BD1FEF77CFBA0EB08012868B1427E
:1031E000F0D981693940C91BB1FA81F14909A1427D
:1031F000E8D116E080693840C01BB0FA80F0400981
:10320000A0424FF0000018BFBDE8F081FEF760FB60
:10321000286881693940C91BB1FA81F14909A14285
:10322000E8D100202021286385F83D1085F83E0074
:10323000296C41F02001296485F83C000120BDE89B
:10324000F08100BF0020BDE8F08100BF0020BDE894
:10325000F0810000F0B581B0044600681D46436966
:103260008FB203EA0701B94202D1002001B0F0BDDC
:1032700041691646013201F4806125D0002940D110
:10328000CEB100BFFEF724FB411B2068B14203D939
:1032900041693940B9424BD141693940B942E4D022
:1032A00041694905EED52CE041693940B942DCD08D
:1032B0004169490525D4FEF70BFB20684169394077
:1032C000B942F1D0202024E0D9B941693940B9424E
:1032D000CBD04169490514D441693940B942C4D0C1
:1032E000416949050DD441693940B942BDD04169B0
:1032F000490506D441693940B942B6D0416949050A
:10330000E3D5016841F4007101606FF480614161AF
:10331000042000212022216384F83D2084F83E10FF
:10332000226C1043206484F83C10012001B0F0BDF1
:103330002020EEE770B50368044653F8140F00062A
:1033400011D40E46481C29D086BB00BF1868400522
:1033500027D4FEF7BDFA236853F8140F000639D5B9
:1033600018680006F2D5002070BD00BF186800067E
:10337000F9D41868400514D418680006F3D4186806
:1033800040050ED418680006EDD41868400508D42E
:10339000186800064FF0000048BF70BD186840056F
:1033A000E4D56FF480601860042014E0154603E053
:1033B00053F8140F0006D6D418684005F1D4FEF770
:1033C00087FA401B2368B042F2D958690006EFD44F
:1033D000202000E0202000212022216384F83D20CD
:1033E00084F83E10226C10432064012084F83C10C5
:1033F00070BD0000B0B584B040F2300042F2004130
:10340000C2F20000C4F20101002401254FF4602241
:1034100005730475C261C0E9001484600561FDF79D
:103420001FFD002818BFFDF74BFC40F23000C2F230
:10343000000001A9CDE901550394FDF747FC0028E0
:1034400018BFFDF73DFC04B0B0BD000080B582B0F0
:1034500041F21400C4F202000168002241F00101AF
:1034600001600068002100F00100019001980E2029
:10347000FEF74AFC0E20FEF733FC0F20002100224D
:10348000FEF742FC0F2002B0BDE88040FEF728BCEA
:10349000F0B585B041F21800C4F20200016840F6B0
:1034A000000441F0100101600168C4F2010401F060
:1034B0001001019101990168002241F02001016091
:1034C000016801F0200101910199016841F00401B6
:1034D0000160016801F0040101910199016841F066
:1034E000080101600068C02100F008000190019807
:1034F0002046FEF7E7F940200190022001AD0126A9
:10350000039003272046294602960497FEF7C6F843
:103510008020CDE9010620462946CDE90367FEF764
:10352000BDF805B0F0BD000080B540F2E80045F2FE
:103530000041C2F20000C4F2000148F2A062002380
:103540004FF4804CC0F2010280E80E00C0E9033C59
:10355000C0E90533C0E90733FEF7C0F9002808BF0A
:1035600080BDBDE88040FDF7ABBB000080B586B0F4
:1035700040F23C1042F600420021C2F20000C4F2C8
:10358000010247234FF6FF7C0591CDE90311CDE9F8
:103590000011C0E90023C0E9021CC0E904118161E7
:1035A000FFF722F8002818BFFDF78AFB4FF4805080
:1035B000029040F23C10C2F2000002A9FFF7F2F8BC
:1035C000002818BFFDF77CFB40F23C10C2F200005F
:1035D0006946FEF7CBFF002818BFFDF771FB06B068
:1035E00080BD000080B540F2841043F60001C2F2B5
:1035F0000000C4F2010100234FF00C0C4FF41652EE
:1036000080E80E00C0E90333C0E905C3C361FFF7DA
:103610009BF9002808BF80BDBDE88040FDF750BB86
:10362000FEE70000FEE700002DE9F04F85B040F214
:10363000E80400254FF480760127C2F200040DF162
:10364000120B0DF113084FF0000900BF09F1B00093
:103650008DF8100004A8CDE900072046782100224B
:1036600001230296FEF7F6F90DF11100CDE90007EE
:1036700020467821002201238DF811500296FEF792
:10368000E9F910208DF8120020467821002201234C
:10369000CDE900B70296FEF7DDF94FF0000A00BF52
:1036A00020467821402201238DF81350CDE9008770
:1036B0000296FEF7CFF90AF101004FFA80FABAF14B
:1036C000FF3FEDDCB9F1070F09F10109BED305B0E9
:1036D000BDE8F08F80B5C820FDF79EFFBDE88040B3
:1036E00000F094BC2DE9F04F89B040B20D46A2F134
:1036F0002001002820EAE0724FF0100748BF023591
:10370000A5F1500047EA121402F00F07102BCEB2B9
:1037100040F03A8140F2E8088DF818004FF0010BB4
:1037200006A8C2F200084FF48079CDE9000B4046AC
:10373000782100220123CDF80890FEF78BF90DF1D6
:103740001900CDE9000B40467821002201238DF8B5
:103750001940CDF80890FEF77DF90DF11A00CDE97A
:10376000000B40467821002201238DF81A70CDF815
:1037700008904FF48079FEF76DF945F2821130011F
:10378000C0F60001085C01EB06168DF81B000597DA
:103790000DF11B074046782140220123CDE9007B33
:1037A000CDF80890FEF756F97078317996F802A0B6
:1037B000049496F8039003918DF81B0040467821FD
:1037C000402201234FF48074CDE9007B0294FEF780
:1037D00041F940467821402201234FF480748DF84E
:1037E0001BA0CDE9007B0294FEF734F94046782116
:1037F000402201238DF81B90CDE9007B0294FEF757
:1038000029F9039878218DF81B00404640220123B6
:10381000CDE9007B0294FEF71DF9707978218DF8CF
:103820001B00404640220123CDE9007B0294FEF7B5
:1038300011F9B07978218DF81B0040464022012310
:10384000CDE9007B0294FEF705F9F07978218DF837
:103850001B00404640220123CDE9007B0294FEF785
:10386000F9F8A5F14F008DF81C0007A8CDE9000B71
:1038700040467821002201230294FEF7EBF80498D9
:1038800078218DF81D000DF11D00CDE9000B40469B
:10389000002201230294FEF7DDF8059878218DF8C7
:1038A0001E000DF11E00CDE9000B40460022012351
:1038B0000294FEF7CFF8307A0DF11F058DF81F0046
:1038C0004046782140220123CDE9005B0294FEF7B7
:1038D000C1F8707A78218DF81F00404640220123FC
:1038E000CDE9005B0294FEF7B5F8B07A78218DF847
:1038F0001F00404640220123CDE9005B0294FEF701
:10390000A9F8F07A78218DF81F0040464022012363
:10391000CDE9005B0294FEF79DF8307B78218DF8AD
:103920001F00404640220123CDE9005B0294FEF7D0
:1039300091F8707B78218DF81F00404640220123CA
:10394000CDE9005B02944FF48074FEF783F8B07BFE
:1039500078218DF81F00404640220123CDE9005B0D
:1039600002944FF48074FEF775F8F07BCDE9005BAC
:103970008DF81F0040467821402201230294FEF773
:1039800069F809B0BDE8F08F40F2E80B8DF820002F
:103990004FF0010A08A8C2F2000B4FF48078CDE97D
:1039A000000A5846782100220123CDF80880FEF74E
:1039B00051F80DF12100CDE9000A58467821002286
:1039C00001238DF82140CDF80880FEF743F80DF172
:1039D0002200CDE9000A58467821002201238DF803
:1039E0002270CDF80880FEF735F844F65A7106EBE0
:1039F0004600C0F6000111F8102001EB40058DF8DB
:103A000023200DF123065846782140220123CDE9D9
:103A1000006ACDF80880FEF71DF86878AF78EC787A
:103A200095F804908DF82300584678214022012310
:103A3000CDE9006ACDF80880FEF70CF858467821E9
:103A4000402201238DF82370CDE9006ACDF808806B
:103A5000FEF700F858467821402201238DF82340D4
:103A6000CDE9006ACDF80880FDF7F4FF58467821CB
:103A7000402201238DF82390CDE9006ACDF808801B
:103A8000FDF7E8FF687978218DF823005846402239
:103A90000123CDE9006ACDF80880FDF7DBFF09B00E
:103AA000BDE8F08F2DE9F04F87B00646A1F1500038
:103AB00040F2E8058DF81400012705A8C2F20005C0
:103AC000144604914FF4807ACDE900072846782106
:103AD00000220123CDF808A0FDF7BCFF300900F15A
:103AE00010080DF11500CDE90007284678210022C5
:103AF00001238DF81580CDF808A0FDF7ABFF0DF17F
:103B0000160006F00F0BCDE90007284678210022A9
:103B100001238DF816B0CDF808A0FDF79BFF45F204
:103B20006471C4EB0420C0F6000101EB40064FF0C5
:103B3000FF340DF1170900BF3019407878218DF856
:103B40001700284640220123CDE90097CDF808A0B0
:103B5000FDF780FF01341F2CEED1049840F2E804F9
:103B60004F388DF818004FF0010A06A8C2F2000481
:103B70004FF48079CDE9000A204678210022012304
:103B8000CDF80890FDF766FF0DF11900CDE9000AA8
:103B900020467821002201238DF81980CDF8089065
:103BA000FDF758FF0DF11A00CDE9000A20467821F3
:103BB000002201238DF81AB0CDF80890FDF74AFFD6
:103BC000FE250DF11B0700BF7019407878218DF894
:103BD0001B00204640220123CDE9007ACDF8089051
:103BE000FDF738FF0135B5F58F7FEDD107B0BDE8A2
:103BF000F08F00002DE9F04F85B0002B0491039069
:103C00007CD00E981C464508981E009058421746D6
:103C1000591E4FF000085FFA80FB42F2107900262F
:103C20004FF0000A0291019212E000BF01260399B1
:103C300040F0300205FB08110E9BC8B20499D2B2C5
:103C4000FFF750FD08F10108A0450AF1010A55D01F
:103C50006FEA0A00C0B2584502D101202AE000BF35
:103C600000996FEA0800A1EB0801C9B2032900EB33
:103C7000040101D2012009E001F0FC02002301202F
:103C80000433DFB2974200FB09F0F9D1019F11F034
:103C900003010FD0012903D100EB8000400009E0AF
:103CA0004FF47A72424302294FF0640108BF00FBCF
:103CB00001F21046B7FBF0F04CF6CD41CCF6CC410A
:103CC000A0FB0112D10801EB8101002EA0EB410005
:103CD000ADD102994145AADD0028A7D103980499E6
:103CE00005FB08000E9BC0B22022FFF7FBFC00265C
:103CF00008F10108A0450AF1010AA9D105B0BDE803
:103D0000F08F00007047000070470000FDF780BF93
:103D100070470000406A01684A6990F84130212BE1
:103D20002DD112F080022AD00021C184016851E80F
:103D3000031F026821F0C00142E80313DBB10168F0
:103D400051E8031F026821F0C00142E8031393B158
:103D5000016851E8031F026821F0C00142E8031323
:103D60004BB1016851E8031F026821F0C00142E82D
:103D70000313002BDAD1202180F841100168496932
:103D800090F84220222A40F07D8011F0400179D045
:103D90000021C185016851E8031F026821F4907178
:103DA00042E80313BBB3016851E8031F026821F422
:103DB000907142E8031373B3016851E8031F02686E
:103DC00021F4907142E803132BB3016851E8031FFB
:103DD000026821F4907142E80313002BDAD11AE053
:103DE000016851E8051F026821F0010142E805134E
:103DF000DBB1016851E8051F026821F0010142E8CA
:103E0000051393B1016851E8051F026821F0010113
:103E100042E805134BB1016851E8051F026821F023
:103E2000010142E80513002BDAD1016B012924D1ED
:103E3000016851E8031F026821F0100142E80313F2
:103E4000DBB1016851E8031F026821F0100142E86C
:103E5000031393B1016851E8031F026821F01001B8
:103E600042E803134BB1016851E8031F026821F0D7
:103E7000100142E80313002BDAD1202180F8421010
:103E800000210163416C41F010014164FEF75ABD0D
:103E90000168406A0968890600F19F800021C18598
:103EA000016851E8031F026821F4807142E803139E
:103EB000E3B1016851E8031F026821F4807142E810
:103EC00003139BB1016851E8031F026821F480715C
:103ED00042E8031353B1016851E8031F026821F45B
:103EE000807142E80313002BDAD100BF016851E86A
:103EF000051F026821F0010142E80513BBB3016808
:103F000051E8051F026821F0010142E8051373B36F
:103F1000016851E8051F026821F0010142E805131C
:103F20002BB3016851E8051F026821F0010142E846
:103F30000513002BDAD11AE0016851E8051F026869
:103F400021F0400142E80513DBB1016851E8051F8B
:103F5000026821F0400142E8051393B1016851E87D
:103F6000051F026821F0400142E805134BB10168CA
:103F700051E8051F026821F0400142E80513002BBB
:103F8000DAD1202180F84210016B012925D100BF30
:103F9000016851E8031F026821F0100142E8031391
:103FA000DBB1016851E8031F026821F0100142E80B
:103FB000031393B1016851E8031F026821F0100157
:103FC00042E803134BB1016851E8031F026821F076
:103FD000100142E80313002BDAD100214163016B89
:103FE000012918BFFEF746BE818DFEF7A9BC00006F
:103FF000406A01214163016B012918BFFEF73CBEF5
:10400000818D4908FEF79CBCFEE70000F0B583B047
:1040100040F2E80440F20C07C2F200044FF480754D
:104020000126C2F200072046782100220123CDE9B3
:1040300000760295FDF70EFD781CCDE900062046BE
:104040007821002201230295FDF704FDB81CCDE97B
:10405000000620467821002201230295FDF7FAFC94
:10406000F81CCDE9000620467821002201230295A4
:10407000FDF7F0FC381DCDE900062046782100222E
:1040800001230295FDF7E6FC781DCDE900062046E8
:104090007821002201230295FDF7DCFCB81DCDE953
:1040A000000620467821002201230295FDF7D2FC6C
:1040B000F81DCDE900062046782100220123029553
:1040C000FDF7C8FC07F10800CDE90006204678217D
:1040D000002201230295FDF7BDFC07F10900CDE99F
:1040E000000620467821002201230295FDF7B2FC4C
:1040F00007F10A00CDE900062046782100220123BD
:104100000295FDF7A7FC07F10B00CDE9000620465C
:104110007821002201230295FDF79CFC07F10C0099
:10412000CDE9000620467821002201230295FDF703
:1041300091FC07F10D00CDE9000620467821002210
:1041400001230295FDF786FC07F10E00CDE900067C
:1041500020467821002201230295FDF77BFC07F120
:104160000F00CDE9000620467821002201230295A8
:10417000FDF770FC07F11000CDE90006204678211C
:10418000002201230295FDF765FC07F11100CDE93E
:10419000000620467821002201230295FDF75AFCF3
:1041A00007F11200CDE90006204678210022012304
:1041B0000295FDF74FFC07F11300CDE900062046FC
:1041C0007821002201230295FDF744FC07F1140039
:1041D000CDE9000620467821002201230295FDF753
:1041E00039FC07F11500CDE90006204678210022B0
:1041F00001230295FDF72EFC07F11600CDE900061C
:1042000020467821002201230295FDF723FC07F1C7
:104210001700CDE9000620467821002201230295EF
:10422000FDF718FC07F11800CDE9000620467821BB
:10423000002201230295FDF70DFC07F11900CDE9DD
:10424000000620467821002201230295FDF702FC9A
:1042500007F11A00CDE9000620467821002201234B
:104260000295FDF7F7FB03B0F0BD000080B582B00A
:10427000019040F28410C2F2000001A901224FF621
:10428000FF73FEF7FBFC019802B080BD9CB00024D8
:10429000ADF82240ADF820400794FDF7C7FC01209F
:1042A000CDE91744CDE91544129016904FF4E01073
:1042B0004FF4803102251B9012A80C94CDE90A44DA
:1042C000CDE91314CDE91951FDF760FF20B1EFF3EB
:1042D000108072B6FEE700BF0F20CDE90D054FF448
:1042E0008060CDE910040DA802210F94FDF746FE71
:1042F00020B1EFF3108072B6FEE700BF02200990F4
:104300004FF400400B9009A8FDF7B2FD20B1EFF388
:10431000108072B6FEE700BFFFF7BAF8FFF796F815
:10432000FFF724F9FFF75EF9FFF7FEF8FFF762F8F1
:10433000FFF7D0F9FFF778F91020002100224FF0A5
:104340001009FFF7AFFB202000210122FFF7AAFB95
:10435000302000210222FFF7A5FB4020002103228C
:10436000FFF7A0FB502000210422FFF79BFB6020F9
:1043700000210522FFF796FB002002210622FFF70D
:1043800091FB102002210722FFF78CFB2020022145
:104390000822FFF787FB302002210922FFF782FB6A
:1043A000402002213A221023FFF79CF9002004212B
:1043B0000622FFF777FB102004210722FFF772FB8C
:1043C000202004210A22FFF76DFB302004210B225C
:1043D000FFF768FB402004213A221023FFF782F9FF
:1043E000002006210C22FFF75DFB102006210D2284
:1043F000FFF758FB202006210E22FFF753FB302049
:1044000006210F22FFF74EFB402006213A221023FF
:10441000FFF768F9322004901E2005906420069072
:104420000EE000BF9DF81E009DF81F1000EB8000FD
:1044300001EB4000103804904FF47A70FDF7ECF86F
:1044400040F28410C2F2000007A90522FEF762FBC9
:1044500040F23004C2F200042046FCF715FF20466B
:104460006421FCF7DDFD2046FCF7F6FCFBF739FF85
:104470004FF20001C4F27F51FBF7DEFE0021C4F2CF
:10448000C821FBF7A7FE8246FBF730FFC4B22046E7
:10449000FBF71EFF01465046FBF796FE0746FBF76B
:1044A00025FF00EB80004000C5B22846FBF710FF57
:1044B000002106463846C4F22011FBF78BFE314638
:1044C000FBF782FEFBF712FF064648200621224634
:1044D0000323CDF80090FFF78DFB602006212E22EC
:1044E0001023FFF7FFF8682006212A460123CDF8A4
:1044F00000904FF0010BFFF77DFBF2B27020062118
:104500000123CDF80090FFF775FB0DF1220008A9FB
:10451000FCF7C8FABDF82240BDF82060270A482001
:1045200002213A460223350ACDF80090FFF762FBDC
:10453000E4B26020022122460123CDF80090FFF76B
:1045400059FB582002212E221023FFF7CBF86820B8
:10455000022143221023FFF7C5F8482004212A46F0
:104560000223CDF80090FFF745FB5FFA86F8602044
:10457000042142460123CDF80090FFF73BFB582071
:1045800004212E221023FFF7ADF8682004212522F4
:104590001023FFF7A7F85046FBF7C1FECDE9020153
:1045A00026A0394622462B46CDF8008000F050F870
:1045B0000699BDF82200C9B2884216D80599BDF8FF
:1045C0002000C9B2884203D24FF0010B0DE000BFBA
:1045D0000498C0B2FBF785FE01465046FBF76AFE21
:1045E0008346002818BF4FF0010B40F60000C4F2CC
:1045F000010040215A46FDF765F99DF81C00482846
:1046000010D053283FF40EAF54287FF415AF9DF817
:104610001E009DF81F1000EB800001EB40001038D9
:10462000069009E79DF81E009DF81F1000EB800022
:1046300001EB400010380590FEE600BF25642E25F2
:1046400031642C25642E2531642C252E32660A0017
:104650000FB4054B10B503A9044A029800F0DAF82C
:1046600010BC5DF814FB00006D4200080000002043
:1046700002E008C8121F08C1002AFAD1704770472B
:10468000002001E001C1121F002AFBD17047000089
:104690002DE9FF5F82B00021DDE90430020DDDF875
:1046A00040B0034318D044F61050A2F2FF32424308
:1046B0001514119801281FD0A5EB0B00401C5FEAD0
:1046C000000A4FF000064E4FDFF83891B0465046D2
:1046D00015D5CAF1000413E0119801244AA301285A
:1046E00001D16FEA0B010298119AC0E90031C0E9CB
:1046F000024206B0BDE8F09FCBF10000DFE70446C0
:104700000021404A491842EB0450CDE9001012E064
:10471000E00707D032463B4640464946FBF737FFA5
:104720008046894632463B4610461946FBF72FFF26
:1047300006460F466410002CEAD1DDE90401DDE9EC
:104740000023BAF1000F06DAFBF721FF42464B4681
:10475000FBF71DFF05E0FBF78CFF42464B46FBF7DE
:1047600088FF04460E460022284BFCF709F803D8C0
:104770004FF0FF30014607E00022254B204631462E
:10478000FBF75EFEFBF7E4FF102409E0002C0ADBD8
:104790000A220023FBF7ECFD039B30321A55641EFE
:1047A00050EA0102F2D1641C039AC4F111031444CB
:1047B000119A012A03D0012208430DD10AE00843CF
:1047C00004D000204FF0110B119072E7A3EB0B0502
:1047D0006D1E0DE05B4504DD4FF0000205F10105A3
:1047E00004E003DA4FF00002A5F10105002AECD045
:1047F00002981199C0E90231C0E9004579E700004B
:10480000000014400000F03F300000000000F043C2
:104810000000E03F2DE9FF4F95B09B4689460646D4
:1048200000250FE2252877D100242746F84A0121E8
:10483000059400E0044316F8013F203B01FA03F021
:104840001042F7D130782A2811D06FF02F0330783A
:10485000A0F13002092A16D8059A44F0020402EBAE
:10486000820203EB42021044761C0590EFE759F8F0
:10487000042B0592002A03DA504244F400540590B8
:1048800044F00204761C30782E2816D116F8010F59
:1048900044F004042A280DD06FF02F023078A0F1E4
:1048A0003003092B09D807EB870302EB4303C71832
:1048B000761CF3E759F8047B761C30786C280FD00F
:1048C00006DC4C2817D068280DD06A2814D104E0E3
:1048D000742810D07A280FD10DE044F400140AE0B7
:1048E00044F4801401E044F440147278824202D10E
:1048F00004F58014761C761C307866280BD013DC07
:10490000582877D009DC002875D04528F6D04628ED
:10491000F4D047281AD19DE118E0632835D06428E7
:1049200079D0652812D195E1702873D008DC67280A
:10493000F1D069286FD06E280DD06F2806D1B5E070
:1049400073282CD0752875D0782874D05A461799BA
:1049500090476D1C75E1C4F30250022809D003286A
:104960000DD0D9F8001004280DD00D6009F104090C
:1049700067E1D9F80010EA17C1E90052F6E7D9F863
:1049800000100D80F2E70D70F0E719F8041B8DF8A8
:10499000001000208DF80100EA46012003E059F8DC
:1049A00004AB4FF0FF3061074FF0000102D40DE07F
:1049B00008F101018846B9420FDA8045F8DB1AF8A0
:1049C00008100029F4D108E008F10101884681426D
:1049D000FADB1AF808100029F6D105985B46A0EB1F
:1049E000080721463846179A00F094FA284400EB4D
:1049F000080507E04DE029E10DE01AF8010B5A46E1
:104A000017999047B8F10108F7D25B46214638461E
:104A1000179A13E142E00A220092C4F302524FF0C7
:104A2000000A022A08D059F804CB032A4FEAEC7195
:104A30000AD00DE029E02AE009F1070121F0070280
:104A4000F2E802C1914609E00FFA8CFC4FEAEC71E2
:104A5000042A03D14FFA8CFC4FEAEC71002907DAE3
:104A60000A460021DCF1000C61EB02012D2202E07C
:104A7000220504D52B228DF80420012203E0E20751
:104A800001D02022F7E7904659E00A2102E01022E7
:104A90000DE010214FF0000A00910BE010224FF0C2
:104AA000000A44F004040827009203E008224FF0B3
:104AB000000A0092C4F30252022A05D059F804CB2E
:104AC0000021032A08D009E009F1070121F00702BB
:104AD000F2E802C1914605E01FFA8CFC042A01D1DC
:104AE0000CF0FF0C4FF00008220728D5702806D0E4
:104AF000009B83F0100353EA0A0305D00EE0402226
:104B00008DF80420012208E05CEA010206D0302280
:104B10008DF804208DF8050002229046009B83F05A
:104B2000080353EA0A030AD15CEA010201D16207D1
:104B300005D530228DF804204FF001087F1E58283B
:104B400004D034A003900EA802900DE036A0F9E73F
:104B500053466046009AFBF70BFC84460398825C40
:104B60000298401E029002705CEA0100F0D10298A7
:104B700006A9081A00F1200A600702D524F480343F
:104B800000E00127574502DDA7EB0A0000E0002006
:104B900000EB0A01009005984144401A0590E0039B
:104BA00006D45B462146179A059800F0B3F90544F0
:104BB000002706E001A85A46C05D179990476D1C72
:104BC0007F1C4745F6DBE0030CD55B462146179A70
:104BD000059800F09FF9054404E030205A461799E3
:104BE00090476D1C0099481E00900029F5DC08E0F4
:104BF000029802995A460078491C029117999047E9
:104C00006D1CBAF10001AAF1010AF1DC65E10000B6
:104C10000928010030313233343536373839616292
:104C20006364656600000000303132333435363756
:104C300038394142434445460000000000F058F92D
:104C40000544761C307800287FF4ECAD19B0284676
:104C5000BDE8F08F620700D4062709F1070222F0B1
:104C6000070CFCE80223E14603F000485FEA080C69
:104C700002D00FF2702C0DE05FEA045C02D50FF257
:104C8000682C07E05FEAC47C02D00FF2602C01E0E0
:104C9000AFF2700C4FF0FF3823F00043CDF850C056
:104CA00065280CD006DC452809D046281DD04728A9
:104CB0003DD13DE0662818D067287ED138E000213C
:104CC000112F01DB112000E0781CCDE9000106A9BD
:104CD0000EA8FFF7DDFCDDE90F010E9A039100211C
:104CE000009207F1010A04914DE04FF00040009757
:104CF000CDE9011006A90EA8FFF7CAFCDDE90F02F5
:104D000003920E9B11990022DDF80CA000930492EF
:104D100011B9791C00EB010AB7EB0A0004D4C0F109
:104D2000FF3007F1010A0490AAEB0700019044E06C
:104D3000012F00DA01270021112F01DD112000E0F1
:104D40003846CDE9000106A90EA8FFF7A1FCDDE970
:104D50000F010E9A0391002104910092BA46210797
:104D60000CD40399514500DA8A46BAF1010F05DDEA
:104D7000009AAAF10101515C302908D0B84202DA48
:104D800010F1040F06DA0121CDE9011015E0AAF1B6
:104D90000101E9E7002805DC049901440491AAEB2C
:104DA000000102E0411C514500DD8A460499401A89
:104DB000401C01904FF000400290200704D401985D
:104DC000504501DBCDF8048000208DF84F0002989B
:104DD0000DF14F07B0F1004F25D02B200E90029817
:104DE0004FF0020800280CDA404202902D200E906D
:104DF00007E00A210298FBF7A5FA3031029007F884
:104E0000011DB8F10001A8F10108F2DC02980028A8
:104E1000EFD1791E0E980870307800F0200040F035
:104E2000450007F8020D12A8C01B00F107081498EE
:104E3000007800B1012000EB0A01019801EBE0715C
:104E400005984144401A401E0590E00306D45B4695
:104E50002146179A059800F05DF8054414980078EB
:104E600018B15A46179990476D1CE00324D55B464C
:104E70002146179A059800F04DF805441CE0049867
:104E8000002807DBDDE90301884203DD0098405C70
:104E9000179901E0179930205A469047049805F178
:104EA0000105401C04900198401E019004D12E2061
:104EB0005A46179990476D1CBAF10001AAF1010AF0
:104EC000DDDC05E017F8010B5A46179990476D1C79
:104ED000B8F10001A8F10108F4DC5B462146179AFD
:104EE0000598ABE62D0000002B000000200000001C
:104EF0002DE9F041044600251E461746880404D4D7
:104F000005E039462020B0476D1C641EF9D52846BF
:104F1000BDE8F0812DE9F041044600251E4690468B
:104F2000C80301D5302700E02027880404D505E018
:104F300041463846B0476D1C641EF9D52846BDE889
:104F4000F0810000000000000000010203040607D9
:104F50000809000000000102030400000000000036
:104F60000000002F000000000700070000147F145D
:104F70007F1400242A7F2A1200626408132300365B
:104F80004955225000000503000000001C2241008A
:104F9000000041221C000014083E08140008083ECE
:104FA0000808000000A060000008080808080000C9
:104FB00060600000002010080402003E5149453E98
:104FC0000000427F400000426151494600214145B6
:104FD0004B31001814127F10002745454539003C1D
:104FE0004A494930000171090503003649494936EB
:104FF00000064949291E00003636000000005636DA
:1050000000000008142241000014141414140000BD
:105010004122140800020151090600324959513E4B
:10502000007C1211127C007F49494936003E414103
:105030004122007F4141221C007F49494941007FB4
:1050400009090901003E4149497A007F0808087FA3
:105050000000417F4100002040413F01007F0814D3
:105060002241007F40404040007F020C027F007FD1
:105070000408107F003E4141413E007F09090906B6
:10508000003E4151215E007F0919294600464949E9
:1050900049310001017F0101003F4040403F001FB6
:1050A0002040201F003F4038403F00631408146335
:1050B00000070870080700615149454300007F411F
:1050C000410000552A552A55000041417F00000447
:1050D0000201020400404040404000000102040080
:1050E000002054545478007F4844443800384444E5
:1050F000442000384444487F003854545418000871
:105100007E0901020018A4A4A47C007F080404788E
:105110000000447D4000004080847D00007F102816
:1051200044000000417F4000007C04180478007CAB
:105130000804047800384444443800FC242424182B
:105140000018242418FC007C080404080048545467
:10515000542000043F444020003C4040207C001C80
:105160002040201C003C4030403C00442810284493
:10517000001CA0A0A07C004464544C4414141414DB
:1051800014140000000000000000000000000000F7
:105190000000000000F800000000000000333000B4
:1051A000000000100C06100C0600000000000000BB
:1051B000000040C07840C0784000043F04043F0431
:1051C0000400007088FC08300000001820FF211E39
:1051D0000000F008F000E018000000211C031E2170
:1051E0001E0000F00888700000001E2123241927EB
:1051F000211010160E00000000000000000000004A
:105200000000000000E01804020000000007182061
:10521000400000020418E0000000004020180700D1
:105220000000404080F0804040000202010F010277
:105230000200000000F0000000000101011F010158
:105240000100000000000000000080B070000000BD
:105250000000000000000000000000010101010149
:1052600001010000000000000000003030000000DC
:1052700000000000000080601804006018060100B3
:10528000000000E010080810E000000F10202010BF
:105290000F00001010F8000000000020203F202028
:1052A00000000070080808887000003028242221BF
:1052B0003000003008888848300000182020201175
:1052C0000E000000C02010F8000000070424243F56
:1052D000240000F8088888080800001921202011FF
:1052E0000E0000E0108888180000000F1120201127
:1052F0000E0000380808C83808000000003F000011
:1053000000000070880808887000001C22212122FB
:105310001C0000E010080810E000000031222211FB
:105320000F00000000C0C00000000000003030008E
:10533000000000000080000000000000806000000D
:105340000000000080402010080000010204081046
:105350002000404040404040400004040404040455
:105360000400000810204080000000201008040203
:105370000100007048080808F00000000030360105
:105380000000C030C828E810E000071827242314C4
:105390000B000000C038E0000000203C2302022780
:1053A000382008F8888888700000203F20202011CD
:1053B0000E00C03008080808380007182020201008
:1053C000080008F808080810E000203F20202010FE
:1053D0000F0008F88888E8081000203F20202320CC
:1053E000180008F88888E8081000203F2000030013
:1053F0000000C03008080838000007182020221ECE
:10540000020008F808000008F808203F21010121E7
:105410003F20000808F8080800000020203F202056
:10542000000000000808F8080800C08080807F00A5
:10543000000008F888C028180800203F20012638FE
:10544000200008F8080000000000203F2020202055
:10545000300008F8F800F8F80800203F003F003F4F
:10546000200008F830C00008F808203F2000071886
:105470003F00E01008080810E0000F102020201066
:105480000F0008F808080808F000203F210101017A
:105490000000E01008080810E0000F18242438501D
:1054A0004F0008F8888888887000203F2000030C8F
:1054B0003020007088080808380000382021212298
:1054C0001C00180808F8080818000000203F2000F9
:1054D000000008F808000008F808001F202020201D
:1054E0001F000878880000C83808000007380E013F
:1054F0000000F80800F80008F800033C0700073C2B
:105500000300081868808068180820302C03032CDA
:1055100030200838C800C83808000000203F2000AC
:10552000000010080808C83808002038262120206C
:105530001800000000FE020202000000007F404050
:105540004000000C30C000000000000000010638E0
:10555000C00000020202FE000000004040407F0048
:10556000000000000402020204000000000000002D
:10557000000000000000000000008080808080802B
:105580008080000202040000000000000000000013
:105590000000000080808080000000192422222268
:1055A0003F2008F8008080000000003F11202011FB
:1055B0000E000000008080800000000E11202020DE
:1055C0001100000000808088F800000E11202010DB
:1055D0003F200000808080800000001F22222222C5
:1055E0001300008080F0888888180020203F202049
:1055F00000000000808080808000006B9494949371
:10560000600008F8008080800000203F210000201A
:105610003F2000809898000000000020203F2020BC
:105620000000000000809898000000C08080807F0B
:10563000000008F8000080808000203F24022D3008
:105640002000000808F8000000000020203F202073
:1056500000008080808080808000203F20003F20EC
:10566000003F8080008080800000203F21000020DB
:105670003F200000808080800000001F202020202C
:105680001F00808000808000000080FFA12020118A
:105690000E000000008080808000000E112020A0FD
:1056A000FF80808080008080800020203F212000BB
:1056B00001000000808080808000003324242424A6
:1056C0001900008080E0808000000000001F202082
:1056D00000008080000000808000001F202020103B
:1056E0003F20808080000080808000010E3008060E
:1056F000010080800080008080800F300C030C301F
:105700000F0000808000808080000020312E0E314C
:105710002000808080000080808080818E7018064C
:10572000010000808080808080000021302C2221B8
:10573000300000000000807C020200000000003FFA
:1057400040400002027C800000000040403F00001A
:10575000000000000000FF00000000000000FF004B
:105760000000010200FE0222DA060808F8898E888D
:105770008888080000000000000000000000000011
:105780000000000000000000000000000000000019
:105790000000000000000000000000000000000009
:1057A00000000000000000000000000000000000F9
:1057B00000000000000000000000000000000000E9
:1057C00000000000000000000000000000000000D9
:1057D00000000000000000000000000000000000C9
:1057E00000000000000000000000000000000000B9
:1057F00000000000000000000000000000000000A9
:105800000000000000000000000000000000000098
:105810000000000000000000000000000000000088
:105820000000000000000000000000000000000078
:105830000000000000000000000000000000000068
:105840000000000000000000000000000000000058
:105850000000000000000000000000000000000048
:1058600000000000FF0810088740300F0040804013
:105870003F000000000000000000000000000000E9
:105880000000000000000000000000000000000018
:105890000000000000000000000000000000000008
:1058A00000000000000000000000000000000000F8
:1058B00000000000000000000000000000000000E8
:1058C00000000000000000000000000000000000D8
:1058D00000000000000000000000000000000000C8
:1058E00000000000000000000000000000000000B8
:1058F00000000000000000000000000000000000A8
:105900000000000000000000000000000000000097
:105910000000000000000000000000000000000087
:105920000000000000000000000000000000000077
:105930000000000000000000000000000000000067
:105940000000000000000000000000000000000057
:105950000000000000000000000000000000000047
:1059600000000000C038000000FF000040201800C8
:105970000000000000000000000000000000000027
:105980000000000000000000000000000000000017
:105990000000000000000000000000000000000007
:1059A00000000000000000000000000000000000F7
:1059B00000000000000000000000000000000000E7
:1059C00000000000000000000000000000000000D7
:1059D00000000000000000000000000000000000C7
:1059E00000000000000000000000000000000000B7
:1059F00000000000000000000000000000000000A7
:105A00000000000000000000000000000000000096
:105A10000000000000000000000000000000000086
:105A20000000000000000000000000000000000076
:105A30000000000000000000000000000000000066
:105A40000000000000000000000000000000000056
:105A50000000000000000000000000000000000046
:105A60000080814020100C0300030C102040808037
:105A70000000000000000000000000000000000026
:105A80000000000000000000000000000000000016
:105A90000000000000000000000000000000000006
:105AA00000000000000000000000000000000000F6
:105AB00000000000000000000000000000000000E6
:105AC00000000000000000000000000000000000D6
:105AD00000000000000000000000000000000000C6
