:020000040800F2
:100000001805002001010008D91F00085D1900082B
:10001000D51F000875010008C9260008000000006F
:10002000000000000000000000000000BD260008E5
:100030007104000800000000B9260008C12600086D
:100040001B0100081B0100081B0100081B01000820
:100050001B0100081B0100081B0100081B01000810
:100060001B0100081B0100081B0100081B01000800
:100070001B0100081B0100081B0100081B010008F0
:100080001B0100081B0100081B0100081B010008E0
:100090001B0100081B0100081B0100081B010008D0
:1000A0001B0100081B0100081B0100081B010008C0
:1000B0001B0100081B0100081B0100081B010008B0
:1000C0001B0100081B0100081B0100081B010008A0
:1000D0001B0100081B0100081B0100081B01000890
:1000E0001B0100081B0100081B010008DFF80CD0F1
:1000F00000F02EF8004800474D29000818050020A0
:100100000648804706480047FEE7FEE7FEE7FEE7B1
:10011000FEE7FEE7FEE7FEE7FEE7FEE7C52600088E
:10012000ED00000830B50B460146002020220124D6
:1001300009E021FA02F59D4205D303FA02F5491BB5
:1001400004FA02F52844151EA2F10102F1DC30BDCB
:10015000064C074D06E0E06840F0010394E8070014
:1001600098471034AC42F6D3FFF7C4FF0857000895
:1001700028570008FEE70000B0B584B040F6000440
:10018000C4F2010400208021CDE90200CDE9001075
:100190006946204600F0B6F92046802100F0C0FAFA
:1001A00090B100200546012000F07EF92046802114
:1001B00000F0B6FA18B1632D05F10100F2D3622DFB
:1001C00002D9012004B0B0BD2046802100F0A8FA79
:1001D00010B1002004B0B0BD002000BF05460120D2
:1001E00000F062F92046802100F09AFA18B9632DD8
:1001F00005F10100F2D30020622D88BF012004B078
:10020000B0BD0000B0B540F60004C4F201042046C1
:10021000802100F085FA68B1002500BF012000F0C0
:1002200043F92046802100F07BFA18B1632D05F1D7
:100230000105F3D32046802100F072FA60B9002551
:10024000012000F031F92046802100F069FA18B948
:10025000632D05F10105F3D3282000F025F9204690
:10026000802100F05DFA002818BF0120B0BD000019
:100270002DE9F04F87B0044600200590802040F61D
:10028000000703900320C4F201078A460126069066
:1002900003A93846049600F035F93846802100223B
:1002A00000F044FA142000F0EBF8384680210122D7
:1002B00000F03CFA1E2000F0F7F8FFF75DFF18B1E0
:1002C000304607B0BDE8F08F0194FFF79BFF06466C
:1002D000FFF798FF400040EA8604FFF793FF44EAE7
:1002E0000005FFF78FFF0646FFF78CFF0746FFF775
:1002F00089FF0446F00040EA870040EA0515FFF751
:1003000081FF40EA440040EA0504FFF77BFF40EA32
:1003100044000290FFF776FF0446FFF773FF4000AA
:1003200040EA8404FFF76EFF44EA0005FFF76AFF26
:100330000446FFF767FF0646FFF764FF0746E00045
:1003400040EA860040EA0514FFF75CFF40EA4700F8
:100350000443FFF757FF40EA440BFFF753FF0446FF
:10036000FFF750FF400040EA8404FFF74BFF44EAE8
:100370000005FFF747FF0446FFF744FF0646FFF777
:1003800041FF0746E00040EA860040EA0514FFF717
:1003900039FF40EA47000443FFF734FF40EA4408CE
:1003A000FFF730FF0446FFF72DFF400040EA8404CA
:1003B000FFF728FF44EA0005FFF724FF0446FFF794
:1003C00021FF0646FFF71EFF0746E00040EA8600D1
:1003D00040EA0514FFF716FF40EA47000443FFF721
:1003E00011FF40EA4409FFF70DFF0446FFF70AFF3B
:1003F000400040EA8404FFF705FF44EA0005FFF7E8
:1004000001FF0446FFF7FEFE0646FFF7FBFE074628
:10041000E00040EA860040EA0514FFF7F3FE40EAF8
:1004200047000443FFF7EEFE40EA440302985FFAF8
:100430008BF1C0B20A185FFA88F717445FFA89F2A5
:100440001744DBB29F420DD141EA00200199AAF87E
:10045000000042EA082000260880304607B0BDE8C8
:10046000F08F00BF0026304607B0BDE8F08F0000D7
:1004700070470000EFF3108072B600BFFEE7000087
:10048000B0B5044600F058F9054640F20400C2F247
:1004900000000078611C18BF044400BF00F04CF954
:1004A000401BA042FAD3B0BDB0B540F284046FF057
:1004B0000501C2F20004081A216885B220464D6287
:1004C00000F044FF4FF6F970854213D820684FF6CC
:1004D000FA7100BF426A92B28A420BD2426A92B269
:1004E0008A4207D2426A92B28A4203D2426A92B2E6
:1004F0008A42EFD340F28400C2F20000BDE8B0406F
:1005000000F058BF2DE9F04F82B00E68002E00F0C9
:10051000038141F20042C4F20102042340F2004E82
:10052000904208BF03234FF6FF7CC4F2010E0093F4
:1005300000240123C1F2100C4FF0000A4FF0000913
:1005400049E000BF012704F00C030F229A402BEA78
:10055000020207FA03F34FEA9A051A4346F82520E8
:10056000D1F804B040F20C455FEACB22DEF8082057
:1005700054BF22EA080242EA0802C4F20105CEF89A
:1005800008202A685FEA8B2354BF22EA080242EA65
:1005900008022A605FEA8B33DEF8042054BF22EAA7
:1005A000080242EA08025FEACB33CEF80420DEF804
:1005B00000204FF0010354BF22EA080242EA080279
:1005C000CEF800200E680AF1010A36FA0AF204F1A8
:1005D000040400F0A18003FA0AF816EA080FF1D02B
:1005E0004E68664512DC122E56D8DFE806F0350B51
:1005F0004549555555555555555555555555554DCF
:10060000510000BFD1F80C9046E000BF4FF6FF72DA
:10061000C1F2210296420FDC0022C1F21102964281
:100620001AD00022C1F21202964215D00022C1F265
:100630002102964210D02FE00022C1F222029642FF
:100640000AD00022C1F23102964205D00022C1F246
:100650003202964220D100BF8A684AB1012A14BFF3
:10066000C0F81480C0F810804FF0080914E000BFF3
:100670004FF0040910E000BFCA6802F108090BE05E
:100680004FF0000908E000BFCA6802F1040903E066
:10069000CA6802F10C0900BF22460646BAF1080FEB
:1006A00024BF203A043637680F25954027EA050510
:1006B00009FA02F22A433260CA79D2067FF582AF84
:1006C00041F21803C4F202031A68AEF57E7642F0D6
:1006D00001021A601A6802F001020192019A2AF0DE
:1006E000030256F802B040F60002C4F20102904242
:1006F00010D040F60042C4F2010290423FF422AF13
:1007000041F20002C4F20102009F904208BF02279A
:1007100019E700BF002716E702B0BDE8F08F000020
:100720008068084018BF012070470000002A08BFF9
:10073000090401617047000040F21410C2F2000089
:100740000068704770B5B8B3044690F83D0028B90A
:10075000002084F83C00204600F05CF9242084F856
:100760003D002068016821F001010160016841F449
:1007700000410160016821F40041016000F000FBCC
:1007800048F28041C0F21E0140F60013D4F804E0A4
:1007900088424FF00001C0F23D0348F2A16C4FF0D7
:1007A000000238BF01219842C0F2010C38BF01227B
:1007B000E64538BF0A460AB1012070BD4DF6836197
:1007C000C4F21B31A0FB01122168950C4B684FF459
:1007D000967623F03F0343EA9243754344F6D3569B
:1007E0004B60C1F262060B6AA5FB0656B50923F001
:1007F0003F03E64538BF950C6A1C1A430A62CA6972
:1008000048F2A0664CF6FF73C0F20106B64522EA34
:1008100003020BD801384FEA4E03B0FBF3F001306E
:100820006FF31F30042898BF04201EE0A36801382E
:1008300063B119230EFB03F3B0FBF3F001306FF348
:100840001F3078B100F5804008E000BF0EEB4E038A
:10085000B0FBF3F001306FF31F3028B100F500401A
:1008600003E000BF012000E001201043C8610868D8
:10087000D4E9072320F0C0001043184308608868BB
:1008800048F2FF3204F10C0690434CCE184310435B
:10089000A5698860C86820F0FF0030432843C8601D
:1008A000086840F00100086000202021206484F8DE
:1008B0003D10206384F83E0070BD00002DE9F04338
:1008C00083B0994616460F460446FFF735FF94F865
:1008D0003D10202920D10546206800BF8169890785
:1008E00016D5FFF729FF411B20681A29F6D3816925
:1008F0008907F3D500202021206384F83D1084F877
:100900003E00216C41F02001216484F83C0003E0AA
:1009100094F83C10012903D1022003B0BDE8F08314
:10092000012284F83C200368DDE90B180A9ADB07F2
:1009300003D1036843F001030360036823F40063F9
:100940000360212084F83D00402084F83E00002010
:10095000206462626185608D394620850020CFF673
:10096000FF70E062204632464B46CDF8008001958C
:1009700000F0F6FF20B1012003B0BDE8F08300BF16
:10098000208D98B9204641462A4601F04DF888B39B
:10099000206C0428EFD12068016841F400710160E7
:1009A000012003B0BDE8F0830004EBD020464146AF
:1009B0002A4601F0F3F90028EAD1616A2268084664
:1009C00010F8013B1361238D6062581E2085678DEE
:1009D000013F678557697F07E6D50704E4D048786B
:1009E0001061881C6062981E2085618D01396185C7
:1009F000DAE700BF2068016841F40071016020203F
:100A000084F83D00002084F83E0084F83C0003B0E8
:100A1000BDE8F08310B586B045F200410068C4F22D
:100A2000000100228842049202D006B010BD00BF2F
:100A300041F21804C4F20204206840F0080020606B
:100A4000206800F0080001900198C0200290122058
:100A500003900320059001F5384002A9FFF752FDED
:100A6000606840F400106060606800F4001001905D
:100A7000019806B010BD000040F2040040F21411CD
:100A8000C2F20000C2F2000100780A681044086057
:100A90007047000080B542F20000C4F20200016815
:100AA00041F010010160032000F07AF80F2000F0FF
:100AB00005F800F027F8002080BD000070B540F276
:100AC0000406C2F2000640F228013278C2F20001A8
:100AD0004FF47A730968B3FBF2F20446B1FBF2F10A
:100AE000084600F04FFB0F2C4FF0010508D838B92D
:100AF0004FF0FF3021460022002500F025F87460F9
:100B0000284670BD82B041F21800C4F202000168AC
:100B1000022241F001010160016801F0010101912F
:100B20000199416841F080514160406800F0805077
:100B3000009000980420C4F20100016862F31A6179
:100B4000016002B07047000010B54EF60C5CCEF2AA
:100B5000000CDCF80030C3F3022E8EF00704042CE6
:100B600028BF0424BEF103034FF0FF3E0EFA04F445
:100B700038BF0023A14399400EFA03F39A4311436F
:100B800000F00F0200F160430901043A03F56443E9
:100B90006244002848BF02F10C03197010BD000028
:100BA0004EF60C51CEF200010A684FF6FF031A40D0
:100BB00060F30A2242F0806040F0FD7008607047E8
:100BC0002DE9F04381B0002800F0858042F2000852
:100BD000C4F202080446D8F800000D4600F00700F1
:100BE00088420CD2D8F8000020F007002843C8F84B
:100BF0000000D8F8000000F00700A8426BD1206880
:100C000041F204098107C4F2020917D5410705D54D
:100C1000D9F8001041F4E061C9F80010010705D5CA
:100C2000D9F8001041F46051C9F80010D9F800104B
:100C3000A26821F0F0011143C9F80010C00741D1AA
:100C4000D8F8000000F00700A8420CD9D8F800003E
:100C500020F007002843C8F80000D8F8000000F092
:100C60000700A84237D12068410707D5D9F80010FE
:100C7000E26821F4E0611143C9F80010000708D5CB
:100C8000D9F80000216920F4605040EAC100C9F899
:100C90000000D9F8002002F00C00082841F20020E2
:100CA000C0F27A0050D145F2F863C2F38341C0F636
:100CB0000003595CD2033BD440F60010C0F23D0063
:100CC000484341E0606802280AD001282AD159F837
:100CD000041C890308D4012001B0BDE8F08300BFE3
:100CE00059F8041C8901F6D5D9F8001021F0030148
:100CF0000843C9F80000FFF71FFD064641F2883798
:100D0000D9F80000616800F00C00B0EB810F97D0BB
:100D1000FFF712FD801BB842F2D9032001B0BDE8F5
:100D2000F08300BF59F8041C8907D4D5DCE700BF65
:100D3000D9F8002043F21673C2F34042C0F6000314
:100D40009A5C4843B0FBF2F0D9F8001042F6F66224
:100D5000C1F30311C0F60002515C40F2280220FAF0
:100D600001F140F20800C2F200000068C2F2000285
:100D70001160FFF7A3FE002001B0BDE8F083000082
:100D800040F2280041F20401C2F20000C4F2020164
:100D90000068096842F60672C1F30221C0F600023B
:100DA000515CC8407047000040F2280041F2040145
:100DB000C2F20000C4F202010068096842F606723D
:100DC000C1F3C221C0F60002515CC8407047000068
:100DD0002DE9F04182B0002868D00446007841F245
:100DE0000006C007C4F2020625D0706800F00C00AF
:100DF00004281BD0706800F00C00082802D170682D
:100E0000C00313D46068002800F06881B0F5A02FFB
:100E100000F07C81B0F5803F00F07C81306820F4E8
:100E200080303060306820F4802076E130688003C4
:100E300001D56068D0B32078800718D5706810F0AD
:100E40000C0F07D0706800F00C0008286ED1706895
:100E5000C0036BD43068800702D52069012825D1F2
:100E60003068616920F0F80040EAC1003060207805
:100E700000071FD42078400732D4E56995B1706827
:100E800000F00C00082840F08F80012D0ED0706813
:100E9000216A00F480328A4208D1616A00F470103D
:100EA000884203D1002002B0BDE8F081012002B0E9
:100EB000BDE8F081A069002862D00020C4F2422081
:100EC0000121C0F88014FFF737FC0546706A8007DF
:100ED00000F18C80FFF730FC401B0228F6D92AE194
:100EE000F06910F0805808D1F06940F08050F0614E
:100EF000F06900F080500090009847F20007C4F2BB
:100F000000073868C00529D4386840F4807038601C
:100F1000FFF712FC054600BF3868C0051ED4FFF776
:100F20000BFC401B6428F7D905E100BF20690028AD
:100F300040F20000C4F2422000F0828001210160F2
:100F4000FFF7FAFB054600BF306880073FF588AF22
:100F5000FFF7F2FB401B0228F6D9ECE0E06800281E
:100F600000F08080052800F09780012800F098802C
:100F7000306A20F001003062306A20F0040092E014
:100F80000020C4F242200021C0F88014FFF7D4FBF7
:100F9000054600BF706A80077FF56CAFFFF7CCFB9A
:100FA000401B0228F6D9C6E00027C4F242270020E1
:100FB0003866FFF7C1FB022D05460BD13068800172
:100FC00040F1BE80FFF7B8FB401B02284FF0030042
:100FD000F4D968E7306880017FF564AFFFF7ACFBB8
:100FE000401B02284FF00300F4D95CE740F22800D0
:100FF000C2F20000006844F6D351C1F26201A0FBC6
:101000000101480A019000BF00BF0198411E00285D
:1010100001913FF42FAF00BF0198411E00280191BC
:101020003FF428AF00BF0198411E002801913FF412
:1010300021AF00BF0198411E00280191E4D119E7BA
:1010400000210160FFF778FB054600BF306880078C
:101050007FF50DAFFFF770FB401B02284FF0030038
:10106000F4D920E7306A20F001003062306A20F0C5
:1010700004003062FFF760FB054641F2883700BF8D
:10108000306A800720D5FFF757FB401BB8424FF06E
:101090000300F5D907E700BF306A40F00400306272
:1010A000306A40F001003062FFF746FB054641F22E
:1010B000883700BF306A800706D4FFF73DFB401B2E
:1010C000B842F7D937E000BFB8F1000F7FF4D5AED2
:1010D000F06920F08050F061CFE600BF306820F466
:1010E00080303060306820F480203060FFF724FBCF
:1010F000054600BF306880037FF59DAEFFF71CFBFF
:10110000401B64284FF00300F4D9CCE6306840F46B
:1011100080203060306840F480303060FFF70CFB96
:10112000054600BF306880033FF585AEFFF704FB3E
:10113000401B6428F6D9032002B0BDE8F08100BF4F
:10114000206AB0F5803F05D17168A26821F40031B2
:10115000114371607168626A21F47411114308438C
:10116000706001203866FFF7E7FA044630688001B6
:101170003FF598AEFFF7E0FA001B02284FF003009E
:10118000F4D990E6411E0020B0EB116F1CBF012086
:1011900070474EF21002CEF2000251604EF623511B
:1011A000CEF20001F0230B700721906011607047B0
:1011B00010B590F83C20012A4FF0020233D080F89D
:1011C0003D200268D2F804E0D2F808C00C682EF086
:1011D0007003234340F2FF74C4F20004A242536040
:1011E0000ADCB2F1804F13D040F20043C4F2000396
:1011F0009A420DD011E000BF42F60043C4F2010351
:101200009A4205D040F60003C4F200039A4204D18A
:1012100049682CF08003194391600121002280F875
:101220003D1080F83C20104610BD0000002804BF8F
:101230000120704710B5044690F83D0028B9002001
:1012400084F83C00204600F067F8022084F83D0056
:10125000206840F2FF730268C4F2000342F6004CBB
:101260009842C4F2010C15DCB0F1804F1AD040F264
:101270000041C4F20001884214D0984218DCB0F159
:10128000804F1DD040F20041C4F20001884217D0C7
:101290001AE000BF604505D040F60001C4F200012D
:1012A0008842EAD1A16822F070020A439842E6DD42
:1012B000604505D040F60001C4F20001884203D128
:1012C000216922F440720A43A36922F08001D4F814
:1012D00004E0E268194360450160C262C0F828E09A
:1012E00002D16169CCF8301001214161002084F8FD
:1012F000461084F83E1084F83F1084F8401084F8BB
:10130000411084F8421084F8431084F8441084F8A3
:10131000451084F83D1010BD81B0006842F60041D0
:10132000C4F20101884201D001B0704741F21800B7
:10133000C4F20200016841F400610160006800F439
:1013400000600090009801B07047000090F83D10D8
:1013500001291CBF01207047022180F83D10006860
:1013600040F2FF71C4F20001884209DCB0F1804F05
:1013700012D040F20041C4F2000188420CD012E0C9
:1013800042F60041C4F20101884205D040F6000156
:10139000C4F20001884206D1816801F007010629E4
:1013A00004BF00207047016841F001010160002086
:1013B000704700000146006841F21113026A1A42A8
:1013C00004D00122002081F83D207047026A40F2DB
:1013D00044431A42F5D1026822F001020260012260
:1013E000002081F83D20704780B590F83C20012A0C
:1013F0004FF0020200F0C28080F83D20D0F800C01B
:101400004FF67772DCF8083023EA0202CCF80820A5
:101410000B684F2B28DC1F2B44DD202B45D0302BB5
:1014200043D0402B40F0AC80D1F804E0C968DCF830
:101430002030DCF8202022F00102CCF82020DCF85B
:10144000182022F0F00242EA011123F00A0242EAD7
:101450000E02CCF81810CCF82020DCF8081041F06F
:10146000470121F0300180E06F2B27DDB3F5005FED
:1014700048D0B3F5805F7AD0702B40F08180D1E9FD
:1014800001E3C968DCF8082043EA0E0322F47F4236
:1014900043EA01211143CCF80810DCF8081041F0B0
:1014A000770162E00BB1102B6AD1DCF8081021F053
:1014B0007001194341F0070157E000BF502B35D0B0
:1014C000602B5DD1D1F804E0C968DCF82030DCF88D
:1014D000202022F01002CCF82020DCF8182022F482
:1014E000704242EA013123F0A00242EA0E12CCF827
:1014F0001810CCF82020DCF8081041F0670121F02A
:10150000100132E0D1E901E3C968DCF8082043EAC0
:101510000E0322F47F4243EA01211143CCF8081064
:10152000DCF8081041F480411FE000BFD1F804E06E
:10153000C968DCF82030DCF8202022F00102CCF869
:101540002020DCF8182022F0F00242EA011123F0FA
:101550000A0242EA0E02CCF81810CCF82020DCF87F
:10156000081041F0570121F02001CCF808100022AA
:10157000012180F83D10002180F83C10104680BD0C
:101580000122F5E7002804BF0120704710B504468A
:1015900090F8410028B9002084F84000204600F06F
:1015A00063F8242084F841002068D4E90212C3685B
:1015B00023F40053C360036923F440531A430261C8
:1015C000D4E904231143C268194341F20C639A43DE
:1015D0001143C1604169A26921F44071114343F68E
:1015E0000002C4F201029042416103D0FFF7C8FB40
:1015F00002E000BFFFF7D8FB626819214843910061
:10160000B0FBF1F048F21F51C5F2EB11A0FB012332
:101610005A094FF69C73C0F6FF7302FB0300322396
:1016200003EB0010A0FB0101F02303EA5113206833
:1016300003EB0212C1F3431111448160016921F4EB
:1016400090410161416921F02A014161C16841F481
:101650000051C16000202021606484F8411084F8AA
:101660004210606310BD000070B586B040F6000403
:10167000C4F20104006804F5405100268842049633
:1016800002D006B070BD00BF41F21800C4F20200E3
:10169000016802AD41F480410160016801F48041BC
:1016A00001910199016841F0040101600068294637
:1016B00000F00400019001984FF4007002900220A5
:1016C0000390032005902046FEF71CFF4FF4806036
:1016D000CDE90206204629460496FEF713FF06B020
:1016E00070BD00002DE9F04381B0044690F8410040
:1016F000202840F0B180884600294FF0010000F01A
:10170000D6801646002A00F0D28000206064212096
:101710001D4684F84100FFF70FF8A684E684A1680F
:101720000646B1F5805F03D12069002800F098805B
:1017300047464FF00008E18C2068002900F09680B1
:1017400005F101090BE000BF47B317F8011B416029
:10175000E18C0139E184E18C002900F08780016887
:101760000906F1D4B9F1000F0AD0EDB1FEF7E4FF9C
:10177000801BA84218D8206801680906F6D5E3E75F
:1017800001680906E0D4016809065CBF01685FEAE8
:101790000161D9D401680906F2D5D5E738F8021BF2
:1017A00000276FF35F21D2E7206850E8030F21681C
:1017B00020F4D07041E80302BAB3206850E8030F68
:1017C000216820F4D07041E8030272B3206850E829
:1017D000030F216820F4D07041E803022AB3206887
:1017E00050E8030F216820F4D07041E80302002A7A
:1017F000DAD11AE0206850E8050F216820F00100D6
:1018000041E80502DAB1206850E8050F216820F0B0
:10181000010041E8050292B1206850E8050F2168F7
:1018200020F0010041E805024AB1206850E8050FA8
:10183000216820F0010041E80502002ADAD12020C9
:1018400084F8410084F84200002084F8400003201E
:1018500001B0BDE8F08300BF022001B0BDE8F08315
:101860000027E18C206800297FF46AAF01684906EF
:1018700019D4FDB1691C0DD10168490613D4016862
:1018800049065CBF01685FEA41610CD40168490602
:10189000F2D508E0FEF750FF801BA8420AD8206866
:1018A00000684006F6D5202084F84100002001B0F1
:1018B000BDE8F083206850E8030F216820F4D07061
:1018C00041E80302002A3ED0206850E8030F216857
:1018D00020F4D07041E80302AAB3206850E8030F57
:1018E000216820F4D07041E8030262B3206850E818
:1018F000030F216820F4D07041E80302002AD9D1F7
:1019000021E000BF206850E8050F216820F00100A9
:1019100041E80502002A3FF492AF206850E8050F25
:10192000216820F0010041E80502002A3FF487AF5A
:10193000206850E8050F216820F0010041E8050209
:10194000002A3FF47CAF206850E8050F216820F0A2
:10195000010041E80502002AD4D170E7FEE700004B
:101960002DE9F04383B0044600680D4601680A9FE4
:101970000B9E41F4807199469046016020464FF0DD
:10198000011100223B46009600F0AEF850B12068ED
:101990000068C00544BF4FF400702064032003B00A
:1019A000BDE8F083206805F0FE0101610221C0F26C
:1019B000010120463A46334600F080F920B101206B
:1019C00003B0BDE8F08300BF0020029020683246DB
:1019D000416902918069394602900298204600F0E0
:1019E000DDF958B1206C0428E9D12068016841F480
:1019F00000710160012003B0BDE8F0832068B9F1F7
:101A0000010F0AD04FEA18210161204639463246BB
:101A100000F0C4F90028E5D120685FFA88F101617F
:101A2000002003B0BDE8F08370B50368044653F8A6
:101A3000140F400711D40E46481C29D086BB00BFA6
:101A40001868400527D4FEF777FE236853F8140F73
:101A5000400739D518684007F2D5002070BD00BF97
:101A600018684007F9D41868400514D4186840076E
:101A7000F3D4186840050ED418684007EDD41868F0
:101A8000400508D4186840074FF0000048BF70BDFB
:101A900018684005E4D56FF480601860042014E0F5
:101AA000154603E053F8140F4007D6D418684005D4
:101AB000F1D4FEF741FE401B2368B042F2D95869C9
:101AC0004007EFD4202000E02020002120222163C5
:101AD00084F83D2084F83E10226C104320640120DD
:101AE00084F83C1070BD00002DE9F0410546006807
:101AF0001E46144601F47F0201338FB242D0DDF856
:101B00001880B2F5803F40F0878040693840C01BA4
:101B1000B0FA80F04009A04240F0C8804EB924E0FD
:101B200040693840C01BB0FA80F04009A04240F044
:101B3000BD80FEF701FEA0EB08012868B142EFD995
:101B400041693940C91BB1FA81F14909A142E7D184
:101B50009BE000BF40693840C01BB0FA80F04009EC
:101B6000A0424FF0000040F0A680FEF7E5FD286897
:101B700041693940C91BB1FA81F14909A142E9D152
:101B800083E000BFB2F5803F24D100BF41693940F6
:101B9000C91BB1FA81F14909A14240F0878041692E
:101BA0003940C91BB1FA81F14909A14240F07E8058
:101BB00041693940C91BB1FA81F14909A14275D186
:101BC00041693940C91BB1FA81F14909A142DDD00F
:101BD0006CE000BF81693940C91BB1FA81F1490944
:101BE000A14263D181693940C91BB1FA81F1490928
:101BF000A1425BD181693940C91BB1FA81F1490920
:101C0000A14253D181693940C91BB1FA81F1490917
:101C1000A142DFD04AE000BF80693840C01BB0FA63
:101C200080F04009A04241D146B923E080693840A4
:101C3000C01BB0FA80F04009A0423BD1FEF77CFD0A
:101C4000A0EB08012868B142F0D981693940C91B6D
:101C5000B1FA81F14909A142E8D116E08069384022
:101C6000C01BB0FA80F04009A0424FF0000018BF3E
:101C7000BDE8F081FEF760FD286881693940C91B25
:101C8000B1FA81F14909A142E8D10020202128635D
:101C900085F83D1085F83E00296C41F0200129644B
:101CA00085F83C000120BDE8F08100BF0020BDE8C0
:101CB000F08100BF0020BDE8F0810000F0B581B0E8
:101CC000044600681D4643698FB203EA0701B94222
:101CD00002D1002001B0F0BD41691646013201F485
:101CE000806125D0002940D1CEB100BFFEF724FD90
:101CF000411B2068B14203D941693940B9424BD1F7
:101D000041693940B942E4D041694905EED52CE03A
:101D100041693940B942DCD04169490525D4FEF713
:101D20000BFD206841693940B942F1D0202024E000
:101D3000D9B941693940B942CBD04169490514D478
:101D400041693940B942C4D0416949050DD441695E
:101D50003940B942BDD04169490506D4416939408D
:101D6000B942B6D041694905E3D5016841F4007133
:101D700001606FF480614161042000212022216311
:101D800084F83D2084F83E10226C1043206484F8CF
:101D90003C10012001B0F0BD2020EEE770B50368D3
:101DA000044653F8140F000611D40E46481C29D0DF
:101DB00086BB00BF1868400527D4FEF7BDFC23682A
:101DC00053F8140F000639D518680006F2D5002024
:101DD00070BD00BF18680006F9D41868400514D417
:101DE00018680006F3D4186840050ED41868000679
:101DF000EDD41868400508D4186800064FF00000BC
:101E000048BF70BD18684005E4D56FF48060186065
:101E1000042014E0154603E053F8140F0006D6D44E
:101E200018684005F1D4FEF787FC401B2368B042D8
:101E3000F2D958690006EFD4202000E020200021CC
:101E40002022216384F83D2084F83E10226C104348
:101E50002064012084F83C1070BD0000B0B584B04F
:101E600041F21800C4F20200016840F6000441F09B
:101E7000100101600168C4F2010401F01001009139
:101E800000990168002241F020010160016880256D
:101E900001F0200100910099016841F00401016006
:101EA000016801F0040100910099016841F0080106
:101EB00001600068802100F0080000900098204632
:101EC000FEF734FC0120CDE90100032003906946B0
:101ED00020460095FEF716FB04B0B0BD80B540F279
:101EE000300045F20041C2F20000C4F2000148F2A5
:101EF000A06200234FF4804CC0F2010280E80E0083
:101F0000C0E9033CC0E90533C0E90733FEF71AFC1A
:101F1000002808BF80BDBDE88040FEF7ABBA0000D6
:101F200080B586B040F2840042F600420021C2F241
:101F30000000C4F2010247234FF6FF7C0591CDE972
:101F40000311CDE90011C0E90023C0E9021CC0E97A
:101F500004118161FFF76AF9002818BFFEF78AFAB9
:101F60004FF48050029040F28400C2F2000002A9B7
:101F7000FFF73AFA002818BFFEF77CFA40F2840017
:101F8000C2F200006946FFF713F9002818BFFEF7F8
:101F900071FA06B080BD000080B540F2CC0043F677
:101FA0000001C2F20000C4F2010100234FF00C0C4A
:101FB0004FF4165280E80E00C0E90333C0E905C3B0
:101FC000C361FFF7DFFA002808BF80BDBDE880408D
:101FD000FEF750BAFEE70000FEE700002DE9F04FE3
:101FE00085B040F2300400254FF480760127C2F21C
:101FF00000040DF1120B0DF113084FF0000900BFA2
:1020000009F1B0008DF8100004A8CDE900072046C2
:102010007821002201230296FEF750FC0DF11100F9
:10202000CDE9000720467821002201238DF81150C8
:102030000296FEF743FC10208DF81200204678210E
:1020400000220123CDE900B70296FEF737FC4FF0DE
:10205000000A00BF20467821402201238DF813504A
:10206000CDE900870296FEF729FC0AF101004FFA3C
:1020700080FABAF1FF3FEDDCB9F1070F09F1010970
:10208000BED305B0BDE8F08F80B5C820FEF7F8F9E3
:10209000BDE8804000F01ABB2DE9F04F89B040B296
:1020A0000D46A2F12001002820EAE0724FF010074F
:1020B00048BF0235A5F1500047EA121402F00F079D
:1020C000102BCEB240F03A8140F230088DF8180063
:1020D0004FF0010B06A8C2F200084FF48079CDE959
:1020E000000B4046782100220123CDF80890FEF72E
:1020F000E5FB0DF11900CDE9000B404678210022E7
:1021000001238DF81940CDF80890FEF7D7FB0DF1AB
:102110001A00CDE9000B40467821002201238DF8FA
:102120001A70CDF808904FF48079FEF7C7FB43F2A0
:1021300036113001C0F60001085C01EB06168DF87F
:102140001B0005970DF11B07404678214022012313
:10215000CDE9007BCDF80890FEF7B0FB70783179BF
:1021600096F802A0049496F8039003918DF81B0052
:1021700040467821402201234FF48074CDE9007B52
:102180000294FEF79BFB40467821402201234FF446
:1021900080748DF81BA0CDE9007B0294FEF78EFBC6
:1021A00040467821402201238DF81B90CDE9007B29
:1021B0000294FEF783FB039878218DF81B004046BC
:1021C00040220123CDE9007B0294FEF777FB707972
:1021D00078218DF81B00404640220123CDE9007B89
:1021E0000294FEF76BFBB07978218DF81B00404616
:1021F00040220123CDE9007B0294FEF75FFBF079DA
:1022000078218DF81B00404640220123CDE9007B58
:102210000294FEF753FBA5F14F008DF81C0007A8B0
:10222000CDE9000B40467821002201230294FEF7FD
:1022300045FB049878218DF81D000DF11D00CDE9B6
:10224000000B4046002201230294FEF737FB05985D
:1022500078218DF81E000DF11E00CDE9000B4046DF
:10226000002201230294FEF729FB307A0DF11F05AD
:102270008DF81F004046782140220123CDE9005B04
:102280000294FEF71BFB707A78218DF81F00404600
:1022900040220123CDE9005B0294FEF70FFBB07AE8
:1022A00078218DF81F00404640220123CDE9005BD4
:1022B0000294FEF703FBF07A78218DF81F00404668
:1022C00040220123CDE9005B0294FEF7F7FA307B50
:1022D00078218DF81F00404640220123CDE9005BA4
:1022E0000294FEF7EBFA707B78218DF81F004046D0
:1022F00040220123CDE9005B02944FF48074FEF785
:10230000DDFAB07B78218DF81F0040464022012382
:10231000CDE9005B02944FF48074FEF7CFFAF07BB6
:10232000CDE9005B8DF81F00404678214022012353
:102330000294FEF7C3FA09B0BDE8F08F40F2300B0B
:102340008DF820004FF0010A08A8C2F2000B4FF4EC
:102350008078CDE9000A5846782100220123CDF883
:102360000880FEF7ABFA0DF12100CDE9000A5846CE
:102370007821002201238DF82140CDF80880FEF756
:102380009DFA0DF12200CDE9000A5846782100227D
:1023900001238DF82270CDF80880FEF78FFA42F6FF
:1023A0000E7106EB4600C0F6000111F8102001EB9B
:1023B00040058DF823200DF1230658467821402250
:1023C0000123CDE9006ACDF80880FEF777FA687836
:1023D000AF78EC7895F804908DF823005846782172
:1023E00040220123CDE9006ACDF80880FEF766FAA5
:1023F00058467821402201238DF82370CDE9006AE8
:10240000CDF80880FEF75AFA584678214022012379
:102410008DF82340CDE9006ACDF80880FEF74EFA2A
:1024200058467821402201238DF82390CDE9006A97
:10243000CDF80880FEF742FA687978218DF82300FC
:10244000584640220123CDE9006ACDF80880FEF706
:1024500035FA09B0BDE8F08F2DE9F04F87B0064698
:10246000A1F1500040F230058DF81400012705A8B5
:10247000C2F20005144604914FF4807ACDE90007BA
:102480002846782100220123CDF808A0FEF716FA8D
:10249000300900F110080DF11500CDE900072846BC
:1024A0007821002201238DF81580CDF808A0FEF7D1
:1024B00005FA0DF1160006F00F0BCDE900072846CE
:1024C0007821002201238DF816B0CDF808A0FEF780
:1024D000F5F943F21871C4EB0420C0F6000101EBDA
:1024E00040064FF0FF340DF1170900BF3019407856
:1024F00078218DF81700284640220123CDE9009766
:10250000CDF808A0FEF7DAF901341F2CEED10498BB
:1025100040F230044F388DF818004FF0010A06A839
:10252000C2F200044FF48079CDE9000A20467821F8
:1025300000220123CDF80890FEF7C0F90DF1190033
:10254000CDE9000A20467821002201238DF8198068
:10255000CDF80890FEF7B2F90DF11A00CDE9000AA6
:1025600020467821002201238DF81AB0CDF808907A
:10257000FEF7A4F9FE250DF11B0700BF7019407886
:1025800078218DF81B00204640220123CDE9007AF6
:10259000CDF80890FEF792F90135B5F58F7FEDD1B2
:1025A00007B0BDE8F08F00002DE9F04F85B0002B9B
:1025B000049103907CD00E981C464508981E00900C
:1025C00058421746591E4FF000085FFA80FB42F24E
:1025D000107900264FF0000A0291019212E000BF2C
:1025E0000126039940F0300205FB08110E9BC8B28A
:1025F0000499D2B2FFF750FD08F10108A0450AF195
:10260000010A55D06FEA0A00C0B2584502D1012034
:102610002AE000BF00996FEA0800A1EB0801C9B2E7
:10262000032900EB040101D2012009E001F0FC02C2
:10263000002301200433DFB2974200FB09F0F9D1F7
:10264000019F11F003010FD0012903D100EB80009D
:10265000400009E04FF47A72424302294FF06401CE
:1026600008BF00FB01F21046B7FBF0F04CF6CD417D
:10267000CCF6CC41A0FB0112D10801EB8101002E68
:10268000A0EB4100ADD102994145AADD0028A7D1B8
:102690000398049905FB08000E9BC0B22022FFF7A7
:1026A000FBFC002608F10108A0450AF1010AA9D1A6
:1026B00005B0BDE8F08F00007047000070470000D3
:1026C000FEF7DAB970470000FEE70000F0B583B00E
:1026D00040F2300440F20C07C2F200044FF480755F
:1026E0000126C2F200072046782100220123CDE90D
:1026F00000760295FEF7E2F8781CCDE90006204648
:102700007821002201230295FEF7D8F8B81CCDE904
:10271000000620467821002201230295FEF7CEF81C
:10272000F81CCDE9000620467821002201230295FD
:10273000FEF7C4F8381DCDE90006204678210022B6
:1027400001230295FEF7BAF8781DCDE90006204670
:102750007821002201230295FEF7B0F8B81DCDE9DB
:10276000000620467821002201230295FEF7A6F8F4
:10277000F81DCDE9000620467821002201230295AC
:10278000FEF79CF807F10800CDE900062046782105
:10279000002201230295FEF791F807F10900CDE927
:1027A000000620467821002201230295FEF786F8D4
:1027B00007F10A00CDE90006204678210022012316
:1027C0000295FEF77BF807F10B00CDE900062046E5
:1027D0007821002201230295FEF770F807F10C0022
:1027E000CDE9000620467821002201230295FEF75C
:1027F00065F807F10D00CDE900062046782100229A
:1028000001230295FEF75AF807F10E00CDE9000604
:1028100020467821002201230295FEF74FF807F1A8
:102820000F00CDE900062046782100220123029501
:10283000FEF744F807F11000CDE9000620467821A4
:10284000002201230295FEF739F807F11100CDE9C6
:10285000000620467821002201230295FEF72EF87B
:1028600007F11200CDE9000620467821002201235D
:102870000295FEF723F807F11300CDE90006204684
:102880007821002201230295FEF718F807F11400C1
:10289000CDE9000620467821002201230295FEF7AB
:1028A0000DF807F11500CDE9000620467821002239
:1028B00001230295FEF702F807F11600CDE90006A4
:1028C00020467821002201230295FDF7F7FF07F14A
:1028D0001700CDE900062046782100220123029549
:1028E000FDF7ECFF07F11800CDE90006204678213E
:1028F000002201230295FDF7E1FF07F11900CDE960
:10290000000620467821002201230295FDF7D6FF1C
:1029100007F11A00CDE900062046782100220123A4
:102920000295FDF7CBFF03B0F0BD000080B582B08B
:10293000019040F2CC00C2F2000001A901224FF642
:10294000FF73FEF7CFFE019802B080BD92B0002465
:10295000ADF80A40ADF80840FEF79CF80120CDE93B
:102960000D44CDE90B4408900C904FF4E0104FF467
:1029700080310225119008A8CDE90914CDE90F5145
:10298000FEF726FA20B1EFF3108072B6FEE700BF23
:102990000F20CDE903054FF48060CDE9060403A8BC
:1029A00002210594FEF70CF920B1EFF3108072B606
:1029B000FEE700BFFFF752FAFFF7B2FAFFF7ECFAB3
:1029C000FFF78CFAFFF760FBFFF708FB10200021F0
:1029D00000224FF01008FFF73FFD202000210122C8
:1029E000FFF73AFD302000210222FFF735FD40209D
:1029F00000210322FFF730FD502000210422FFF7C1
:102A00002BFD602000210522FFF726FD002002217A
:102A10000622FFF721FD102002210722FFF71CFDEF
:102A2000202002210822FFF717FD30200221092271
:102A3000FFF712FD402002213A221023FFF72CFB62
:102A4000002004210622FFF707FD102004210722A1
:102A5000FFF702FD202004210A22FFF7FDFC3020B1
:102A600004210B22FFF7F8FC402004213A22102316
:102A7000FFF712FB002006210C22FFF7EDFC1020CF
:102A800006210D22FFF7E8FC202006210E22FFF789
:102A9000E3FC302006210F22FFF7DEFC4020062158
:102AA0003A221023FFF7F8FA0DF108090FF2AC0AE9
:102AB0000FF2B40B0DF10A004946FDF7D9FBBDF842
:102AC0000A60BDF80870350A482002212A46022310
:102AD0003C0ACDF80080FFF767FDF6B260200221C6
:102AE00032460123CDF80080FFF75EFD5820022119
:102AF0002E221023FFF7D0FA682002214322102350
:102B0000FFF7CAFA4820042122460223CDF80080AC
:102B1000FFF74AFDFFB2602004213A460123CDF8B9
:102B20000080FFF741FD582004212E221023FFF7DB
:102B3000B3FA6820042125221023FFF7ADFA50468E
:102B40002946324600F016F8584621463A4600F02B
:102B500011F84FF47A70FDF793FCABE7545F2564EE
:102B60002E2531640A000000485F25642E2531645B
:102B70000A0000000FB4054B10B503A9044A0298DF
:102B800000F018F810BC5DF814FB00002D290008B7
:102B90000000002002E008C8121F08C1002AFAD174
:102BA00070477047002001E001C1121F002AFBD1CD
:102BB000704700002DE9FF4F8BB088460546002680
:102BC00006E025280BD0DDE90D1290476D1C761C20
:102BD00028780028F5D10FB03046BDE8F08F0024EA
:102BE000A146A2460122AE4900E0044315F8013F88
:102BF000203B02FA03F00842F7D128782A2810D0A7
:102C00006FF02F022878A0F13001092915D809EBBF
:102C1000890102EB410144F0020400EB01096D1C43
:102C2000F0E758F8041B5FEA010903D544F40054A7
:102C3000C9F1000944F002046D1C28782E2817D130
:102C400015F8010F44F004042A280ED06FF02F026B
:102C50002878A0F1300109290AD80AEB8A0102EB91
:102C6000410100EB010A6D1CF2E758F804AB6D1C42
:102C700028786C280FD006DC4C2817D068280DD097
:102C80006A2814D104E0742810D07A280FD10DE0FE
:102C900044F400140AE044F4801401E044F44014C5
:102CA0006978814202D104F580146D1C6D1C28786E
:102CB000692865D006DC00288DD0632827D06428D9
:102CC00006D15DE06E2808D073282AD0752877D009
:102CD000DDE90D129047761CE0E0C4F302500228B3
:102CE00009D003280DD0D8F8001004280DD00E60AC
:102CF00008F10408D2E0D8F80010F217C1E9006228
:102D0000F6E7D8F800100E80F2E70E70F0E718F83A
:102D1000041B8DF8001000208DF80100EB46012007
:102D200003E058F804BB4FF0FF3061074FF0000795
:102D300001D40AE07F1C57450DDA8742FADB1BF805
:102D400007100029F6D106E07F1C8742FCDB1BF848
:102D500007100029F8D1DDE90D23A9EB0700814612
:102D6000214600F0B1F83044C61904E0DDE90D1247
:102D70001BF8010B90477F1EF8D22146484688E099
:102D800058F8040BC4F302514FF00A0B032900D189
:102D900000B2042900D140B2002802DA40422D21BD
:102DA00002E0210505D52B218DF82410012104E036
:102DB00006E0E10710D02021F6E708AF089113E004
:102DC00058F8040BC4F302514FF00A0B032900D149
:102DD00080B2042900D1C0B20021EEE75946FDF7C8
:102DE000A1F9303107F8011D0028F7D1ADEB07003C
:102DF00000F1200B600702D524F4803401E04FF08D
:102E0000010ADA4502DDAAEB0B0000E00020824651
:102E100000EB0B0108980144A9EB01000A90E003C4
:102E200006D4DDE90D2321460A9800F04DF806444A
:102E30004FF0000908E009A911F80900DDE90D12B9
:102E4000904709F10109761C08998945F3DBE003F5
:102E50000CD5DDE90D2321460A9800F035F806442B
:102E600004E0DDE90D1230209047761CBAF1000134
:102E7000AAF1010AF5DC05E0DDE90D1217F8010BF6
:102E80009047761CBBF10001ABF1010BF4DC0A9812
:102E90002146DDE90D2300F005F806446D1C97E698
:102EA000092801002DE9F041044600251E46174679
:102EB000880404D405E039462020B0476D1C641E08
:102EC000F9D52846BDE8F0812DE9F04104460025FA
:102ED0001E469046C80301D5302700E0202788040D
:102EE00004D505E041463846B0476D1C641EF9D54F
:102EF0002846BDE8F081000000000000000001024B
:102F00000304060708090000000001020304000092
:102F1000000000000000002F000000000700070074
:102F200000147F147F1400242A7F2A120062640890
:102F3000132300364955225000000503000000000D
:102F40001C224100000041221C000014083E08140D
:102F50000008083E0808000000A0600000080808FB
:102F60000808000060600000002010080402003E15
:102F70005149453E0000427F4000004261514946B0
:102F8000002141454B31001814127F1000274545A0
:102F90004539003C4A4949300001710905030036B2
:102FA0004949493600064949291E000036360000C5
:102FB00000005636000000081422410000141414CA
:102FC00014140000412214080002015109060032C5
:102FD0004959513E007C1211127C007F4949493603
:102FE000003E41414122007F4141221C007F49496E
:102FF0004941007F09090901003E4149497A007FA2
:103000000808087F0000417F4100002040413F0147
:10301000007F08142241007F40404040007F020CA6
:10302000027F007F0408107F003E4141413E007F47
:1030300009090906003E4151215E007F0919294610
:103040000046494949310001017F0101003F4040EC
:10305000403F001F2040201F003F4038403F00639A
:1030600014081463000708700807006151494543BC
:1030700000007F41410000552A552A55000041417A
:103080007F00000402010204004040404040000074
:1030900001020400002054545478007F484444380E
:1030A00000384444442000384444487F0038545495
:1030B000541800087E0901020018A4A4A47C007F13
:1030C000080404780000447D4000004080847D00B6
:1030D000007F102844000000417F4000007C04185D
:1030E0000478007C0804047800384444443800FC28
:1030F000242424180018242418FC007C0804040844
:1031000000485454542000043F444020003C4040B8
:10311000207C001C2040201C003C4030403C0044EF
:1031200028102844001CA0A0A07C004464544C44F7
:103130001414141414140000000000000000000017
:10314000000000000000000000F800000000000087
:1031500000333000000000100C06100C06000000C8
:1031600000000000000040C07840C0784000043FEC
:1031700004043F040400007088FC083000000018BC
:1031800020FF211E0000F008F000E01800000021E0
:103190001C031E211E0000F00888700000001E2184
:1031A00023241927211010160E0000000000000033
:1031B000000000000000000000E018040200000011
:1031C00000071820400000020418E0000000004042
:1031D000201807000000404080F0804040000202BC
:1031E000010F01020200000000F0000000000101D8
:1031F000011F01010100000000000000000080B07C
:10320000700000000000000000000000000000014D
:103210000101010101010000000000000000003078
:103220003000000000000000000080601804006012
:1032300018060100000000E010080810E000000F70
:10324000102020100F00001010F8000000000020D7
:10325000203F20200000007008080888700000301F
:1032600028242221300000300888884830000018C7
:10327000202020110E000000C02010F800000007E0
:103280000424243F240000F8088888080800001956
:10329000212020110E0000E0108888180000000F87
:1032A000112020110E0000380808C838080000005E
:1032B000003F000000000070880808887000001CB3
:1032C000222121221C0000E010080810E00000006C
:1032D000312222110F00000000C0C00000000000D9
:1032E00000303000000000000080000000000000FE
:1032F00080600000000000008040201008000001F5
:1033000002040810200040404040404040000404B7
:103310000404040404000008102040800000002081
:10332000100804020100007048080808F0000000BE
:10333000003036010000C030C828E810E00007184F
:10334000272423140B000000C038E0000000203CBC
:1033500023020227382008F8888888700000203F60
:10336000202020110E00C030080808083800071877
:1033700020202010080008F808080810E000203F6E
:10338000202020100F0008F88888E8081000203F4F
:1033900020202320180008F88888E8081000203F23
:1033A000200003000000C03008080838000007189B
:1033B0002020221E020008F808000008F808203F1C
:1033C000210101213F20000808F808080000002022
:1033D000203F2020000000000808F8080800C080F6
:1033E00080807F00000008F888C028180800203F6F
:1033F00020012638200008F8080000000000203FC7
:1034000020202020300008F8F800F8F80800203FBD
:10341000003F003F200008F830C00008F808203FB7
:10342000200007183F00E01008080810E0000F1007
:10343000202020100F0008F808080808F000203F9E
:10344000210101010000E01008080810E0000F1839
:10345000242438504F0008F8888888887000203F5E
:103460002000030C3020007088080808380000385D
:10347000202121221C00180808F808081800000064
:10348000203F2000000008F808000008F808001F8E
:10349000202020201F000878880000C8380800007D
:1034A00007380E010000F80800F80008F800033C97
:1034B0000700073C0300081868808068180820305F
:1034C0002C03032C30200838C800C838080000003E
:1034D000203F2000000010080808C83808002038E5
:1034E000262120201800000000FE02020200000039
:1034F000007F40404000000C30C000000000000091
:1035000000010638C00000020202FE000000004078
:1035100040407F000000000004020202040000009E
:10352000000000000000000000000000000080809B
:103530008080808080800002020400000000000083
:103540000000000000000000808080800000001962
:10355000242222223F2008F8008080000000003F43
:10356000112020110E000000008080800000000E5D
:10357000112020201100000000808088F800000E3B
:10358000112020103F200000808080800000001F5C
:10359000222222221300008080F0888888180020D0
:1035A000203F202000000000808080808000006B91
:1035B00094949493600008F8008080800000203F7D
:1035C000210000203F20008098980000000000208B
:1035D000203F20200000000000809898000000C0DC
:1035E0008080807F000008F8000080808000203FFD
:1035F00024022D302000000808F800000000002000
:10360000203F202000008080808080808000203F3C
:1036100020003F20003F8080008080800000203F0D
:10362000210000203F200000808080800000001FDB
:10363000202020201F00808000808000000080FF6C
:10364000A12020110E000000008080808000000E6C
:10365000112020A0FF8080808000808080002020BA
:103660003F21200001000000808080808000003326
:10367000242424241900008080E0808000000000C1
:10368000001F202000008080000000808000001FBC
:10369000202020103F20808080000080808000015A
:1036A0000E300806010080800080008080800F308E
:1036B0000C030C300F000080800080808000002010
:1036C000312E0E312000808080000080808080813B
:1036D0008E701806010000808080808080000021AC
:1036E000302C2221300000000000807C020200000B
:1036F0000000003F40400002027C800000000040CB
:10370000403F0000000000000000FF00000000003B
:103710000000FF000000010200FE0222DA06080895
:10372000F8898E88888808000000000000000000EA
:103730000000000000000000000000000000000089
:103740000000000000000000000000000000000079
:103750000000000000000000000000000000000069
:103760000000000000000000000000000000000059
:103770000000000000000000000000000000000049
:103780000000000000000000000000000000000039
:103790000000000000000000000000000000000029
:1037A0000000000000000000000000000000000019
:1037B0000000000000000000000000000000000009
:1037C00000000000000000000000000000000000F9
:1037D00000000000000000000000000000000000E9
:1037E00000000000000000000000000000000000D9
:1037F00000000000000000000000000000000000C9
:1038000000000000000000000000000000000000B8
:103810000000000000000000FF0810088740300F83
:10382000004080403F000000000000000000000059
:103830000000000000000000000000000000000088
:103840000000000000000000000000000000000078
:103850000000000000000000000000000000000068
:103860000000000000000000000000000000000058
:103870000000000000000000000000000000000048
:103880000000000000000000000000000000000038
:103890000000000000000000000000000000000028
:1038A0000000000000000000000000000000000018
:1038B0000000000000000000000000000000000008
:1038C00000000000000000000000000000000000F8
:1038D00000000000000000000000000000000000E8
:1038E00000000000000000000000000000000000D8
:1038F00000000000000000000000000000000000C8
:1039000000000000000000000000000000000000B7
:103910000000000000000000C038000000FF0000B0
:10392000402018000000000000000000000000001F
:103930000000000000000000000000000000000087
:103940000000000000000000000000000000000077
:103950000000000000000000000000000000000067
:103960000000000000000000000000000000000057
:103970000000000000000000000000000000000047
:103980000000000000000000000000000000000037
:103990000000000000000000000000000000000027
:1039A0000000000000000000000000000000000017
:1039B0000000000000000000000000000000000007
:1039C00000000000000000000000000000000000F7
:1039D00000000000000000000000000000000000E7
:1039E00000000000000000000000000000000000D7
:1039F00000000000000000000000000000000000C7
:103A000000000000000000000000000000000000B6
:103A1000000000000080814020100C0300030C1007
:103A20002040808000000000000000000000000036
:103A30000000000000000000000000000000000086
:103A40000000000000000000000000000000000076
:103A50000000000000000000000000000000000066
:103A60000000000000000000000000000000000056
:103A70000000000000000000000000000000000046
:103A80000000000000000000000000000000000036
:103A90000000000000000000000000000000000026
:103AA0000000000000000000000000000000000016
:103AB0000000000000000000000000000000000006
:103AC00000000000000000000000000000000000F6
:103AD00000000000000000000000000000000000E6
:103AE00000000000000000000000000000000000D6
:103AF00000000000000000000000000000000000C6
:103B000000000000000000000000000000000000B5
:103B100000000000101010FF109000FE82828292C0
:103B2000A29E000000000000000000000000000055
:103B30000000000000000000000000000000000085
:103B40000000000000000000000000000000000075
:103B50000000000000000000000000000000000065
:103B60000000000000000000000000000000000055
:103B70000000000000000000000000000000000045
:103B80000000000000000000000000000000000035
:103B90000000000000000000000000000000000025
:103BA0000000000000000000000000000000000015
:103BB0000000000000000000000000000000000005
:103BC00000000000000000000000000000000000F5
:103BD00000000000000000000000000000000000E5
:103BE00000000000000000000000000000000000D5
:103BF00000000000000000000000000000000000C5
:103C000000000000000000000000000000000000B4
:103C10000000000444827F010000FF80432C102C30
:103C200043800000000000000000000000000000D1
:103C30000000000000000000000000000000000084
:103C40000000000000000000000000000000000074
:103C50000000000000000000000000000000000064
:103C60000000000000000000000000000000000054
:103C70000000000000000000000000000000000044
:103C80000000000000000000000000000000000034
:103C90000000000000000000000000000000000024
:103CA0000000000000000000000000000000000014
:103CB0000000000000000000000000000000000004
:103CC00000000000000000000000000000000000F4
:103CD00000000000000000000000000000000000E4
:103CE00000000000000000000000000000000000D4
:103CF00000000000000000000000000000000000C4
:103D000000000000000000000000000000000000B3
:103D1000000012EAAFAAEA0FFA02888C5724548CEA
:103D2000840000000000000000000000000000000F
:103D30000000000000000000000000000000000083
:103D40000000000000000000000000000000000073
:103D50000000000000000000000000000000000063
:103D60000000000000000000000000000000000053
:103D70000000000000000000000000000000000043
:103D80000000000000000000000000000000000033
:103D90000000000000000000000000000000000023
:103DA0000000000000000000000000000000000013
:103DB0000000000000000000000000000000000003
:103DC00000000000000000000000000000000000F3
:103DD00000000000000000000000000000000000E3
:103DE00000000000000000000000000000000000D3
:103DF00000000000000000000000000000000000C3
:103E000000000000000000000000000000000000B2
:103E1000000202EAAAAAABAAABAAAAAAAAEA0202CA
:103E20000000000000000000000000000000000092
:103E30000000000000000000000000000000000082
:103E40000000000000000000000000000000000072
:103E50000000000000000000000000000000000062
:103E60000000000000000000000000000000000052
:103E70000000000000000000000000000000000042
:103E80000000000000000000000000000000000032
:103E90000000000000000000000000000000000022
:103EA0000000000000000000000000000000000012
:103EB0000000000000000000000000000000000002
:103EC00000000000000000000000000000000000F2
:103ED00000000000000000000000000000000000E2
:103EE00000000000000000000000000000000000D2
:103EF00000000000000000000000000000000000C2
:103F000000000000000000000000000000000000B1
:103F1000000022322AA6A2622111098101000000BC
:103F20000000000000000000000000000000000091
:103F30000000000000000000000000000000000081
:103F40000000000000000000000000000000000071
:103F50000000000000000000000000000000000061
:103F60000000000000000000000000000000000051
:103F70000000000000000000000000000000000041
:103F80000000000000000000000000000000000031
:103F90000000000000000000000000000000000021
:103FA0000000000000000000000000000000000011
:103FB0000000000000000000000000000000000001
:103FC00000000000000000000000000000000000F1
:103FD00000000000000000000000000000000000E1
:103FE00000000000000000000000000000000000D1
:103FF00000000000000000000000000000000000C1
:1040000000000000000000000000000000000000B0
:104010004222130B42827E02020A12234600000053
:104020000000000000000000000000000000000090
:104030000000000000000000000000000000000080
:104040000000000000000000000000000000000070
:104050000000000000000000000000000000000060
:104060000000000000000000000000000000000050
:104070000000000000000000000000000000000040
:104080000000000000000000000000000000000030
:104090000000000000000000000000000000000020
:1040A0000000000000000000000000000000000010
:1040B0000000000000000000000000000000000000
:1040C00000000000000000000000000000000000F0
:1040D00000000000000000000000000000000000E0
:1040E00000000000000000000000000000000000D0
:1040F00000000000000000000000000000000000C0
:10410000000000000000000000000000000020305F
:10411000AC63300088C8A8998E88A8C888000000C1
:10412000000000000000000000000000000000008F
:10413000000000000000000000000000000000007F
:10414000000000000000000000000000000000006F
:10415000000000000000000000000000000000005F
:10416000000000000000000000000000000000004F
:10417000000000000000000000000000000000003F
:10418000000000000000000000000000000000002F
:10419000000000000000000000000000000000001F
:1041A000000000000000000000000000000000000F
:1041B00000000000000000000000000000000000FF
:1041C00000000000000000000000000000000000EF
:1041D00000000000000000000000000000000000DF
:1041E00000000000000000000000000000000000CF
:1041F00000000000000000000000000000000000BF
:104200000000000000000000000000000022672203
:1042100012128040300F00003F404071000000004B
:10422000000000000000000000000000000000008E
:10423000000000000000000000000000000000007E
:10424000000000000000000000000000000000006E
:10425000000000000000000000000000000000005E
:10426000000000000000000000000000000000004E
:10427000000000000000000000000000000000003E
:10428000000000000000000000000000000000002E
:10429000000000000000000000000000000000001E
:1042A000000000000000000000000000000000000E
:1042B00000000000000000000000000000000000FE
:1042C00000000000000000000000000000000000EE
:1042D00000000000000000000000000000000000DE
:1042E00000000000000000000000000000000000CE
:1042F00000000000000000000000000000000000BE
:1043000000000000000000000000000000404244E7
:104310005840407F40405048C60000000000000068
:10432000000000000000000000000000000000008D
:10433000000000000000000000000000000000007D
:10434000000000000000000000000000000000006D
:10435000000000000000000000000000000000005D
:10436000000000000000000000000000000000004D
:10437000000000000000000000000000000000003D
:10438000000000000000000000000000000000002D
:10439000000000000000000000000000000000001D
:1043A000000000000000000000000000000000000D
:1043B00000000000000000000000000000000000FD
:1043C00000000000000000000000000000000000ED
:1043D00000000000000000000000000000000000DD
:1043E00000000000000000000000000000000000CD
:1043F00000000000000000000000000000000000BD
:1044000000000000000000000000000040444444A0
:1044100044444444444444FF0000000000000000C1
:10442000000000000000000000000000000000008C
:10443000000000000000000000000000000000007C
:10444000000000000000000000000000000000006C
:10445000000000000000000000000000000000005C
:10446000000000000000000000000000000000004C
:10447000000000000000000000000000000000003C
:10448000000000000000000000000000000000002C
:10449000000000000000000000000000000000001C
:1044A000000000000000000000000000000000000C
:1044B00000000000000000000000000000000000FC
:1044C00000000000000000000000000000000000EC
:1044D00000000000000000000000000000000000DC
:1044E00000000000000000000000000000000000CC
:1044F00000000000000000000000000000000000BC
:10450000000000000000000000000808E8292E2834
:10451000E80808C80C0BE8080800000000000000CC
:10452000000000000000000000000000000000008B
:10453000000000000000000000000000000000007B
:10454000000000000000000000000000000000006B
:10455000000000000000000000000000000000005B
:10456000000000000000000000000000000000004B
:10457000000000000000000000000000000000003B
:10458000000000000000000000000000000000002B
:10459000000000000000000000000000000000001B
:1045A000000000000000000000000000000000000B
:1045B00000000000000000000000000000000000FB
:1045C00000000000000000000000000000000000EB
:1045D00000000000000000000000000000000000DB
:1045E00000000000000000000000000000000000CB
:1045F00000000000000000000000000000000000BB
:104600000000000000000000000000FF0949897F51
:1046100000000F40807F000000000000000000004C
:10462000000000000000000000000000000000008A
:10463000000000000000000000000000000000007A
:10464000000000000000000000000000000000006A
:10465000000000000000000000000000000000005A
:10466000000000000000000000000000000000004A
:10467000000000000000000000000000000000003A
:10468000000000000000000000000000000000002A
:10469000000000000000000000000000000000001A
:1046A000000000000000000000000000000000000A
:1046B00000000000000000000000000000000000FA
:1046C00000000000000000000000000000000000EA
:1046D00000000000000000000000000000000000DA
:1046E00000000000000000000000000000000000CA
:1046F00000000000000000000000000000000000BA
:1047000000000000000000001060028C0000FE921B
:1047100092929292FE000000000000000000000053
:104720000000000000000000000000000000000089
:104730000000000000000000000000000000000079
:104740000000000000000000000000000000000069
:104750000000000000000000000000000000000059
:104760000000000000000000000000000000000049
:104770000000000000000000000000000000000039
:104780000000000000000000000000000000000029
:104790000000000000000000000000000000000019
:1047A0000000000000000000000000000000000009
:1047B00000000000000000000000000000000000F9
:1047C00000000000000000000000000000000000E9
:1047D00000000000000000000000000000000000D9
:1047E00000000000000000000000000000000000C9
:1047F00000000000000000000000000000000000B9
:104800000000000000000004047E01407E42427E61
:10481000427E42427E400000000000000000000096
:104820000000000000000000000000000000000088
:104830000000000000000000000000000000000078
:104840000000000000000000000000000000000068
:104850000000000000000000000000000000000058
:104860000000000000000000000000000000000048
:104870000000000000000000000000000000000038
:104880000000000000000000000000000000000028
:104890000000000000000000000000000000000018
:1048A0000000000000000000000000000000000008
:1048B00000000000000000000000000000000000F8
:1048C00000000000000000000000000000000000E8
:1048D00000000000000000000000000000000000D8
:1048E00000000000000000000000000000000000C8
:1048F00000000000000000000000000000000000B8
:104900000000000000000000FC242424FC252624D4
:10491000FC2424240400000000000000000000002B
:104920000000000000000000000000000000000087
:104930000000000000000000000000000000000077
:104940000000000000000000000000000000000067
:104950000000000000000000000000000000000057
:104960000000000000000000000000000000000047
:104970000000000000000000000000000000000037
:104980000000000000000000000000000000000027
:104990000000000000000000000000000000000017
:1049A0000000000000000000000000000000000007
:1049B00000000000000000000000000000000000F7
:1049C00000000000000000000000000000000000E7
:1049D00000000000000000000000000000000000D7
:1049E00000000000000000000000000000000000C7
:1049F00000000000000000000000000000000000B7
:104A0000000000000040308F80844C55252525553E
:104A10004C808080000000000000000000000000CA
:104A20000000000000000000000000000000000086
:104A30000000000000000000000000000000000076
:104A40000000000000000000000000000000000066
:104A50000000000000000000000000000000000056
:104A60000000000000000000000000000000000046
:104A70000000000000000000000000000000000036
:104A80000000000000000000000000000000000026
:104A90000000000000000000000000000000000016
:104AA0000000000000000000000000000000000006
:104AB00000000000000000000000000000000000F6
:104AC00000000000000000000000000000000000E6
:104AD00000000000000000000000000000000000D6
:104AE00000000000000000000000000000000000C6
:104AF00000000000000000000000000000000000B6
:104B0000000000001060028C00FE9292929292923D
:104B1000FE00000000000000000000000000000097
:104B20000000000000000000000000000000000085
:104B30000000000000000000000000000000000075
:104B40000000000000000000000000000000000065
:104B50000000000000000000000000000000000055
:104B60000000000000000000000000000000000045
:104B70000000000000000000000000000000000035
:104B80000000000000000000000000000000000025
:104B90000000000000000000000000000000000015
:104BA0000000000000000000000000000000000005
:104BB00000000000000000000000000000000000F5
:104BC00000000000000000000000000000000000E5
:104BD00000000000000000000000000000000000D5
:104BE00000000000000000000000000000000000C5
:104BF00000000000000000000000000000000000B5
:104C000000000004047E014448507F40407F50482B
:104C10004440000000000000000000000000000010
:104C20000000000000000000000000000000000084
:104C30000000000000000000000000000000000074
:104C40000000000000000000000000000000000064
:104C50000000000000000000000000000000000054
:104C60000000000000000000000000000000000044
:104C70000000000000000000000000000000000034
:104C80000000000000000000000000000000000024
:104C90000000000000000000000000000000000014
:104CA0000000000000000000000000000000000004
:104CB00000000000000000000000000000000000F4
:104CC00000000000000000000000000000000000E4
:104CD00000000000000000000000000000000000D4
:104CE00000000000000000000000000000000000C4
:104CF00000000000000000000000000000000000B4
:104D000000000000FC242424FC252624FC24242468
:104D1000040000000000000000000000000000008F
:104D20000000000000000000000000000000000083
:104D30000000000000000000000000000000000073
:104D40000000000000000000000000000000000063
:104D50000000000000000000000000000000000053
:104D60000000000000000000000000000000000043
:104D70000000000000000000000000000000000033
:104D80000000000000000000000000000000000023
:104D90000000000000000000000000000000000013
:104DA0000000000000000000000000000000000003
:104DB00000000000000000000000000000000000F3
:104DC00000000000000000000000000000000000E3
:104DD00000000000000000000000000000000000D3
:104DE00000000000000000000000000000000000C3
:104DF00000000000000000000000000000000000B3
:104E00000040308F80844C55252525554C8080806E
:104E10000000000000000000000000000000000092
:104E20000000000000000000000000000000000082
:104E30000000000000000000000000000000000072
:104E40000000000000000000000000000000000062
:104E50000000000000000000000000000000000052
:104E60000000000000000000000000000000000042
:104E70000000000000000000000000000000000032
:104E80000000000000000000000000000000000022
:104E90000000000000000000000000000000000012
:104EA0000000000000000000000000000000000002
:104EB00000000000000000000000000000000000F2
:104EC00000000000000000000000000000000000E2
:104ED00000000000000000000000000000000000D2
:104EE00000000000000000000000000000000000C2
:104EF00000000000000000000000000000000000B2
:104F0000807000FF1008FE424242FA424242FE0018
:104F10000000000000000000000000000000000091
:104F20000000000000000000000000000000000081
:104F30000000000000000000000000000000000071
:104F40000000000000000000000000000000000061
:104F50000000000000000000000000000000000051
:104F60000000000000000000000000000000000041
:104F70000000000000000000000000000000000031
:104F80000000000000000000000000000000000021
:104F90000000000000000000000000000000000011
:104FA0000000000000000000000000000000000001
:104FB00000000000000000000000000000000000F1
:104FC00000000000000000000000000000000000E1
:104FD00000000000000000000000000000000000D1
:104FE00000000000000000000000000000000000C1
:104FF0000000000000000000000000000000008031
:105000006018070810FF50484641424C40FF00001E
:105010000000000000000000000000000000000090
:105020000000000000000000000000000000000080
:105030000000000000000000000000000000000070
:105040000000000000000000000000000000000060
:105050000000000000000000000000000000000050
:105060000000000000000000000000000000000040
:105070000000000000000000000000000000000030
:105080000000000000000000000000000000000020
:105090000000000000000000000000000000000010
:1050A0000000000000000000000000000000000000
:1050B00000000000000000000000000000000000F0
:1050C00000000000000000000000000000000000E0
:1050D00000000000000000000000000000000000D0
:1050E00000000000000000000000000000000000C0
:1050F0000000000000000000000000000000100C94
:10510000055555D5057F0555555505140C0000006E
:10511000000000000000000000000000000000008F
:10512000000000000000000000000000000000007F
:10513000000000000000000000000000000000006F
:10514000000000000000000000000000000000005F
:10515000000000000000000000000000000000004F
:10516000000000000000000000000000000000003F
:10517000000000000000000000000000000000002F
:10518000000000000000000000000000000000001F
:10519000000000000000000000000000000000000F
:1051A00000000000000000000000000000000000FF
:1051B00000000000000000000000000000000000EF
:1051C00000000000000000000000000000000000DF
:1051D00000000000000000000000000000000000CF
:1051E00000000000000000000000000000000000BF
:1051F000000000000000000000000000001010107F
:105200008AA96B352525ABE90810101000000000B5
:10521000000000000000000000000000000000008E
:10522000000000000000000000000000000000007E
:10523000000000000000000000000000000000006E
:10524000000000000000000000000000000000005E
:10525000000000000000000000000000000000004E
:10526000000000000000000000000000000000003E
:10527000000000000000000000000000000000002E
:10528000000000000000000000000000000000001E
:10529000000000000000000000000000000000000E
:1052A00000000000000000000000000000000000FE
:1052B00000000000000000000000000000000000EE
:1052C00000000000000000000000000000000000DE
:1052D00000000000000000000000000000000000CE
:1052E00000000000000000000000000000000000BE
:1052F0000000000000000000000000001060028CB0
:10530000201808C838CF08082898000000000000BE
:10531000000000000000000000000000000000008D
:10532000000000000000000000000000000000007D
:10533000000000000000000000000000000000006D
:10534000000000000000000000000000000000005D
:10535000000000000000000000000000000000004D
:10536000000000000000000000000000000000003D
:10537000000000000000000000000000000000002D
:10538000000000000000000000000000000000001D
:10539000000000000000000000000000000000000D
:1053A00000000000000000000000000000000000FD
:1053B00000000000000000000000000000000000ED
:1053C00000000000000000000000000000000000DD
:1053D00000000000000000000000000000000000CD
:1053E00000000000000000000000000000000000BD
:1053F000000000000000000000000004047E010422
:105400000201FF4021060A112040000000000000B8
:10541000000000000000000000000000000000008C
:10542000000000000000000000000000000000007C
:10543000000000000000000000000000000000006C
:10544000000000000000000000000000000000005C
:10545000000000000000000000000000000000004C
:10546000000000000000000000000000000000003C
:10547000000000000000000000000000000000002C
:10548000000000000000000000000000000000001C
:10549000000000000000000000000000000000000C
:1054A00000000000000000000000000000000000FC
:1054B00000000000000000000000000000000000EC
:1054C00000000000000000000000000000000000DC
:1054D00000000000000000000000000000000000CC
:1054E00000000000000000000000000000000000BC
:1054F000000000000000000000000000FC24242444
:10550000FC252624FC2424240400000000000000C4
:10551000000000000000000000000000000000008B
:10552000000000000000000000000000000000007B
:10553000000000000000000000000000000000006B
:10554000000000000000000000000000000000005B
:10555000000000000000000000000000000000004B
:10556000000000000000000000000000000000003B
:10557000000000000000000000000000000000002B
:10558000000000000000000000000000000000001B
:10559000000000000000000000000000000000000B
:1055A00000000000000000000000000000000000FB
:1055B00000000000000000000000000000000000EB
:1055C00000000000000000000000000000000000DB
:1055D00000000000000000000000000000000000CB
:1055E00000000000000000000000000000000000BB
:1055F00000000000000000000040308F80844C5507
:10560000252525554C80808000000000000000000A
:10561000000000000000000000000000000000008A
:10562000000000000000000000000000000000007A
:10563000000000000000000000000000000000006A
:10564000000000000000000000000000000000005A
:10565000000000000000000000000000000000004A
:10566000000000000000000000000000000000003A
:10567000000000000000000000000000000000002A
:10568000000000000000000000000000000000001A
:10569000000000000000000000000000000000000A
:1056A00000000000000000000000000000000000FA
:1056B00000000000000000000000000000000000EA
:1056C00000000000000000000000000000000000DA
:1056D00000000000000000000000000000000000CA
:1056E00000000000000000000000000000000000BA
:1056F000000000000000000002030405060708097E
:105700000A0B0C0D0E0F1010285700080000002087
:1057100030000000942B000858570008300000208B
:10572000E8040000A42B00080000000001000000B5
:1057300010000000AE001040B081FFA1A6A83FC835
:10574000D300D580D805D9F1DA12D8308D14AF0046
:085750000024F4000000000039
:04000005080000ED02
:00000001FF
